:100000000C9488020C94CF020C94CF020C94CF0273
:100010000C94CF020C94CF020C94CF020C94CF021C
:100020000C94CF020C94CF020C94DF230C94B324D5
:100030000C945F1E0C94CF020C94CF020C94CF0250
:100040000C94CF020C94CF020C94CF020C94CF02EC
:100050000C94CF020C94B61E0C94CF020C94CF02D9
:100060000C94CF020C94CF020C94CF020C94CF02CC
:100070000C94CF020C94CF020C94CF020C94CF02BC
:100080000C94CF020C94CF020C94CF020C94CF02AC
:100090000C94CF020C94CF020C94CF020C94CF029C
:1000A0000C94CF020C94CF020C94CF0229002200B2
:1000B000270008000C0004000B002800190037007E
:1000C0001E0023002A001500120016000D00E1009A
:1000D000050038001F0024002B0017001300070044
:1000E0000E001D001100E5002000250014001C007A
:1000F000280009000F001B001000E000210026006E
:100100001A00180035000A00330006003600E3002C
:100110003500E2002C002C00000000000000000070
:1001200000000000010001000100010001000100C9
:1001300001000100010001000100010001000100B7
:1001400001000100010001000100010001000100A7
:100150000100010001000100010001000100010097
:100160000100010001000100010001000100010087
:100170000100010001000100010001000100010077
:100180000100010001000100010001000100010067
:10019000000000000000000000000000010001005D
:1001A0000100010001000100010001000100010047
:1001B0000100010001000100010001000100010037
:1001C0000100010001000100010001000100010027
:1001D0000100010001000100010001000100010017
:1001E0000100010001000100010001000100010007
:1001F00001000100010001000100010001000100F7
:1002000001000100010001000000000000000000EA
:1002100000000000010001000100010001000100D8
:1002200001000100010001000100010001000100C6
:1002300001000100010001000100010001000100B6
:1002400001000100010001000100010001000100A6
:100250000100010001000100010001000100010096
:100260000100010001000100010001000100010086
:100270000100010001000100010001000100010076
:10028000000000000000000000000000444542554E
:10029000473A2064697361626C65642E0A004445C4
:1002A0004255473A20656E61626C65642E0A004FC4
:1002B0006E6573686F743A206163746976653A207D
:1002C00025640A000A0025303258006B6579626F98
:1002D0006172645F7365745F6C65643A20006D6180
:1002E00074726978207363616E20667265717565DA
:1002F0006E63793A20256C750A000A002530313684
:1003000062003A200025303258000A722F632030F4
:100310003132333435363738394142434445460A61
:1003200000290A002575002F002575005D2800258D
:10033000640020002564002000256400200025645E
:10034000007C0025303258006D6F7573656B6579E0
:10035000205B62746E7C782079207620685D28723C
:1003600065702F61636C293A205B000A00253032EA
:100370005820006B6579626F6172645F7265706F9F
:1003800072743A20005B735D005B575D005B535DE8
:10039000005B525D005B445D005B435D0014036DD8
:1003A000006900630072006F006F006F006F006EE5
:1003B0000000000C034E007900610072007500001F
:1003C000000403090409025B00030100A0FA090408
:1003D0000000010301010009211101000122400078
:1003E0000705810308000A09040100010300000059
:1003F000092111010001227B000705820320000A68
:100400000904020002030000000921110100012279
:1004100022000705830320000107050303200001D4
:100420001201000200000008594E5652010001025C
:1004300000010631FF0974A1010975150026FF00AE
:100440009520750881020976150026FF0095207514
:10045000089102C005010902A10185020901A1005C
:100460000509190129081500250195087501810262
:100470000501093009311581257F9502750881062E
:1004800009381581257F950175088106050C0A3804
:10049000021581257F950175088106C0C0050109F7
:1004A00080A101850319012AB700150126B700951F
:1004B0000175108100C0050C0901A1018504190115
:1004C0002AA002150126A002950175108100C00521
:1004D000010906A101050719E029E7150025019585
:1004E0000875018102950175088101050719002928
:1004F000FF150026FF009506750881000508190103
:100500002905950575019102950175039101C000BA
:1005100011241FBECFEFDAE0DEBFCDBF04B603FE6D
:1005200027C08091BD029091BE02A091BF02B09100
:10053000C0028730904BA740B04BD1F41092BD025F
:100540001092BE021092BF021092C00214BE84B775
:10055000877F84BF0FB6F894A8958091600088616A
:1005600080936000109260000FBEE0E0F8E3099510
:1005700011E0A0E0B1E0E6E2FEE402C005900D92D9
:10058000AA3AB107D9F722E0AAEAB1E001C01D9268
:10059000AD3BB207E1F70E9474160C94ED260C9463
:1005A0000000FF93EF93E091AA01F091AB01309727
:1005B00009F00995EF91FF910895FC018591803034
:1005C00011F0EFDFFBCF0895FF27E0E230E247FFB5
:1005D0000CC0419597FF09C0EDE26095709580953C
:1005E0009095611D711D811D911D27FF02C02195F0
:1005F00030E350E2AA27660F771F881F991FAA1FB2
:10060000A41710F0A41B63955A95A9F7AA3008F017
:10061000A95FA05DAF93F395611571058105910503
:1006200041F7ED3211F4EF93F395F21718F43F937D
:10063000F395FBCF8F91B5DFFA95E1F70895E99136
:10064000F9918591803021F0853219F0AADFF9CF38
:10065000089520E0E89455915532C1F3503311F4D8
:10066000689455915A3348F4505390F3220F022E58
:10067000220F220F200D250FF4CF0EF42195899122
:100680009991533619F3533729F1533559F1BC0178
:1006900088279927E8945C3621F489919991689488
:1006A0005591543639F446EF7EF077FF0DC08FEF49
:1006B0009FEF0AC055374AE039F0583540E121F044
:1006C000523642E009F00895FF93EF937DDFEF91FA
:1006D000FF91B7CFFF93EF93FC0181918030B9F385
:1006E00060DFFBCFFF93EF9368DFF1CFDF93CF9312
:1006F000CDB7DEB72596A3DFCF91DF910895F894AB
:10070000E82FE295EF70F0E031A1282F2F7081E003
:1007100090E001C0880F2A95EAF78095382331A32D
:1007200092A1892382A378940895CF93DF930097B1
:1007300049F08130910509F460C090E080E0DF91DC
:10074000CF910895A0E8B2E0C6E8D2E0880F991FE3
:10075000880F991FAC0140505F4FFA018081918151
:100760009C0164E0359527956A95E1F7F90120A190
:1007700030E08F70992702C0359527958A95E2F76A
:1007800021703327398328838D919C9111972817E5
:100790003907C1F5FA0182819381FC0124E0F595C6
:1007A000E7952A95E1F720A130E08F70992702C0E4
:1007B000359527958A95E2F7217033273B832A8365
:1007C00012968D919C9113971296E1E0F0E0281714
:1007D000390709F4B2CF2D933C9380917E0290911A
:1007E0007F026AE070E00E947026CB01EF2B09F0D7
:1007F000A6CF919581959109A2CFAAE8B2E0CEE863
:10080000D2E0A4CFF0E0E0E0E6CFCF93DF93C0E00A
:10081000D1E088810E947F038A810E947F038C81BE
:100820000E947F038E810E947F0387E90E947F03DD
:1008300086E892E0FC0111821082CEE8D2E01982B3
:100840001882A0E8B2E011961C921E922AE832E0CB
:10085000F90111821082FC01138212821B821A821A
:1008600013961C921E921297F9011382128284E64B
:1008700090E090937F0280937E02DF91CF91089564
:10088000FF920F931F93CF93DF93CDB7DEB72C97D3
:100890000FB6F894DEBF0FBECDBF4F83152F58871C
:1008A00069877A878B879C8790E080E00E94950318
:1008B000909385028093840281E090E00E949503EA
:1008C000082F80937C0290937D02F090840269B19E
:1008D0006095661F6627661F40E0812F0E94241ADC
:1008E0008887F9860A8786E0FE013796DE01119631
:1008F00001900D928A95E1F729813A814B815C81C3
:100900006D817E8180E090E02C960FB6F894DEBF7A
:100910000FBECDBFDF91CF911F910F91FF90089532
:1009200080917E0290917F02089590937F02809340
:100930007E020895F894E82FE295EF70F0E031A17F
:10094000282F2F7081E090E001C0880F2A95EAF7E8
:10095000382B31A392A18095892382A3789408959E
:10096000F894E82FE295EF70F0E031A1282F2F7076
:1009700081E090E001C0880F2A95EAF7982F9095C2
:10098000932391A392A1892B82A378940895CF9267
:10099000DF92EF92FF920F931F93CF93DF937C012F
:1009A000C62E062F10E0F801E55DFE4FD0808FEFD8
:1009B000D816F1F18D2D0E949A040E942A16E1E2C8
:1009C000F1E030E020E0D0E0C0E041E050E06191B3
:1009D0006F3FB9F1A62FA295AF70B0E090968C91C1
:1009E00090E06F7002C0959587956A95E2F780FD5B
:1009F00028C0CA01022E02C0880F991F0A94E2F78C
:100A0000C82BD92B2F5F3F4F2530310501F78D2D96
:100A10000E94B00461E0209709F460E08C2D0E94F0
:100A20002C16000F111F0E0D1F1DF801D183C0835E
:100A3000DF91CF911F910F91FF90EF90DF90CF90BA
:100A4000089590E080E0DCCF8F929F92BF92CF928A
:100A5000DF92EF92FF920F931F93CF93DF93B82E05
:100A6000092F162FE62EF12CC7018F5D9E4F4C01EA
:100A7000EC0188818F3F09F451C00E949A040E94C2
:100A80002A16D5E0ED0EF11C61E070E002C0660FA1
:100A9000771FEA94E2F76B01C094D094ABE2B1E027
:100AA000EB2DF02F81E3E82E81E0F82E00E04D9150
:100AB000808191814F3F69F1242F22952F7030E082
:100AC000E90128A130E04F7002C0359527954A957D
:100AD000E2F720FD1EC0862B972B9183808301E0D7
:100AE0003296EA16FB0619F7F40180818F3F11F068
:100AF0000E94B004602F812FDF91CF911F910F9141
:100B0000FF90EF90DF90CF90BF909F908F900C94CC
:100B10002C168C219D2191838083E2CFDF91CF9190
:100B20001F910F91FF90EF90DF90CF90BF909F901B
:100B30008F900895EF92FF920F931F93CF93DF93BF
:100B4000CBE2D1E08E01F80181918F018F3F11F04E
:100B50000E94B004F1E001331F07A9F701E211E0A0
:100B60007801F70181917F018F3F11F00E94B0045D
:100B7000F6E2EF16F1E0FF06A1F7F80181918F018F
:100B80008F3F11F00E94B004F1E006321F07A9F771
:100B900089918F3F11F00E94B00481E0C133D807E2
:100BA000B9F7DF91CF911F910F91FF90EF900895CA
:100BB0000E949A058CE0E0EAF2E0DF01982F1D9296
:100BC0009A95E9F7E4E9F2E0DF011D928A95E9F7E9
:100BD00086E00E942E160C949306FF920F931F93AB
:100BE000CF93DF93CDB7DEB72C970FB6F894DEBF67
:100BF0000FBECDBF8E010F5F1F4F8CE0F801119229
:100C00008A95E9F7F12C6F2DC8010E94C704F3946F
:100C1000F6E0FF12F8CFF12C6F2DC8010E942405D9
:100C2000F39485E0F812F8CF4CE050E0B80184E985
:100C300092E00E949E26FF24F394009709F4F12C81
:100C4000892B41F08CE0F801A4E9B2E001900D920B
:100C50008A95E1F72F2D46E060EA72E084E992E0A0
:100C60000E942F160E9499068F2D2C960FB6F8948D
:100C7000DEBF0FBECDBFDF91CF911F910F91FF90CF
:100C8000089581E0089581E008950C944306089545
:100C90000C9447061F93CF93DF9300D000D00F92A0
:100CA000CDB7DEB749835A836B833091AC0189811C
:100CB0009A8131111DC06623B9F02223A9F00E9448
:100CC0001D0D182F682F89819A810E94C90C698196
:100CD0007A81812F0F900F900F900F900F90DF91DE
:100CE000CF911F910C94A2140E94F50C182FEFCFF6
:100CF0000E941D0D69817A81EDCFFC01262F408174
:100D000051816281738184810C944A0681E0089547
:100D1000CF93DF93EC0160E00E947D06BE01DF917E
:100D2000CF910C9448060E94AC150E944C070C947D
:100D3000D1150C94D41580E00E944D070C94741AC0
:100D4000089508950E94720B0E94A1062FEF84E37C
:100D50009CE0215080409040E1F700C000000C94DE
:100D6000DA1E0F931F93CF93DF938C0161E00E94F3
:100D70007D06EC01B8010E9445068823C1F1B80147
:100D8000CE010E94BD1C882391F1B801CE010E94C2
:100D9000FD1A882361F1B801CE010E94271C882327
:100DA00031F1F8018281882361F0CF3DFCE5DF0756
:100DB000B1F170F4C115ECE5DE07B9F0C130DC45E6
:100DC000E1F0C801DF91CF911F910F910C94410682
:100DD000CC358DE5D80749F1CD35DC0719F1CB3598
:100DE000DD4579F70E946111ECCF0E94A20680E0F8
:100DF000DF91CF911F910F91089590914302892F18
:100E00008E7F90FF81608093430280FF05C08EE952
:100E100092E00E94DD02EBCF8CE892E0FACF0E94D4
:100E20001212E5CF0E945811CCCF0E946411C9CF95
:100E30000C94A0060E94191D0E944D070C941807DF
:100E4000829590E09C01220F331F220F331F2C7CD0
:100E500095958795959587958373282B30E0C901E3
:100E6000880F991F8A7A359527952575822B0895C5
:100E7000CF93DF93D92F0E942007C82F8D2F0E9478
:100E800020079C2FDF91CF91089508950C9445077A
:100E900081E008950C9448070895CF93C82F0E94CD
:100EA00046078C2FCF910C944A07CF93DF93CDB791
:100EB000DEB72B970FB6F894DEBF0FBECDBF4F83C2
:100EC000588769877A878B8761110E94A0101E82DC
:100ED0001D8285E0FE013796DE01119601900D928C
:100EE0008A95E1F78C819D81892B89F449815A810A
:100EF0006B817C818D819E810E94C10F2B960FB6E4
:100F0000F894DEBF0FBECDBFDF91CF9108958981E8
:100F10009A8189238F3F51F3CE0101960E94860664
:100F20008111E4CFEBCFFC01808191810C945F0DA6
:100F30000F931F93CF93DF9300D000D000D0CDB795
:100F4000DEB7082F162F0E94BD1A29834B835C83BE
:100F50006D837E83002399F0312B4981532F6B8160
:100F60007C818D819E8126960FB6F894DEBF0FBEE0
:100F7000CDBFDF91CF911F910F910C94DE1A109588
:100F80003123EBCFCF93C82F882309F48BC082384D
:100F9000C1F40E94191D81FD85C089E30E945B1088
:100FA0000E94C3102FEF81EE94E0215080409040CA
:100FB000E1F700C0000089E30E946210CF910C9419
:100FC000C3108338A1F40E94191D80FD6BC083E516
:100FD0000E945B100E94C3102FEF81EE94E021501D
:100FE00080409040E1F700C0000083E5E5CF843801
:100FF000A1F40E94191D82FD55C087E40E945B1078
:101000000E94C3102FEF81EE94E021508040904069
:10101000E1F700C0000087E4CFCF8CEF8C0F813A5E
:1010200090F46C2F80910A0190910B010E94BD1DDC
:10103000882329F08C2F0E9462100E94C3108C2FED
:101040000E945B10BBCF80E28C0F883048F4C770E1
:1010500081E001C0880FCA95EAF70E948310AECFE5
:10106000EBE5EC0FE33040F4F0E0E15AFE4F808115
:1010700090E0CF910C947F1DE8E5EC0FE73150F440
:10108000F0E0EE0FFF1FEF5CFE4F80819181CF916A
:101090000C94951DCD3E30F08C2F0E940417CF91FB
:1010A0000C94D717CF910895882309F452C0823841
:1010B00071F40E94191D81FF4CC089E30E945B10EE
:1010C0000E94C31089E30E9462100C94C3108338FD
:1010D00059F40E94191D80FF3CC083E50E945B10FB
:1010E0000E94C31083E5EFCF843859F40E94191D84
:1010F00082FF2FC087E40E945B100E94C31087E428
:10110000E2CF9CEF980F913AF0F290E2980F98306E
:1011100050F4877091E001C0990F8A95EAF7892F02
:101120000E948910D2CF9BE5980F933020F490E075
:1011300080E00C947F1D98E5980F973120F490E0A3
:1011400080E00C94951D8D3E20F00E945E170C945B
:10115000D71708951F93CF93DF93182FEB010E94A9
:10116000C207209731F4812FDF91CF911F910C940A
:1011700054088FE99FE00197F1F700C00000219724
:10118000F0CF70E060E0893311F460E570E00C941A
:10119000AA08882321F00E9483100C94C31008959C
:1011A000882321F00E9489100C94C3100895BF92E7
:1011B000CF92DF92EF92FF920F931F93CF93DF9323
:1011C0006C01D62FC72FFC011281F580F2949FE0AD
:1011D000F9220E947910E82E8823B9F0E12E11231C
:1011E000A1F08C2F807F803421F080E28D0F883039
:1011F000D0F08091930282FD16C082E00E9414110B
:101200000E94791091E0E82EE926BC2EB2948FE07E
:10121000B822FBE0FB1508F468C0EB2DF0E0E151CB
:10122000F94D0C949826E12CF0CF0C2F0F70C07F55
:1012300011F00295007F112399F0002359F080E20C
:101240008D0F883010F0D11107C0802F0E948310BD
:101250000E94C3108D2F41C0802F0E949310F8CFA1
:101260008D2F0E945408002309F43FC080E28D0FA7
:10127000883010F0D11104C0802F0E94891003C063
:10128000802F0E9499100E94C3102FC00C2F0F7046
:10129000C07FC03211F00295007FDD2381F0D13094
:1012A00009F46AC0112309F474C0FF2009F46AC06C
:1012B000F601858180FFCECF8F70858363C08091DA
:1012C000930282FF39C0112359F0002329F0802FA7
:1012D0000E9483100E94C31080E00E94C20705C0D4
:1012E00080E00E9454080111C7CF2B2D2850330BEA
:1012F0002430310520F40E94191D0E944D07EE2074
:1013000009F48DC10E94751080FD89C1F601128219
:101310000E946F100E942D0CC6010E94300B0E948B
:101320006F10DF91CF911F910F91FF90EF90DF90A1
:10133000CF90BF900C944E0C112389F0F11006C091
:101340000E94A610802B0E94C908CFCF21E0F21284
:10135000F7CF0E94A610802B0E94AC10C6CFF110D0
:1013600006C00E94B910802F0E94D008BECF31E085
:10137000F31609F4BACFF5CF112331F085E08F15BC
:1013800008F4B3CF802FDFCF94E09F1508F4ADCFE2
:10139000EACFFF2041F3D93349F4FFEF27EE33E0E2
:1013A000F15020403040E1F700C000008D2F0E9436
:1013B00054089BCF8C2F86958695837069F0813079
:1013C00009F093CF8D2F9C2F9370111102C090E0E4
:1013D00080E00E94951D89CF8D2F9C2F9370111155
:1013E00002C090E080E00E947F1D7FCF8D2F1123EF
:1013F00091F00E940417ED2FE15FFF0BE830F1053B
:1014000068F461E070E001C0660FEA95EAF7812FA9
:101410000E9498076ACF0E945E17EDCF0E94D717EF
:1014200064CF8C2F837009F041C011115ECF4D2F16
:10143000429546954770440F440F0D2F0F7010E0F2
:1014400030E020E0042E04C0000F111F221F331FC4
:101450000A94D2F760E070E0CB01D4FF0FC06FE0D8
:1014600070E080E090E004C0660F771F881F991F2E
:101470004A95D2F76095709580959095C695C695DA
:10148000C370602B712B822B932BC23049F058F420
:10149000C13019F00E94DF0B28CF0E94CD0B25CF61
:1014A0000E94F10B22CF0E94CB0B1FCF86951123F8
:1014B00011F08C2F8170882309F417CF4D2F42959E
:1014C00046954770440F440F0D2F0F7010E030E029
:1014D00020E0042E04C0000F111F221F331F0A94A6
:1014E000D2F760E070E0CB01D4FF0FC06FE070E096
:1014F00080E090E004C0660F771F881F991F4A950F
:10150000D2F76095709580959095C695C695C370F5
:10151000602B712B822B932BC23049F058F4C130D1
:1015200019F00E94A40CE1CE0E94920CDECE0E9423
:10153000B60CDBCE0E94070CD8CECF70112329F059
:101540008C2F0E942D0C8D2FFECE8D2F0E94D00847
:101550008C2F0E944E0CC9CED23F51F160F4D03F87
:10156000B9F0D13F81F0112309F449C0F11072CED6
:101570008C2F8F7121C0D33F11F1D43FA1F78091FF
:10158000930282FF26C08C2F8F71112311F314C098
:10159000112349F0F4E0FF1508F4A7CE8C2F8F71CA
:1015A0000E94710CA2CE25E02F1508F49ECEF6CF36
:1015B0008C2F8F711111CDCF0E942D0C96CE11233F
:1015C00029F08C2F8F710E94180C8FCE0E94130C63
:1015D0008CCE112349F0CF718C2F0E942D0C63E02B
:1015E0008C2F0E94F91081CE81E00E94141131E00D
:1015F0003F1508F07ACE82E00E94141176CEFF20CB
:1016000059F0D93309F0D2CE8FEF97EEE3E0815055
:101610009040E040E1F7C8CE8C2F8F719ACFDF91D8
:10162000CF911F910F91FF90EF90DF90CF90BF90DF
:1016300008950F931F93CF93DF93EC016881798115
:101640008A810E94690D8C010E94C80C0E94CA0BFD
:10165000B801CE01DF91CF911F910F910C94D70863
:10166000CF93DF93EC018B819C81892B29F08881BA
:10167000998189238F3F59F4DF91CF910895CE014D
:101680000E94190BCE01DF91CF910C948806CE01F8
:101690000E94B1068111F3CF0E947910882361F373
:1016A0008A81882349F38091930282FDE5CF82E00D
:1016B000DF91CF910C94141190E080E00E947F1D87
:1016C00090E080E00E94951D0E94A0100E94A3104F
:1016D0000E94C3100E9480190C94D7170E946910B1
:1016E0000C945C0B0E9490100C946E0BE92FE29509
:1016F000EF70E250EE3070F4F0E0E550F94D0C94EC
:101700009826803F19F020F4883E20F481E0089567
:10171000843FE1F380E00895883EC0F3813FD1F734
:10172000F5CF93FB882780F90895FC018081918192
:101730000E945F0D0C94760BCF93DF9300D000D006
:101740000F92CDB7DEB70F900F900F900F900F90C4
:10175000DF91CF910895CF93DF9300D000D000D0D8
:10176000CDB7DEB726960FB6F894DEBF0FBECDBF5D
:10177000DF91CF91089508950C94BB0B0E94BC0B90
:101780006093D9017093DA018093DB019093DC01BF
:101790000C945C0B08950C94BE0B0F931F93009157
:1017A000D9011091DA012091DB013091DC01602B2D
:1017B000712B822B932B1F910F910C94BE0B0F93C7
:1017C0001F930091D9011091DA012091DB01309132
:1017D000DC0160237123822393231F910F910C94CA
:1017E000BE0B0F931F930091D9011091DA01209144
:1017F000DB013091DC0160277127822793271F913D
:101800000F910C94BE0B0C94BB0B0C94030C0E9418
:10181000050C6093D5017093D6018093D701909306
:10182000D8010C945C0B60E070E0CB010C94070CC9
:101830000F931F9341E050E060E070E08A019B014C
:1018400004C0000F111F221F331F8A95D2F7C90150
:10185000B8011F910F910C94070C0F931F9341E057
:1018600050E060E070E004C0440F551F661F771F12
:101870008A95D2F78091D5019091D601A091D70198
:10188000B091D8018A019B01082B192B2A2B3B2BE5
:10189000C901B8011F910F910C94070C0F931F936E
:1018A00041E050E060E070E004C0440F551F661F47
:1018B000771F8A95D2F7CB01BA0160957095809514
:1018C00090950091D5011091D6012091D7013091CA
:1018D000D80160237123822393231F910F910C94CD
:1018E000070C0F931F9341E050E060E070E004C0EC
:1018F000440F551F661F771F8A95D2F78091D50137
:101900009091D601A091D701B091D8018A019B0195
:10191000082719272A273B27C901B8011F910F91D2
:101920000C94070C0F931F930091D5011091D601D1
:101930002091D7013091D801602B712B822B932BF2
:101940001F910F910C94070C0F931F930091D501D9
:101950001091D6012091D7013091D80160237123D5
:10196000822393231F910F910C94070C0F931F93C5
:101970000091D5011091D6012091D7013091D80165
:1019800060277127822793271F910F910C94070CD2
:1019900008952AE0929F800D1124982F977041E0BE
:1019A00001C0440F9A95EAF786958695869595E04D
:1019B000899FF0011124E355FE4F90E080E070E034
:1019C0005191DF0111979B01082E02C03695279592
:1019D0000A94E2F7217021952527242325272C93AB
:1019E00001968530910561F708952AE0929F800D58
:1019F0001124982F977086958695869525E0829F6D
:101A0000F0011124E355FE4F50E040E080E02191C9
:101A100030E0092E02C0369527950A94E2F721702E
:101A20003327042E01C0220F0A94EAF7822B4F5F5E
:101A30005F4F4530510559F70895BF92CF92DF921D
:101A4000EF92FF920F931F93CF93DF938C01C0907F
:101A5000D501D090D601E090D701F090D8018091C7
:101A6000D9019091DA01A091DB01B091DC01C82A83
:101A7000D92AEA2AFB2ACFE1D0E0BC2ED701C60141
:101A80000C2E04C0B695A795979587950A94D2F722
:101A900080FD0EC0219788F7B12C8B2DDF91CF915F
:101AA0001F910F91FF90EF90DF90CF90BF9008951E
:101AB000B8018C2F0E94B614019761F3EECFCF933B
:101AC000DF93EC010E941D0DBE01DF91CF910C94BC
:101AD000B6141F93CF93DF93EB019091AC01992340
:101AE00031F0CB01DF91CF911F910C945F0D8823D2
:101AF00079F0CB010E941D0D182F682FCE010E9496
:101B0000C90CBE01812FDF91CF911F910C94B614A7
:101B1000CB010E94F50C182FF4CF1F93CF93DF93C6
:101B2000C091DD0116E08091DE018C1304C0DF91CD
:101B3000CF911F910895D0E01C9FF0011D9FF00DE3
:101B40001124E152FE4F4081518162817381848171
:101B500095810E94AB0B2196C770E5CF40910F0293
:101B60005091100260911102709112028091130243
:101B7000909114020C94AB0BFF920F931F93CF9391
:101B8000DF9380911402807FD1F480911102882329
:101B9000B1F08091DD011091DE0160910F02709132
:101BA0001002A0911202B0911302062F0723C091D8
:101BB0000801D091090196E0F92E181306C0DF91B3
:101BC000CF911F910F91FF90089590E0109711F021
:101BD0000F3F19F401968770F0CFF89E9001F99E9F
:101BE000300D1124F901E152FE4F41814713F2CF2C
:101BF00040814613EFCF42814111ECCF43815481A4
:101C00004A1B5B0B4C175D0728F7809114028F70FD
:101C1000806180931402F901EC51FE4F80818F7036
:101C2000806180838FE092E00E94300BDF91CF9142
:101C30001F910F91FF900C948D0DAF92BF92CF9298
:101C4000DF92EF92FF920F931F93CF93DF93CDB765
:101C5000DEB761970FB6F894DEBF0FBECDBF8C0123
:101C600085E0F801DE011D9601900D928A95E1F75D
:101C7000F801E2808FE0C82E82E0D82E6091120237
:101C8000709113026115710509F45FC190910F0203
:101C900020911002892F82238F3F09F456C1408181
:101CA0005181A380B480F0901102F501E61BF70B7F
:101CB000BF01E0910801F0910901FF2009F4F6C08D
:101CC00080911402382F307F6E177F0708F0AFC065
:101CD000311179C0FE2C251323C0941321C0E110CB
:101CE0001FC08F708061809314020E94AE0DC601E8
:101CF0000E94300B80911402F80185838F2D61962C
:101D00000FB6F894DEBF0FBECDBFDF91CF911F910C
:101D10000F91FF90EF90DF90CF90BF90AF9008951C
:101D2000AB2829F0842F85238F3F09F027C180E05D
:101D3000F82FF170DF2E80FF3CC08091DD012091F3
:101D4000DE0136E0821315C04D875E878D859E8546
:101D50000E945F0D292F22952F702230F0F0243041
:101D600018F59F70F1F0F8019581907FD1F4D12C96
:101D70001EC090E0389FF001399FF00D1124E15210
:101D8000FE4F6181651306C06081641303C06281E8
:101D90006E110FC001968770D5CF9F7011F0882308
:101DA00031F3805E883018F3C8010E94300BFD2C9F
:101DB000A5CFEE2009F4A2CF809114028160809318
:101DC0001402F12C9BCF251306C0941304C0F80114
:101DD000EE2009F487C0C8010E94950B882319F1F1
:101DE000EE2009F180911402803270F020910F02F0
:101DF0003091100238872F831986BB86AA868C877C
:101E0000CE0107960E94300B86E0F801AFE0B2E009
:101E100001900D928A95E1F70E94BC0D0E94AE0DD3
:101E2000FF24F3946BCFC8010E94300BF9CF31111E
:101E300013C07A2DB98AA88A6E2D89890E949C0BBD
:101E40008FE092E00E94300B86E0F60111928A95B5
:101E5000E9F70E94AE0DB5CF25130FC094130DC046
:101E6000E1100BC0F8018583C8010E94300B86E0A9
:101E7000F60111928A95E9F741CFC8010E94950BAE
:101E8000882389F2EE2079F280911402803208F4DE
:101E9000BBCF20910F02309110023A8329831B821D
:101EA000BD82AC828E83CE010196ACCF6E177F07C8
:101EB00008F03EC0FE2CEE2009F4B5CF25132AC051
:101EC000941328C08091140280FD1BC0982F907F2E
:101ED000C1F0F8018583903F31F0982F907F905F9B
:101EE0008F70892B8583C8010E94300B86E0F80132
:101EF000AFE0B2E001900D928A95E1F70E94AE0D3D
:101F0000FDCE86E0F801AFE0B2E001900D928A9537
:101F1000E1F7F4CEC8010E94950B811175CF809135
:101F20001402816080931402C8010E94300BE6CE37
:101F30007A2DB98AA88A6E2D89890E949C0B86E029
:101F4000F60111928A95E9F7D9CFEE2009F46BCF0B
:101F5000C8010E94950BF82E882309F464CF86E00F
:101F6000F801AFE0B2E001900D928A95E1F78FE0C1
:101F700092E00E9493070E94BC0DC0CF81E08E25A5
:101F8000D7CE1F93CF93DF93CDB7DEB72C970FB685
:101F9000F894DEBF0FBECDBF4F83588769877A871D
:101FA0008B879C87CE0107960E941D0E882369F0BF
:101FB0008A859B85892B39F04F815885842F85230D
:101FC0008F3F09F071C016E05FC086E0FE013796D2
:101FD000DE01119601900D928A95E1F78A859B8525
:101FE000892B89F38F81988589238F3F61F3209115
:101FF000DE0130E0C9010196877099274091DD012B
:102000004817190671F40E94720B1092DE011092AB
:10201000DD0186E0EFE0F2E0DF011D928A95E9F74D
:10202000D2CF96E0929FD001939FB00D1124A15280
:10203000BE4FFE01319601900D929A95E1F7809383
:10204000DE010E948D0DBFCF819FC00111248152FE
:102050009E4F0E941D0E8823E9F0E091DD011E9F36
:10206000F0011124E152FE4F408151816281738160
:10207000848195810E94AB0B8091DD0190E00196F7
:10208000877099278093DD018091DD019091DE01B9
:102090008913DACF2C960FB6F894DEBF0FBECDBFF2
:1020A000DF91CF911F91089569857A858B859C85F5
:1020B0000E94AB0B88CF682F80910A0190910B0191
:1020C0000C94F31D682F80910A0190910B010C94E0
:1020D000F51D80910A0190910B010C94F71D8091E0
:1020E00015028595859585950895809115028770CF
:1020F000089590911502977081E009F480E00895A9
:1021000080912102089590912102892B80932102D0
:10211000089580959091210298239093210208952B
:1021200010922102089590912002892B8093200221
:10213000089580959091200298239093200208950D
:1021400010922002089510921F02089580911602A5
:10215000089508950C94A9109091930292FD08C0DF
:1021600090911602981721F0809316020C94AA10F1
:10217000089580911602882329F01092160280E0BB
:102180000C94AA100895E0910A01F0910B0180913E
:1021900021028083E0910A01F0910B0180819091EE
:1021A0002002892B8083E0910A01F0910B0180814C
:1021B00090911F02892B808390911602992381F0C0
:1021C000E0910A01F0910B018081892B808380913D
:1021D0000A0190910B010E94AB1D81110E94B91060
:1021E00080910A0190910B010C94251D08950C9487
:1021F000F6109091930292FD10C098E0899F900193
:102200001124622B609315020E942D0C80911502FF
:102210008595859585950C94F7100C942D0C10924E
:10222000150280E00C94F710909115028095892397
:1022300080931502282F277091F4282F082E000C68
:10224000330B9217130659F09091930292FD07C039
:102250008595859585950E944E0C0C940F110895D7
:10226000CF93C82F8091930282FB992790F99C17F6
:10227000E9F0C0FB82F980939302809192029091E1
:1022800093020E948E1182E00E94141180914302F9
:1022900080FF0CC01F92CF938FEA92E09F938F93A1
:1022A0000E9476030F900F900F900F90CF9108959A
:1022B0008091930282FB882780F991E089270C9412
:1022C000301181E00C94301180E00C9430116FEFEC
:1022D0007FEF90E080E00C94D72690E080E00E94B1
:1022E000B32621E0893E9E4F09F020E0822F089519
:1022F00082E090E00C94AB2683E090E00C94AB2657
:10230000CF9384E090E00E94AB26C82F82E290E059
:102310000E94AB26982F8C2FCF910895CF93C92F71
:10232000682F84E090E00E94B9266C2F82E290E052
:10233000CF910C94B926AB01BC018FE090E00C94D6
:10234000CB26AB01BC0183E190E00C94CB2660E08E
:1023500070E0CB010C94A11160E070E0CB010E9411
:102360009B110C94A71169EE7EEF90E080E00E9433
:10237000D72660E082E090E00E94B92660E083E02A
:1023800090E00E94B9261092D9011092DA011092C1
:10239000DB011092DC0160E084E090E00E94B9264D
:1023A00060E082E290E00E94B92660E085E090E083
:1023B0000E94B92660E086E090E00E94B9266FEFA7
:1023C00087E090E00E94B92640E050E0BA0188E042
:1023D00090E00E94CB2660E08DE090E00E94B9265C
:1023E00040E050E0BA0188E190E00E94CB2660E036
:1023F00087E190E00E94B92640E050E0BA018CE10C
:1024000090E00E94CB2670E060E080E290E00E94C5
:10241000D72640E050E0BA0188E190E00E94CB2648
:102420000C94AC110C94B311682F8EE090E00C94D6
:10243000B9260E949B1E60933F02709340028093D6
:1024400041029093420260933B0270933C0280935E
:102450003D0290933E020895CF92DF92EF92FF9259
:102460008091330290913402A0913502B0913602EE
:102470000196A11DB11D8093330290933402A09365
:102480003502B09336020E949B1E6B017C01809145
:10249000370290913802A0913902B0913A02A70117
:1024A0009601281B390B4A0B5B0BDA01C901893EE7
:1024B0009340A105B105E0F18091430280FF18C06F
:1024C000809136028F93809135028F9380913402F0
:1024D0008F93809133028F938EED92E09F938F9331
:1024E0000E9476030F900F900F900F900F900F9017
:1024F0008091330290913402A0913502B09136025E
:1025000080932F0290933002A0933102B093320255
:10251000C0923702D0923802E0923902F0923A0229
:102520001092330210923402109235021092360249
:10253000FF90EF90DF90CF90089585B7806885BFBA
:1025400085B7806885BF0895089508950C94A412F6
:1025500008950C94A8120E949D128BEB90E20E94A9
:102560000F1D0E94A5120C94A61281E008950C94F0
:10257000B512089508950E94B9120C94BA120E94DF
:10258000861E0E94D8050E94311A80914302816004
:10259000809343020C94A912CF93C82F80914302D9
:1025A00082FF1EC080FF1CC08BEC92E00E94DD0207
:1025B0008091430280FF14C01F92CF9386EC92E07B
:1025C0009F938F930E947603809143020F900F9008
:1025D0000F900F9080FF04C084EC92E00E94DD0217
:1025E0008C2FCF910C944D078F929F92AF92BF92F8
:1025F000CF92DF92EF92FF920F931F93CF93DF93CF
:10260000CDB7DEB72A970FB6F894DEBF0FBECDBFA9
:102610000E94ED0581110E94191253E2852E52E0AD
:10262000952E10E000E0A02E802F0E94D6156C01A0
:10263000F401E190F1904F01E816F90609F460C049
:102640008091430281FD0E94DF15C7018C259D25E5
:10265000B12CEE24E394F12C9C012E213F21232B5D
:1026600009F448C00E94B7128823A9F0BE82AF8245
:10267000CE20DF2081E0CD2809F480E088870E9409
:102680008F1E8160782F9A8789874E815F81688548
:102690008A850E945507000F111FF801ED5DFD4F5F
:1026A00080819181E826F926F182E0820E942C1235
:1026B0000E9474180E94741A0E94191D909122029F
:1026C0008917A9F10E94191D809322022A960FB63C
:1026D000F894DEBF0FBECDBFDF91CF911F910F9158
:1026E000FF90EF90DF90CF90BF90AF909F908F9032
:1026F0000C94CC12B394EE0CFF1CFAE0BF12ACCFDA
:102700000F5F1F4F0630110509F08DCF8FEF8983C2
:102710008A831B820E948F1E8160782F9D838C8309
:1027200049815A816B818D810E945507BFCF2A96BE
:102730000FB6F894DEBF0FBECDBFDF91CF911F91D2
:102740000F91FF90EF90DF90CF90BF90AF909F9050
:102750008F900895CF93DF930E94BA14EC018115F6
:1027600021E5920708F042C0811530E5930708F093
:102770009DC0883E910530F5803E910508F092C0DD
:10278000883A910588F4853A910508F084C0813033
:10279000910509F487C0009709F484C0049708F0F4
:1027A00081C0D0E0C0E07EC08F3B9105D0F7C85A11
:1027B000D0E0CC0FDD1FCE59DE4F0990D881C02D5F
:1027C000D46470C08115904250F4C11581E0D807DF
:1027D00008F068C0CD3ED10520F3D06563C0C115B7
:1027E00090E4D907F0F2DF70D06A5CC0811525E56E
:1027F000920700F5811534E5930708F08BC0811529
:1028000043E5940708F073C0C11582E5D80708F4C2
:1028100069C0CE018370992721E030E002C0220F09
:10282000331F8A95E2F7C695C69580E2C89FE001FE
:10283000112454C0C11599E5D907A8F4C11528E59C
:10284000D20708F06CC0C11536E5D30708F0A9CF50
:102850008C2F0E945115C82FD0E0DC2FCC27CC271D
:10286000DF71D0621FC0C1154AE5D40708F45CC00F
:10287000CE0190568115904208F093CF8D2F8F7125
:102880000E94511590E0982F882788279F719C01FE
:102890002C2BE901E6CFC55AD0E0C057DE4FC881E6
:1028A000D0E0D064CE01DF91CF910895E4E0969519
:1028B0008795EA95E1F783702C2F2695269523704E
:1028C00040E2249F90011124382B8C2F8370C1E0AB
:1028D000D0E002C0CC0FDD1F8A95E2F7C22BD32BCC
:1028E000DC68E0CFDC2FCC27C16FD06ADBCF8370F0
:1028F000992721E030E002C0220F331F8A95E2F7CA
:10290000C695C69590E2C99FE0011124C22BD32B36
:10291000DA68C8CFD82FCC27C46FD06AC3CFDC2FDA
:10292000CC27C06FD06ABECF8C2F8F700E945115FC
:1029300034E0D695C7953A95E1F7CF709C2FEC011E
:10294000D069B0CF972F70E02AE0929F600D711D83
:102950001124FB019CE3899FE00DF11D1124EE0F72
:10296000FF1FE455FF4F8591949108950E94A21492
:102970000C94AA1382389105B1F1B0F4813391051A
:1029800009F475C048F48932910509F469C08A32A6
:10299000910509F473C008958533910509F459C070
:1029A0008933910501F10895833E9105A9F138F429
:1029B000803E9105F9F0823E910549F10895863EE9
:1029C0009105A9F1873E9105C9F1843E910519F55C
:1029D0002091930221FF1FC08091920284FD14C0B8
:1029E00087EE90E00895209192022370A1F080EE8E
:1029F00090E008952091920220FD47C0309193020B
:102A000030FF09C024FF44C090E080E004C0209162
:102A1000920222FDF7CF08952091920222FD3BC041
:102A20003091930230FDE3CF24FFF5CFEDCF20911D
:102A3000920223FFF0CF24FDE7CFD2CF2091920264
:102A400023FD2CC03091930231FFEECF84EE90E055
:102A500008952091920225FFDECF89E290E008954B
:102A60002091920225FFD7CF85E390E00895209131
:102A7000920226FFD0CF8AE290E008952091920240
:102A800026FFC9CF81E390E0089589E390E008959F
:102A900083EE90E0089582EE90E0089586EE90E057
:102AA00008959091920292FF06C0282F2871283035
:102AB000F9F4877F846093FF06C0282F287128319E
:102AC000F1F4877E84612091930220FF06C0382FA5
:102AD00038713830D9F4877F816021FF06C0282FF4
:102AE00028712831D1F4877E816194FD877E089515
:102AF000282F24712430F9F68B7F8860DCCF282FB3
:102B00002471243101F78B7E8861DDCF382F31713C
:102B1000313019F78E7F8860E0CF282F2171213165
:102B200021F78E7E8861E1CF0C9467110E94ED053C
:102B30008FE39CE90197F1F700C000000E94ED05CA
:102B400080E00E94D61580FF04C00E9494150C946A
:102B5000DA1E08950C9496150E946D11811102C021
:102B60000E9412120E947811809343020E948011E9
:102B700090939302809392020E94AA150E947C1166
:102B8000682F70E090E080E00E94CB0B6091D5014F
:102B90007091D6018091D7019091D8010C94050CC9
:102BA00008950C94D01508950C94D315E82FF0E0F7
:102BB000EE0FFF1FE056FD4F808191810895CF9267
:102BC000DF92EF92FF920F931F93CF93DF938AE0F0
:102BD00093E00E94DD0280EAE82E82E0F82ED0E049
:102BE000C0E095E0C92E93E0D92E0CEF12E0DF9300
:102BF000CF93DF92CF920E94760382E093E00E940F
:102C0000DD02F701819191917F010E9438079F9326
:102C10008F931F930F930E9476038AEF92E00E9496
:102C2000DD0221968DB79EB708960FB6F8949EBF29
:102C30000FBE8DBFC630D105D1F6DF91CF911F9168
:102C40000F91FF90EF90DF90CF90089580EA8A95E2
:102C5000F1F7089500C008950C9426160895FF9288
:102C60000F931F93CF93DF93F82E092F162FD72F93
:102C7000C42F222349F081E0809346020E948F1ED8
:102C80009093450280934402809146028823A1F0EC
:102C900080914402909145020E94A71E059760F022
:102CA000EF2DF02FA12FBD2F90E080E0D0E08C170A
:102CB0009D0744F010924602DF91CF911F910F9132
:102CC000FF900895219131912D933D930196EFCF7F
:102CD0000E9436210E94BF120C9442210E9446217C
:102CE0000E94F4120C9464210E94181E0E941D215F
:102CF0000E94AB120E9468160E946E160E94BB12C0
:102D0000FBCF80914D0280FF12C06091110185E0E0
:102D1000689FB00111247595679575956795603822
:102D20007105A8F561157105A1F1862F089581FF40
:102D300009C06091110185E0689FB001112475956B
:102D40006795EDCF6091110182FD0AC080914C0220
:102D50008823D1F09091100160911101891728F01A
:102D600085E0689FB0011124DACF869FB00111245D
:102D700085E0869F9001879F300D1124692F70E0B8
:102D8000C9010E948426CBCF65E070E0CECF8FE7EB
:102D9000089581E0089580914D0280FF0CC06091FC
:102DA0000D0170E0759567957595679561157105CD
:102DB00049F1862F089581FF06C060910D0170E0F2
:102DC00075956795F3CF60910D0182FD0BC09091D1
:102DD0004B029923A1F060910C0180910D0196178F
:102DE00038F0682F70E06038710500F38FE70895C0
:102DF000899FC001112470E00E948426F4CF61E015
:102E000070E0D7CF81E008958D3E31F40E948116A5
:102E100081958093510208958E3E19F40E94811687
:102E2000F8CF8F3E31F40E94811681958093500235
:102E30000895803F19F40E948116F8CF893F29F444
:102E40000E94CB168093520208958A3F21F40E947B
:102E5000CB168195F7CF8B3F31F40E94CB1681952D
:102E60008093530208958C3F19F40E94CB16F8CF3B
:102E70009FE0980F983070F4815F990B21E030E06B
:102E800001C0220F8A95EAF780914F02822B80932E
:102E90004F0208958D3F31F480914D0281608093FF
:102EA0004D0208958E3F21F480914D028260F7CF4C
:102EB0008F3FB9F780914D028460F1CF409150026D
:102EC0008D3E59F48091510287FF0DC0109251023E
:102ED00041110BC010924C0208C08E3E81F48091CB
:102EE000510218169CF3442381F080915202909174
:102EF0005302892B09F05AC010924B0208958F3E5D
:102F000049F447FFF0CF1092500280915102811195
:102F1000ECCFE0CF803F19F41416ACF3E4CF9091DE
:102F20005202893F29F41916F4F610925202DBCFAF
:102F30008A3F19F497FFD7CFF8CF909153028B3F78
:102F400029F497FFD0CF10925302CDCF8C3F19F4C4
:102F50001916CCF3C8CF9FE0980F983090F4815F9A
:102F6000990B21E030E0B90102C0660F771F8A9506
:102F7000E2F7CB01809590914F02892380934F0215
:102F8000B2CF8D3F31F480914D028E7F80934D0200
:102F9000AACF8E3F21F480914D028D7FF7CF8F3FD6
:102FA00009F0A1CF80914D028B7FF0CF08958091E1
:102FB000430283FF7EC088E493E00E94DD0280919B
:102FC0004F021F928F9383E493E09F938F930E940D
:102FD000760381E493E00E94DD0280915002282F65
:102FE000082E000C330B3F938F938EE393E09F9357
:102FF0008F930E9476038CE393E00E94DD02809120
:103000005102282F082E000C330B3F938F9389E336
:1030100093E09F938F930E94760387E393E00E944F
:10302000DD0280915202282F082E000C330B3F93B3
:103030008F9384E393E09F938F930E94760382E3C0
:1030400093E00E94DD0280915302282F082E000C8D
:10305000330B3F938F938FE293E09F938F930E9464
:1030600076038CE293E00E94DD0280914C021F9275
:103070008F9389E293E09F938F930E94760387E278
:1030800093E00E94DD0280914D021F928F9384E2B3
:1030900093E09F938F930E94760381E293E00E94D6
:1030A000DD028DB79EB74C960FB6F8949EBF0FBE4B
:1030B0008DBF0E948F1E9C01909150028091510201
:1030C000982B21F030934A022093490290915202AA
:1030D00080915302982B21F03093480220934702AD
:1030E0008EE492E00C94711DEF92FF920F931F9368
:1030F000CF93DF9300D000D000D0CDB7DEB786E00D
:10310000EEE4F2E0DE01119601900D928A95E1F76E
:10311000E0905002F090510200915202109153023F
:1031200010925002109251021092520210925302C9
:103130008E2D8F2991F08091490290914A020E9430
:10314000A71EAC0190914C02992309F43FC08091D5
:1031500012018417150608F447C0802F812B91F0C7
:1031600080914702909148020E94A71EAC01909165
:103170004B02992309F477C080910E01841715063C
:1031800008F47FC08091500290915102892B909158
:103190005202892B90915302892B11F00E94D7176C
:1031A00086E0FE013196AEE4B2E001900D928A9580
:1031B000E1F726960FB6F894DEBF0FBECDBFDF91C4
:1031C000CF911F910F91FF90EF90089520911301DF
:1031D0008AE0289F900111242417350708F0BDCFFD
:1031E0009F5F90934C0202C09F3FD1F7EE2059F0B1
:1031F0000E9481169FEF1E140CF491E0899F802D90
:10320000112480935002FF2059F00E9481169FEFF5
:103210001F140CF491E0899F802D1124809351029A
:1032200030915002332309F498CF20915102222388
:1032300009F493CF45EB3403C0011124992359F0CD
:103240009093500245EB240390011124332339F06D
:103250003093510282CF81E080935002F3CF81E01E
:10326000809351027ACF20910F018AE0289F90012C
:1032700011242417350708F085CF9F5F90934B02E8
:1032800002C09F3FD1F7002359F00E94CB169FEF59
:1032900010160CF491E0899F802D11248093520226
:1032A000112359F00E94CB169FEF11160CF491E0F8
:1032B000899F802D11248093530230915202332331
:1032C00009F460CF20915302222309F45BCF45EB30
:1032D0003403C0011124992359F09093520245EB15
:1032E000240390011124332339F0309353024ACF41
:1032F00081E080935202F3CF81E08093530242CF6A
:1033000086E0EEE4F2E0DF011D928A95E9F7109283
:103310004C0210924B0210924D020895CF93DF930E
:1033200000D000D000D0CDB7DEB786E0EEE4F2E00A
:10333000DE01119601900D928A95E1F729813A817B
:103340004B815C816D817E8180E090E026960FB696
:10335000F894DEBF0FBECDBFDF91CF910895EF92FD
:10336000FF920F931F93CF93DF93CDB7DEB72C97C8
:103370000FB6F894DEBF0FBECDBF49835A836B836F
:103380007C838D839E83EF82F88609871A872B873B
:103390003C8746E050E0BE01695F7F4FCE01019659
:1033A0000E949E2621E0892B09F420E0822F2C9692
:1033B0000FB6F894DEBF0FBECDBFDF91CF911F9146
:1033C0000F91FF90EF90089508950895CF93DF93A4
:1033D000CDB7DEB72C970FB6F894DEBF0FBECDBFCA
:1033E0004F83588769877A878B879C8786E0FE01A1
:1033F0003796DE01119601900D928A95E1F72981A9
:103400003A814B815C816D817E8180E090E02C96D9
:103410000FB6F894DEBF0FBECDBFDF91CF910895F8
:10342000CF93DF93CDB7DEB72C970FB6F894DEBFFE
:103430000FBECDBF2C960FB6F894DEBF0FBECDBF2A
:10344000DF91CF910C94E61921E030E001C0220F0A
:103450004A95EAF7662311F0822B0895209582237E
:103460000895E0919301F091940109950E94E41967
:103470000C94E519EF92FF920F931F93E090540282
:10348000F090550200915602109157022091580277
:103490003091590240915A0250915B0260915C0256
:1034A00070915D0280915E0290915F020E94AF195F
:1034B000882321F08AE592E00E94711D10925C023F
:1034C00010925D0210925E0210925F0286E0EAE5C1
:1034D000F2E0A4E5B2E001900D928A95E1F71F9128
:1034E0000F91FF90EF900895CF93DF9300D000D01D
:1034F00000D0CDB7DEB7E0919501F09196014091F3
:103500005A0250915B0260915C0270915D02809161
:103510005E0290915F020995F42FE52FCB01209375
:103520005A0230935B02F0935C02E0935D02609379
:103530005E0290935F02A9016F2F7E2F0E94101AE6
:1035400020935A0230935B0240935C0250935D02D9
:1035500060935E0270935F020E948E19EAE5F2E0CA
:103560008181832B818326960FB6F894DEBF0FBE30
:10357000CDBFDF91CF910C943A1ACF93DF9300D057
:1035800000D000D0CDB7DEB786E0EAE5F2E0DE019C
:10359000119601900D928A95E1F729813A814B812C
:1035A0005C816D817E8180E090E026960FB6F89474
:1035B000DEBF0FBECDBFDF91CF910895CF93DF93D4
:1035C00000D000D000D0CDB7DEB749835A836B83DB
:1035D0007C838D839E8386E0FE013196AAE5B2E06E
:1035E00001900D928A95E1F726960FB6F894DEBF0A
:1035F0000FBECDBFDF91CF910895CF93DF93EC0144
:10360000FB018281882309F420C1C430FDE5DF0776
:10361000C8F5CB3F9CE5D90730F49E0122503C45CC
:103620002431310598F50E94801190939302809384
:103630009202C031FCE5DF0709F4E0C008F061C088
:10364000C8309CE5D90709F4CBC088F5C430FCE547
:10365000DF0709F4B3C0E8F4C2309CE5D90709F4E8
:10366000A7C0809192028260C330DC4509F4A3C0F8
:1036700080919202909193020E948E110E94720B8F
:1036800080E004C0C236EDE5DE0769F2DF91CF913C
:103690000895809192028061C630FCE5DF0709F44D
:1036A0008AC008F48FC080919202806284C08091A9
:1036B00092028D7FCC309CE5D90709F47CC070F470
:1036C000809192028C60CA30FCE5DF0709F473C078
:1036D00008F48AC0809192028E7F6DC08091920220
:1036E000877FCE309CE5D90709F465C080919202AE
:1036F0008B7FCF30DC4508F45EC0809192028F7ED4
:103700005AC0CD3FFCE5DF0709F474C040F5C43171
:103710009CE5D90709F48AC058F4C231FCE5DF07FB
:1037200009F474C008F46EC080919202837F43C094
:10373000CB3F9CE5D90709F449C008F04DC0C5311D
:10374000DC4509F095CF8091920282FB992790F990
:1037500021E0922790FB82F990FB83F92CC0C130C5
:103760008DE5D80709F458C088F4809193028360EE
:10377000CF3FECE5DE0769F1809193028D7FC115A3
:10378000DD4538F1809193028C7F23C0C3308DE5F5
:10379000D80709F458C008F452C0C236DD4509F014
:1037A00067CF90919202892F8F7E94FF806103C032
:1037B000809192028160809392025ACF809192020E
:1037C0008460F9CF809192028860F5CF8091930256
:1037D0008160809393024CCF809193028260F9CFF5
:1037E000809192028064E7CF0E94720B80919202D6
:1037F0008068E1CF809193028E7FEBCF809192021F
:103800008F7DD9CF809192028F7BD5CF0E94720B92
:10381000809192028F77CFCF80919302982F9095CD
:1038200091708E7F892B90FB81F9D3CF0E94720B10
:1038300090919202892F97FB87F98058BCCF81E045
:103840000E94141215CF80E0FBCF81E01FCFCF93F1
:10385000DF93EB0186319C4511F50E9480109A811F
:10386000992399F08A7A91E009F490E090936002AC
:10387000811109C089E20E945B100E94C31080E0A0
:10388000DF91CF91089585E3F6CF80916002811199
:1038900004C089E20E946210F0CF85E3FBCF81E093
:1038A000EFCF0F931F93CF93DF93C42FD22FFC0141
:1038B00082818823C9F0409363020E948F1E9093F7
:1038C00062028093610280E28C0F883008F050C061
:1038D000C77081E001C0880FCA95EAF7DF91CF91E8
:1038E0001F910F910C94C90810916302141335C0F5
:1038F00080916102909162020E94A71E883C91050E
:1039000060F5C0E2CD0F1D17B9F080E2810F88305D
:1039100040F4177081E001C0880F1A95EAF70E9401
:10392000D008C83048F481E09D2F977001C0880FFF
:103930009A95EAF70E94C908802F0E94C108C830F2
:10394000B8F4D77081E001C0880FDA95EAF7DF910B
:10395000CF911F910F910C94D00880E28C0F88308A
:1039600038F4C77081E001C0880FCA95EAF7EFCF3D
:10397000DF91CF911F910F9108950F939C01CB017F
:10398000243F4CE5340759F1A8F4293DFCE53F07F5
:1039900001F12A3D4CE53407D1F1283D3C4591F435
:1039A00006E221EE41EE68ED7CE50E94511C80E0CC
:1039B0000F910895263FFCE53F07E9F0B0F0273F5F
:1039C0003C45F9F0FC018281882339F110926302B1
:1039D000EFCF07E225EE45EE69ED7CE5E6CF06E2A6
:1039E00021EE40EE64EF7CE5E0CF07E225EE44EE09
:1039F00065EF7CE5DACF06E221EE42EE66EF7CE58C
:103A0000D4CF07E225EE46EE67EF7CE5CECF08E2A5
:103A100021E045EE6AED7CE5C8CF81E0C9CF909307
:103A2000AB018093AA010895909369028093680284
:103A30000895E0916802F0916902309721F00190B9
:103A4000F081E02D099480E00895EF92FF920F93AA
:103A50001F93CF93DF938C01E0916802F09169028C
:103A60003097C1F10280F381E02D099580914302E6
:103A700082FF30C080FF04C083E793E00E94DD0234
:103A8000D0E0C0E08DE6E82E83E0F82E809143027E
:103A900080FF0EC0F801EC0FFD1F80811F928F93F5
:103AA000FF92EF920E9476030F900F900F900F906D
:103AB0002196C830D10551F78091430280FF0AC09A
:103AC0008BE693E0DF91CF911F910F91FF90EF90E4
:103AD0000C94DD02DF91CF911F910F91FF90EF9039
:103AE0000895E0916802F0916902309739F022E080
:103AF000DC012C930480F581E02D09940895209138
:103B00006602309167022817390771F090936702B7
:103B100080936602E0916802F0916902309721F08B
:103B20000680F781E02D0994089520916402309178
:103B300065022817390771F090936502809364023B
:103B4000E0916802F0916902309721F00084F185DC
:103B5000E02D099408959C012E5F3F4FAC01485F12
:103B60005F4F80E02417350709F40895F90191911A
:103B70009F019923B9F38F5FF5CF662349F0FC01CC
:103B8000329608962191261729F0E817F907D1F700
:103B900080E0089581E008959C01FC0132969FEF3A
:103BA00080E04191461751F09F3F19F4411101C047
:103BB000982F8F5F8630A9F79F3F09F40895290F4A
:103BC000311D97FD3A95F90162830895FC01329603
:103BD00008962191261303C0DF0111971C92E81764
:103BE000F907B9F708950C94CC1D0C94E61D0296C4
:103BF00026E0FC0111922A95E9F7089508950C94A6
:103C0000FE1D811105C081E080936A020C94FF1DA6
:103C100082E0FACF83E080936A020C94FF1D0C943B
:103C2000011E81E080936A020C94FF1D0C94111E0A
:103C300008958091B402843031F10E949B06109265
:103C40006B0288E190E020E40FB6F894A895809389
:103C500060000FBE2093600083B7817F846083BFC4
:103C600083B7816083BF7894889583B78E7F83BF45
:103C70000FB6F894A89580916000886180936000E9
:103C8000109260000FBE089508950895CF930E948A
:103C9000441E0E94ED050E94451EC0E08C2F0E942C
:103CA000D615892B31F4CF5FC630C1F780E0CF91B4
:103CB000089581E0FCCF0E94720B0C941A071F92AA
:103CC0001FB61F9211248F939F93AF93BF93809140
:103CD0006B02811113C08091AC029091AD02A09152
:103CE000AE02B091AF024196A11DB11D8093AC020E
:103CF0009093AD02A093AE02B093AF02BF91AF918B
:103D00009F918F911F901FBE1F90189582E084BDD8
:103D100093E095BD9AEF97BD80936E0008952FB7FD
:103D2000F8948091AC029091AD02A091AE02B09156
:103D3000AF022FBF08952FB7F8946091AC02709135
:103D4000AD028091AE029091AF022FBF08959C0109
:103D50004FB7F8948091AC029091AD02A091AE0261
:103D6000B091AF024FBF821B930B089578941F92BE
:103D70001FB61F9211248F939F93AF93BF9380918F
:103D8000AC029091AD02A091AE02B091AF0201964B
:103D9000A11DB11D8093AC029093AD02A093AE0221
:103DA000B093AF02BF91AF919F918F911F901FBEB3
:103DB0001F90189587E797E7909301088093000874
:103DC00088E19AE00FB6F894A895809360000FBE42
:103DD00090936000FFCF80917A02089508959C012E
:103DE00082E08093E9009FEF8091E800915085FD8B
:103DF00006C085ED8A95F1F700009111F5CF80910D
:103E0000E80085FF0CC050E040E066E070E0C901CA
:103E10000E94D4218091E8008E778093E800089575
:103E2000CF93DF93EC0181E08093E9008FEF9091D5
:103E3000E800815095FD06C095ED9A95F1F70000D8
:103E40008111F5CF8091E80085FF14C050E040E07B
:103E500068E070E0CE010E94D4218091E8008E7766
:103E60008093E80088E0FE01A2E7B2E001900D92A5
:103E70008A95E1F7DF91CF91089580936E02709358
:103E8000700260936F028091B402843001F582E089
:103E90008093E9008FEF9091E800815095FD06C076
:103EA00095ED9A95F1F700008111F5CF8091E8002A
:103EB00085FF0DC050E040E063E070E08EE692E0E8
:103EC0000E94D4218091E8008E778093E8000895C5
:103ED000BC0184E00C943D1FBC0183E00C943D1FA9
:103EE00089E993E00E94DD028091B302811109C04B
:103EF0000E9464230E94C1238091E2008460809329
:103F0000E200089585E993E00E94DD021092B30279
:103F1000089581E993E00E94DD020C94111E8DE862
:103F200093E00E94DD026091B00281E0611101C066
:103F300080E00C940A1E89E893E00E94DD029091D3
:103F4000B40281E0943009F080E06091B0020C94FA
:103F50000F1E20916D022F5F822F62E30E94642664
:103F6000992319F020936D02089510926D028091AB
:103F700071028823F1F08091B4028430C1F49091F1
:103F8000E9009F702091EC00822F817020FD80E875
:103F9000892B93E09093E9009091EB0090FF04C08F
:103FA0009091EE0097FD08C08F708093E900109209
:103FB000710208951092F1009091E80095FDFACFFA
:103FC0009091E80090FFF0CF9091E8009E77909359
:103FD000E800EACF42E061EC81E00E94E02242E2A8
:103FE00061EC82E00E94E02242E261EC83E00E9408
:103FF000E0229091B40281E0943009F080E0609179
:10400000B0020C94011E8091B602833009F460C0A6
:1040100030F48130C9F1823009F49CC008958A30AF
:1040200009F488C08B3009F46EC0893009F04FC0A4
:104030008091B502813209F04AC08091B902909115
:10404000BA02029708F043C08091E800877F80930E
:10405000E8008091E80082FF36C09091F3008091E3
:10406000F200029731F48091F100813011F0863036
:1040700021F48091F10080937A028091E8008B779F
:104080008093E8000C9414238091B502813AF9F4EE
:104090008091E800877F8093E8008091B902909139
:1040A000BA02892B61F468E082E792E070E00E9436
:1040B00023228091E8008B778093E800089560E0E8
:1040C00090E080E0F3CF8091B4028111C2CF0895D7
:1040D0008091B502813AD9F78091B9029091BA02E4
:1040E000892BA9F78091E800877F8093E800809171
:1040F000E80080FFFCCF809120018093F100809147
:10410000E8008E77BDCF8091B502813201F78091B2
:10411000B9029091BA02892BD1F68091E800877F8D
:104120008093E8000E9414238091B70280932001BD
:104130000C94720B8091B502813249F68091E800AF
:10414000877F8093E8000E9414238091B8028093B7
:104150007B0208958091B502813A09F0B8CF809131
:10416000E800877F8093E8008091E80080FFFCCF23
:1041700080917B02C2CF9FB7F894109271029FBFCB
:104180009091B402943009F048C02091E9002F705A
:104190003091EC00932F917030FD90E8922B23E04A
:1041A0002093E9002091EB0020FF34C02091EE0025
:1041B00027FF30C020916C02222321F02091E800DB
:1041C00025FF28C010926C0226E03091E80035FFF0
:1041D00014C08093F1008091E80085FD27C0809194
:1041E000E80080FFFCCF8091E8008E778093E800A4
:1041F0009F709093E90080E008953091B4023430CC
:1042000049F43091EB0035FD05C0215041F481E0C7
:1042100080936C029F709093E9008FEF0895EFE90F
:10422000FFE03197F1F700C00000CFCF8FB7F894CF
:1042300021E0209371028FBFDBCF84B7877F84BFDB
:104240000FB6F894A8958091600088618093600013
:10425000109260000FBE80E890E00FB6F894809353
:104260006100909361000FBE0C94161E0E9464239F
:104270000E94C123E2EEF0E0808184608083789424
:104280000C94492684E191E00C94141D8091B402B1
:104290008530C9F485E893E00E94DD028091B40284
:1042A000853011F00C945B1E0E94191E8091B202A1
:1042B0008823A1F30E94461E882381F30E94BE2119
:1042C0000E94720BEBCF089508950C946721292F5B
:1042D00033272330310521F168F42130310509F409
:1042E00043C02230310509F444C090E080E030E062
:1042F00020E026C02132310551F122323105A9F7E3
:104300006330710590F7FB01EE0FFF1FE256FE4F81
:104310002081318165567E4FFB01808190E010C085
:1043200099278130910581F0009729F00297E9F6ED
:10433000EDE9F3E002C0E1ECF3E0849190E09F014D
:10434000FA01318320830895E3EBF3E0F6CF633085
:10435000710558F6660F771FFB01EC55FE4F208163
:10436000318189E090E0ECCF82E190E020E234E01E
:10437000E7CF8BE590E025EC33E0E2CF80E189BD2B
:1043800082E189BD09B400FEFDCF8091D8008F7D08
:104390008093D8008091E00082608093E00080915B
:1043A000E00081FDFCCF0895AF92BF92CF92DF92E3
:1043B000FF920F931F93CF93DF936C01EB018A0160
:1043C0000E943323F82E811123C00115110539F005
:1043D000F80180819181C81BD90BC80ED91EB12C60
:1043E000A12C2097A9F08091E80085FD22C0809142
:1043F000E8008E778093E80001151105A1F0F8011F
:1044000080819181A80EB91EB182A08285E0F82E2C
:104410008F2DDF91CF911F910F91FF90DF90CF9063
:10442000BF90AF9008950E9433238823D1F2F82ED5
:10443000EFCFF60181916F018093F1002197FFEF9B
:10444000AF1ABF0ACECFFC018091BB029091BC0293
:1044500086179707A0F06115710529F49091E8007F
:104460009E779093E80090E06115710551F49111E9
:1044700008C08091E80082FF34C080E00895BC014C
:10448000F2CF8091B4028823C1F18530C1F18091CF
:10449000E80083FD30C08091E80082FDEACF809182
:1044A000E80080FFE1CF8091F3002091F200382FE7
:1044B0006115710519F02830310558F091E0283068
:1044C000310509F090E02091E8002E772093E80074
:1044D000CBCF81918093F100615071092F5F3F4FE5
:1044E000E7CF8091B402882341F0853041F080917C
:1044F000E80083FFBECF81E0089582E0089583E065
:104500000895FC018091BB029091BC028617970729
:10451000A0F06115710529F48091E8008E778093F1
:10452000E80090E06115710551F4911108C0809187
:10453000E80082FF35C080E00895BC01F2CF809191
:10454000B4028823C9F18530C9F18091E80083FD68
:1045500031C08091E80082FDEACF8091E80080FFC1
:10456000E1CF8091F3002091F200382F61157105A1
:1045700019F02830310558F091E02830310509F064
:1045800090E08091E8008E778093E800CBCF849113
:104590008093F1003196615071092F5F3F4FE6CF54
:1045A0008091B402882341F0853041F08091E80089
:1045B00083FFBDCF81E0089582E0089583E00895F0
:1045C000982F973028F08F708093E90081E008954C
:1045D0009093E900242F762F50E0981731F07091D6
:1045E000EC002091ED005091F00021FD02C09F5F92
:1045F000E8CF3091EB003E7F3093EB003091ED003F
:104600003D7F3093ED003091EB0031603093EB0053
:104610007093EC002093ED005093F0002091EE0099
:1046200027FDE5CF80E008958091B50287FF13C094
:104630008091E80082FF06C08091E8008B7780932C
:10464000E80004C08091B4028111F2CF08958091F6
:10465000B4028823D9F38091E80080FFF8CF8091DD
:10466000E8008E77ECCF2091E4003091E50095E6EC
:10467000A9012091EC00822F817020FF06C080915B
:10468000E80080FF06C080E008952091E80022FD48
:104690001AC08091B402882389F0853089F0809116
:1046A000EB0085FD0FC02091E4003091E50042173A
:1046B0005307F9F29150E1F684E0089582E00895FD
:1046C00083E0089581E008950E94D2230E94DA23B6
:1046D000E0EEF0E0808181608083E8EDF0E08081B1
:1046E0008F77808319BCA7EDB0E08C918E7F8C937F
:1046F00080818F7E80831092B30208950F931F9361
:10470000CF93DF930E94D2230E94DA23C8EDD0E03A
:1047100088818F77888388818068888388818F7D6E
:10472000888319BC1092B4021092B0021092B202A7
:104730001092B10200EE10E0F80180818B7F80833F
:1047400088818160888342E060E080E00E94E0220E
:10475000E1EEF0E080818E7F8083E2EEF0E0808108
:1047600081608083808188608083F80180818E7F72
:104770008083888180618883DF91CF911F910F9121
:104780000895E8EDF0E080818F7E8083E7EDF0E032
:1047900080818160808384E082BF81E08093B30266
:1047A0000C947E23E8EDF0E080818E7F8083109270
:1047B000E20008951092DA001092E10008951F922D
:1047C0000F920FB60F9211242F933F934F935F9345
:1047D0006F937F938F939F93AF93BF93EF93FF93C9
:1047E0008091E10082FF0BC08091E20082FF07C050
:1047F0008091E1008B7F8093E1000E94A91F80914E
:10480000DA0080FF19C08091D80080FF15C0809128
:10481000DA008E7F8093DA008091D90080FF96C005
:1048200080E189BD82E189BD09B400FEFDCF81E050
:104830008093B4020E94701F8091E10080FF19C034
:104840008091E20080FF15C08091E2008E7F80930E
:10485000E2008091E20080618093E2008091D800C4
:1048600080628093D80019BC85E08093B4020E94D6
:104870008F1F8091E10084FF2BC08091E20084FFB4
:1048800027C080E189BD82E189BD89B5982F9170EB
:1048900080FFFBCF8091D8008F7D8093D8008091DE
:1048A000E1008F7E8093E1008091E2008F7E809313
:1048B000E2008091E20081608093E2008091B0028A
:1048C000882309F449C084E08093B4020E949B1FAE
:1048D0008091E10083FF29C08091E20083FF25C021
:1048E0008091E100877F8093E10082E08093B402B1
:1048F0001092B0028091E1008E7F8093E100809160
:10490000E2008E7F8093E2008091E20080618093DC
:10491000E20042E060E080E00E94E0228091F0004E
:1049200088608093F0000E94891FFF91EF91BF91F2
:10493000AF919F918F917F916F915F914F913F9137
:104940002F910F900FBE0F901F90189519BC1092C9
:10495000B4020E94821F70CF8091E30087FD93E034
:104960009093B402B3CF1F920F920FB60F921124FF
:104970002F933F934F935F936F937F938F939F9367
:10498000AF93BF93CF93DF93EF93FF93D091E90061
:10499000DF708091EC00C82FC17080FDC0E81092DC
:1049A000E9008091F000877F8093F00078940E9466
:1049B000F7241092E9008091F00088608093F00065
:1049C000CD2BCF70C093E900FF91EF91DF91CF9194
:1049D000BF91AF919F918F917F916F915F914F9117
:1049E0003F912F910F900FBE0F901F9018951F931E
:1049F000CF93DF93CDB7DEB7AA970FB6F894DEBF9B
:104A00000FBECDBF85EB92E02091F100FC01219318
:104A1000CF01F2E08D3B9F07B9F70E940320809100
:104A2000E80083FF1EC18091B5029091B6029A30D2
:104A300008F017C1E92FF0E0E75FF84D0C949826D5
:104A4000803899F0823809F00CC18091B9028F70DA
:104A5000873008F006C18093E9008091EB0085FB68
:104A6000882780F91092E90006C08091B1029091E8
:104A7000B202911182609091E800977F9093E800D4
:104A80008093F1001092F1008091E8008E77E5C0EC
:104A9000882309F4D3C0823009F0E3C08091B702C3
:104AA0008111D6C08091B9028F702FEF280F263068
:104AB00008F0D7C08093E9002091EB0020FFC8C028
:104AC000933031F48091EB0080628093EB00C0C0A2
:104AD0009091EB0090619093EB0021E030E001C0F9
:104AE000220F8A95EAF72093EA001092EA0080915B
:104AF000EB008860EACF8111B4C01091B7021F7734
:104B00008091E3008078812B8093E3008091E8001E
:104B1000877F8093E8000E9414238091E80080FF43
:104B2000FCCF8091E30080688093E30082E0111164
:104B300083E08093B40295C08058823008F091C021
:104B40008091B7029091B8028C3D23E09207A1F5C5
:104B500083E08A838AE289834FB7F894DE01139653
:104B600020E03EE051E2E32FF0E050935700E49163
:104B700020FF03C0E295EF703F5FEF708E2F90E053
:104B8000EA30C0F0C7968D939D932F5F243159F77B
:104B90004FBF8091E800877F8093E8006AE270E071
:104BA000CE0101960E9423228091E8008B778093AA
:104BB000E80057C0C096E7CF6091B9027091BA0281
:104BC000AE014F5F5F4F0E946521BC01892B09F444
:104BD00048C09091E800977F9093E80089819A817E
:104BE0000E948122E1CF8038E1F58091E800877F43
:104BF0008093E8008091B0028093F10045CF81114D
:104C000030C09091B702923060F58091E800877FC4
:104C10008093E8009093B0020E9414238091B00228
:104C2000882311F084E005C08091E30087FDFACF6E
:104C300081E08093B4020E94EA1F13C08091B70202
:104C4000813079F481E0933009F080E08093B20202
:104C50001092E9008091E800877F8093E8000E942D
:104C600014238091E80083FF0AC08091E800877FC9
:104C70008093E8008091EB0080628093EB00AA961D
:104C80000FB6F894DEBF0FBECDBFDF91CF911F915D
:104C90000895CF938091B4028823A1F0C091E900D8
:104CA000CF709091EC00892F817090FD80E8C82B27
:104CB0001092E9008091E80083FD0E94F724CF70F4
:104CC000C093E900CF910895991B79E004C0991F22
:104CD000961708F0961B881F7A95C9F78095089556
:104CE000AA1BBB1B51E107C0AA1FBB1FA617B70712
:104CF00010F0A61BB70B881F991F5A95A9F780952E
:104D00009095BC01CD01089597FB072E16F40094F1
:104D100007D077FD09D00E94702607FC05D03EF42D
:104D2000909581959F4F0895709561957F4F089557
:104D3000EE0FFF1F0590F491E02D0994FB01DC01BB
:104D400004C08D910190801921F441505040C8F762
:104D5000881B990B0895F999FECF92BD81BDF89AF1
:104D6000992780B50895A8E1B0E042E050E00C94A6
:104D7000DF26262FF999FECF92BD81BDF89A0197C3
:104D800000B4021639F01FBA20BD0FB6F894FA9A93
:104D9000F99A0FBE08950396272F0E94BA260E9403
:104DA000B926252F0E94BA26242F0C94BA260196E4
:104DB000272F0E94BA260C94B926DC01CB01FC01F6
:104DC000F999FECF06C0F2BDE1BDF89A319600B464
:104DD0000D9241505040B8F70895F894FFCF15094F
:104DE000150946094609DA09F60975097509110A0E
:104DF0009D0AAC0AAC0A810B810B8A0B8A0B8C0BC7
:104E00008A0B8A0B8A0B810B810B910B8A0B8A0B05
:104E1000910B202548253126482531267B259C25C8
:064E20003126F325FF25F9
:104E26009400660091009000C80017022808641ECE
:104E3600140A321EEB1E101FEF1E6C1F681FEE1E9B
:104E46000131F7F6F5F40000000000333236353450
:104E5600C6E200E900EA00B500B600B700CD00835F
:104E660001CC008A01920194012102230224022529
:104E760002260227022A02B300B4006F00700081E6
:104E86008283E200E900EA00B500B600B700CD0073
:104E96008301CC008A01920194012102230224029B
:104EA6002502260227022A02B300B4006F00700012
:104EB6008182830504400495049004407B22CF043C
:0A4EC60054043204D703F00309047A
:00000001FF
