:100000000C94DE010C9425020C9425020C9425021C
:100010000C9425020C9425020C9425020C942502C4
:100020000C9425020C9425020C942D200C94012193
:100030000C946C1B0C9425020C9425020C94250244
:100040000C9425020C9425020C9425020C94250294
:100050000C9425020C94C31B0C9425020C942502CD
:100060000C9425020C9425020C9425020C94250274
:100070000C9425020C9425020C9425020C94250264
:100080000C9425020C9425020C9425020C94250254
:100090000C9425020C9425020C9425020C94250244
:1000A0000C9425020C9425020C94250229002200B0
:1000B000270008000C0004000B002800190037007E
:1000C0001E0023002A001500120016000D00E1009A
:1000D000050038001F0024002B0017001300070044
:1000E0000E001D001100E5002000250014001C007A
:1000F000280009000F001B001000E000210026006E
:100100001A00180039000A00330006003600E30028
:100110003500E2002C002C00000000000000000070
:1001200000000000010001000100010001000100C9
:1001300001000100010001000100010001000100B7
:1001400001000100010001000100010001000100A7
:100150000100010001000100010001000100010097
:100160000100010001000100010001000100010087
:100170000100010001000100010001000100010077
:100180000100010001000100010001000100010067
:10019000000000000000000000000000010001005D
:1001A0000100010001000100010001000100010047
:1001B0000100010001000100010001000100010037
:1001C0000100010001000100010001000100010027
:1001D0000100010001000100010001000100010017
:1001E0000100010001000100010001000100010007
:1001F00001000100010001000100010001000100F7
:1002000001000100010001000000000000000000EA
:1002100000000000010001000100010001000100D8
:1002200001000100010001000100010001000100C6
:1002300001000100010001000100010001000100B6
:1002400001000100010001000100010001000100A6
:100250000100010001000100010001000100010096
:100260000100010001000100010001000100010086
:100270000100010001000100010001000100010076
:1002800000000000000000000000000014036D00EA
:100290006900630072006F006F006F006F006E00F6
:1002A00000000C034E007900610072007500000030
:1002B0000403090409023B00020100A0FA0904003A
:1002C0000001030101000921110100012240000782
:1002D00005810308000A0904010001030000000968
:1002E0002111010001227B000705820320000A1270
:1002F00001000200000008594E56520100010200A0
:100300000105010902A10185020901A100050919E0
:1003100001290815002501950875018102050109CB
:100320003009311581257F95027508810609381538
:1003300081257F950175088106050C0A3802158113
:10034000257F950175088106C0C005010980A101BE
:10035000850319012AB700150126B700950175100C
:100360008100C0050C0901A101850419012AA00220
:10037000150126A002950175108100C0050109062E
:10038000A101050719E029E7150025019508750168
:1003900081029501750881010507190029FF1500E3
:1003A00026FF0095067508810005081901290595A5
:1003B0000575019102950175039101C011241FBEBD
:1003C000CFEFDAE0DEBFCDBF04B603FE27C08091D9
:1003D000AC029091AD02A091AE02B091AF02873015
:1003E000904BA740B04BD1F41092AC021092AD02EA
:1003F0001092AE021092AF0214BE84B7877F84BF02
:100400000FB6F894A8958091600088618093600091
:10041000109260000FBEE0E0F8E3099511E0A0E063
:10042000B1E0ECEAF6E402C005900D92AC39B107F8
:10043000D9F722E0ACE9B1E001C01D92AC3AB207B5
:10044000E1F70E9444140C9430230C940000F894BB
:10045000E82FE295EF70F0E031A1282F2F7081E0B6
:1004600090E001C0880F2A95EAF78095382331A3E0
:1004700092A1892382A378940895CF93DF93009764
:1004800049F08130910509F460C090E080E0DF918F
:10049000CF910895AFE6B2E0C5E7D2E0880F991F8B
:1004A000880F991FAC0140505F4FFA018081918104
:1004B0009C0164E0359527956A95E1F7F90120A143
:1004C00030E08F70992702C0359527958A95E2F71D
:1004D00021703327398328838D919C911197281798
:1004E0003907C1F5FA0182819381FC0124E0F59579
:1004F000E7952A95E1F720A130E08F70992702C097
:10050000359527958A95E2F7217033273B832A8317
:1005100012968D919C9113971296E1E0F0E02817C6
:10052000390709F4B2CF2D933C9380916D029091DD
:100530006E026AE070E00E94B322CB01EF2B09F05B
:10054000A6CF919581959109A2CFA9E7B2E0CDE719
:10055000D2E0A4CFF0E0E0E0E6CFCF93DF93C0E0BD
:10056000D1E088810E9427028A810E9427028C8123
:100570000E9427028E810E94270287E90E9427029B
:1005800085E792E0FC0111821082CDE7D2E019826A
:100590001882AFE6B2E011961C921E9229E732E073
:1005A000F90111821082FC01138212821B821A82CD
:1005B00013961C921E921297F9011382128284E6FE
:1005C00090E090936E0280936D02DF91CF91089539
:1005D000FF920F931F93CF93DF93CDB7DEB72C9786
:1005E0000FB6F894DEBF0FBECDBF4F83152F5887CF
:1005F00069877A878B879C8790E080E00E943D0224
:10060000909374028093730281E090E00E943D0217
:10061000082F80936B0290936C02F090730269B183
:100620006095661F6627661F40E0812F0E94721743
:100630008887F9860A8786E0FE013796DE011196E3
:1006400001900D928A95E1F729813A814B815C8175
:100650006D817E8180E090E02C960FB6F894DEBF2D
:100660000FBECDBFDF91CF911F910F91FF900895E5
:1006700080916D0290916E02089590936E02809326
:100680006D020895F894E82FE295EF70F0E031A143
:10069000282F2F7081E090E001C0880F2A95EAF79B
:1006A000382B31A392A18095892382A37894089551
:1006B000F894E82FE295EF70F0E031A1282F2F7029
:1006C00081E090E001C0880F2A95EAF7982F909575
:1006D000932391A392A1892B82A378940895CF921A
:1006E000DF92EF92FF920F931F93CF93DF937C01E2
:1006F000C62E062F10E0F801E55DFE4FD0808FEF8B
:10070000D816F1F18D2D0E9442030E94FA13E1E206
:10071000F1E030E020E0D0E0C0E041E050E0619165
:100720006F3FB9F1A62FA295AF70B0E090968C9173
:1007300090E06F7002C0959587956A95E2F780FD0D
:1007400028C0CA01022E02C0880F991F0A94E2F73E
:10075000C82BD92B2F5F3F4F2530310501F78D2D49
:100760000E94580361E0209709F460E08C2D0E94FC
:10077000FC13000F111F0E0D1F1DF801D183C08344
:10078000DF91CF911F910F91FF90EF90DF90CF906D
:10079000089590E080E0DCCF8F929F92BF92CF923D
:1007A000DF92EF92FF920F931F93CF93DF93B82EB8
:1007B000092F162FE62EF12CC7018F5D9E4F4C019D
:1007C000EC0188818F3F09F451C00E9442030E94CE
:1007D000FA13D5E0ED0EF11C61E070E002C0660F87
:1007E000771FEA94E2F76B01C094D094ABE2B1E0DA
:1007F000EB2DF02F81E3E82E81E0F82E00E04D9103
:10080000808191814F3F69F1242F22952F7030E034
:10081000E90128A130E04F7002C0359527954A952F
:10082000E2F720FD1EC0862B972B9183808301E089
:100830003296EA16FB0619F7F40180818F3F11F01A
:100840000E945803602F812FDF91CF911F910F914C
:10085000FF90EF90DF90CF90BF909F908F900C947F
:10086000FC138C219D2191838083E2CFDF91CF9176
:100870001F910F91FF90EF90DF90CF90BF909F90CE
:100880008F900895EF92FF920F931F93CF93DF9372
:10089000CBE2D1E08E01F80181918F018F3F11F001
:1008A0000E945803F1E001331F07A9F701E211E0AC
:1008B0007801F70181917F018F3F11F00E94580369
:1008C000F6E2EF16F1E0FF06A1F7F80181918F0142
:1008D0008F3F11F00E945803F1E006321F07A9F77D
:1008E00089918F3F11F00E94580381E0C133D807EE
:1008F000B9F7DF91CF911F910F91FF90EF9008957D
:100900000E9442048CE0EFE8F2E0DF01982F1D9294
:100910009A95E9F7E3E8F2E0DF011D928A95E9F79D
:1009200086E00E94FE130C943B05FF920F931F93E9
:10093000CF93DF93CDB7DEB72C970FB6F894DEBF19
:100940000FBECDBF8E010F5F1F4F8CE0F8011192DB
:100950008A95E9F7F12C6F2DC8010E946F03F3947B
:10096000F6E0FF12F8CFF12C6F2DC8010E94CC03E6
:10097000F39485E0F812F8CF4CE050E0B80183E83A
:1009800092E00E94E122FF24F394009709F4F12CF5
:10099000892B41F08CE0F801A3E8B2E001900D92C0
:1009A0008A95E1F72F2D46E06FE872E083E892E048
:1009B0000E94FF130E9441058F2D2C960FB6F894CC
:1009C000DEBF0FBECDBFDF91CF911F910F91FF9082
:1009D000089581E0089581E008950C94EB04089552
:1009E0000C94EF041F93CF93DF9300D000D00F92AD
:1009F000CDB7DEB749835A836B8330919E018981DD
:100A00009A8131111DC06623B9F02223A9F00E94FA
:100A10008B0B182F682F89819A810E94370B69816F
:100A20007A81812F0F900F900F900F900F90DF9190
:100A3000CF911F910C94B6120E94630B182FEFCF29
:100A40000E948B0B69817A81EDCFFC01262F4081BA
:100A500051816281738184810C94F20481E0089554
:100A6000CF93DF93EC0160E00E942505BE01DF918A
:100A7000CF910C94F0040E94C2130E94BA050C940A
:100A8000E7130C94EA1380E00E94BB050C94C21794
:100A9000089508950E94E0090E9449052FEF84E31C
:100AA0009CE0215080409040E1F700C000000C9491
:100AB000E71B0F931F93CF93DF938C0161E00E949C
:100AC0002505EC01B8010E94ED048823A9F1B801C5
:100AD000CE010E940B1A882379F1B801CE010E9441
:100AE0004B18882349F1B801CE010E94751988235B
:100AF00019F1F8018281882361F0CB35FDE5DF072C
:100B000021F170F4C115ECE5DE07A1F0CF3DDC4525
:100B1000C9F0C801DF91CF911F910F910C94E904A6
:100B2000CC358DE5D807A1F0CD35DD4591F70E9494
:100B3000B30FEFCF0E944A0580E0DF91CF911F9164
:100B40000F9108950E946D10F7CF0E94BC0FE1CF66
:100B50000E94BF0FDECF0C9448050E94671A0E94C6
:100B6000BB050C94AB0508950C94B30581E0089582
:100B70000C94B6050895CF93C82F0E94B4058C2F0E
:100B8000CF910C94B805CF93DF93CDB7DEB72B97F9
:100B90000FB6F894DEBF0FBECDBF4F83588769876D
:100BA0007A878B8761110E940E0F1E821D8285E05D
:100BB000FE013796DE01119601900D928A95E1F7BC
:100BC0008C819D81892B89F449815A816B817C813B
:100BD0008D819E810E942F0E2B960FB6F894DEBF5A
:100BE0000FBECDBFDF91CF91089589819A8189236E
:100BF0008F3F51F3CE0101960E942E058111E4CF63
:100C0000EBCFFC01808191810C94CD0B0F931F934E
:100C1000CF93DF9300D000D000D0CDB7DEB7082F40
:100C2000162F0E940B1829834B835C836D837E8370
:100C3000002399F0312B4981532F6B817C818D8169
:100C40009E8126960FB6F894DEBF0FBECDBFDF9112
:100C5000CF911F910F910C942C1810953123EBCF4D
:100C6000CF93C82F882309F48BC08238C1F40E9427
:100C7000671A81FD85C089E30E94C90E0E94310F69
:100C80002FEF81EE94E0215080409040E1F700C0CA
:100C9000000089E30E94D00ECF910C94310F83386D
:100CA000A1F40E94671A80FD6BC083E50E94C90E03
:100CB0000E94310F2FEF81EE94E021508040904050
:100CC000E1F700C0000083E5E5CF8438A1F40E947D
:100CD000671A82FD55C087E40E94C90E0E94310F39
:100CE0002FEF81EE94E0215080409040E1F700C06A
:100CF000000087E4CFCF8CEF8C0F813A90F46C2FFB
:100D000080910A0190910B010E94CA1A882329F050
:100D10008C2F0E94D00E0E94310F8C2F0E94C90E82
:100D2000BBCF80E28C0F883048F4C77081E001C0EF
:100D3000880FCA95EAF70E94F10EAECFEBE5EC0FF3
:100D4000E33040F4F0E0E15AFE4F808190E0CF9133
:100D50000C948C1AE8E5EC0FE73150F4F0E0EE0F5C
:100D6000FF1FEF5CFE4F80819181CF910C94A21AFE
:100D7000CD3E30F08C2F0E94D414CF910C94A71547
:100D8000CF910895882309F452C0823871F40E94EB
:100D9000671A81FF4CC089E30E94C90E0E94310F7F
:100DA00089E30E94D00E0C94310F833859F40E94CD
:100DB000671A80FF3CC083E50E94C90E0E94310F74
:100DC00083E5EFCF843859F40E94671A82FF2FC061
:100DD00087E40E94C90E0E94310F87E4E2CF9CEFA6
:100DE000980F913AF0F290E2980F983050F4877093
:100DF00091E001C0990F8A95EAF7892F0E94F70EBA
:100E0000D2CF9BE5980F933020F490E080E00C94D3
:100E10008C1A98E5980F973120F490E080E00C94BC
:100E2000A21A8D3E20F00E942E150C94A71508954D
:100E30001F93CF93DF93182FEB010E94300620976A
:100E400031F4812FDF91CF911F910C94C2068FE96D
:100E50009FE00197F1F700C000002197F0CF70E00C
:100E600060E0893311F460E570E00C941807882382
:100E700021F00E94F10E0C94310F0895882321F087
:100E80000E94F70E0C94310F0895BF92CF92DF921B
:100E9000EF92FF920F931F93CF93DF936C01D62FA6
:100EA000C72FFC011281F580F2949FE0F9220E9485
:100EB000E70EE82E8823B9F0E12E1123A1F08C2F44
:100EC000807F803421F080E28D0F8830D0F08091D7
:100ED000820282FD16C082E00E94820F0E94E70E0D
:100EE00091E0E82EE926BC2EB2948FE0B822FBE018
:100EF000FB1508F468C0EB2DF0E0EE5CFC4D0C94A3
:100F0000DB22E12CF0CF0C2F0F70C07F11F0029587
:100F1000007F112399F0002359F080E28D0F883073
:100F200010F0D11107C0802F0E94F10E0E94310FE6
:100F30008D2F41C0802F0E94010FF8CF8D2F0E946E
:100F4000C206002309F43FC080E28D0F883010F004
:100F5000D11104C0802F0E94F70E03C0802F0E9481
:100F6000070F0E94310F2FC00C2F0F70C07FC032AF
:100F700011F00295007FDD2381F0D13009F46AC0C1
:100F8000112309F474C0FF2009F46AC0F6018581B9
:100F900080FFCECF8F70858363C08091820282FFF5
:100FA00039C0112359F0002329F0802F0E94F10E3F
:100FB0000E94310F80E00E94300605C080E00E9450
:100FC000C2060111C7CF2B2D2850330B2430310519
:100FD00020F40E94671A0E94BB05EE2009F48DC11F
:100FE0000E94E30E80FD89C1F60112820E94DD0E8F
:100FF0000E949B0AC6010E949E090E94DD0EDF919D
:10100000CF911F910F91FF90EF90DF90CF90BF9005
:101010000C94BC0A112389F0F11006C00E94140F31
:10102000802B0E943707CFCF21E0F212F7CF0E942A
:10103000140F802B0E941A0FC6CFF11006C00E9419
:10104000270F802F0E943E07BECF31E0F31609F430
:10105000BACFF5CF112331F085E08F1508F4B3CF67
:10106000802FDFCF94E09F1508F4ADCFEACFFF20AB
:1010700041F3D93349F4FFEF27EE33E0F15020403C
:101080003040E1F700C000008D2F0E94C2069BCFC8
:101090008C2F86958695837069F0813009F093CF07
:1010A0008D2F9C2F9370111102C090E080E00E9460
:1010B000A21A89CF8D2F9C2F9370111102C090E03E
:1010C00080E00E948C1A7FCF8D2F112391F00E9417
:1010D000D414ED2FE15FFF0BE830F10568F461E017
:1010E00070E001C0660FEA95EAF7812F0E940606BC
:1010F0006ACF0E942E15EDCF0E94A71564CF8C2FCA
:10110000837009F041C011115ECF4D2F4295469575
:101110004770440F440F0D2F0F7010E030E020E0B7
:10112000042E04C0000F111F221F331F0A94D2F790
:1011300060E070E0CB01D4FF0FC06FE070E080E0B2
:1011400090E004C0660F771F881F991F4A95D2F759
:101150006095709580959095C695C695C370602BE7
:10116000712B822B932BC23049F058F4C13019F007
:101170000E944D0A28CF0E943B0A25CF0E945F0A99
:1011800022CF0E94390A1FCF8695112311F08C2F90
:101190008170882309F417CF4D2F429546954770EB
:1011A000440F440F0D2F0F7010E030E020E0042EAC
:1011B00004C0000F111F221F331F0A94D2F760E0F2
:1011C00070E0CB01D4FF0FC06FE070E080E090E0F2
:1011D00004C0660F771F881F991F4A95D2F7609544
:1011E000709580959095C695C695C370602B712BB0
:1011F000822B932BC23049F058F4C13019F00E9471
:10120000120BE1CE0E94000BDECE0E94240BDBCE3F
:101210000E94750AD8CECF70112329F08C2F0E941E
:101220009B0A8D2FFECE8D2F0E943E078C2F0E9491
:10123000BC0AC9CED23F51F160F4D03FB9F0D13FE2
:1012400081F0112309F449C0F11072CE8C2F8F71F7
:1012500021C0D33F11F1D43FA1F78091820282FFD8
:1012600026C08C2F8F71112311F314C0112349F064
:10127000F4E0FF1508F4A7CE8C2F8F710E94DF0ACF
:10128000A2CE25E02F1508F49ECEF6CF8C2F8F71BD
:101290001111CDCF0E949B0A96CE112329F08C2FDD
:1012A0008F710E94860A8FCE0E94810A8CCE1123F4
:1012B00049F0CF718C2F0E949B0A63E08C2F0E9413
:1012C000670F81CE81E00E94820F31E03F1508F068
:1012D0007ACE82E00E94820F76CEFF2059F0D93379
:1012E00009F0D2CE8FEF97EEE3E081509040E040DE
:1012F000E1F7C8CE8C2F8F719ACFDF91CF911F91DC
:101300000F91FF90EF90DF90CF90BF9008950F93D3
:101310001F93CF93DF93EC01688179818A810E94CA
:10132000D70B8C010E94360B0E94380AB801CE01FF
:10133000DF91CF911F910F910C944507CF93DF93CD
:10134000EC018B819C81892B29F0888199818923EB
:101350008F3F59F4DF91CF910895CE010E94870904
:10136000CE01DF91CF910C943005CE010E9459053A
:101370008111F3CF0E94E70E882361F38A818823CD
:1013800049F38091820282FDE5CF82E0DF91CF9127
:101390000C94820F90E080E00E948C1A90E080E034
:1013A0000E94A21A0E940E0F0E94110F0E94310F7C
:1013B0000E94CE160C94A7150E94D70E0C94CA0951
:1013C0000E94FE0E0C94DC09E92FE295EF70E250CA
:1013D000EE3070F4F0E0E25CFC4D0C94DB22803FD8
:1013E00019F020F4883E20F481E00895843FE1F371
:1013F00080E00895883EC0F3813FD1F7F5CF93FB9D
:10140000882780F90895FC01808191810E94CD0B8D
:101410000C94E409CF93DF9300D000D00F92CDB7A6
:10142000DEB70F900F900F900F900F90DF91CF913C
:101430000895CF93DF9300D000D000D0CDB7DEB7B2
:1014400026960FB6F894DEBF0FBECDBFDF91CF91C9
:10145000089508950C94290A0E942A0A6093CB01EA
:101460007093CC018093CD019093CE010C94CA0966
:1014700008950C942C0A0F931F930091CB011091A7
:10148000CC012091CD013091CE01602B712B822BAC
:10149000932B1F910F910C942C0A0F931F93009183
:1014A000CB011091CC012091CD013091CE01602370
:1014B0007123822393231F910F910C942C0A0F9375
:1014C0001F930091CB011091CC012091CD0130915F
:1014D000CE0160277127822793271F910F910C94CB
:1014E0002C0A0C94290A0C94710A0E94730A6093C6
:1014F000C7017093C8018093C9019093CA010C94ED
:10150000CA0960E070E0CB010C94750A0F931F9339
:1015100041E050E060E070E08A019B0104C0000FF0
:10152000111F221F331F8A95D2F7C901B8011F91DD
:101530000F910C94750A0F931F9341E050E060E007
:1015400070E004C0440F551F661F771F8A95D2F7BD
:101550008091C7019091C801A091C901B091CA01C1
:101560008A019B01082B192B2A2B3B2BC901B8019F
:101570001F910F910C94750A0F931F9341E050E057
:1015800060E070E004C0440F551F661F771F8A9506
:10159000D2F7CB01BA016095709580959095009136
:1015A000C7011091C8012091C9013091CA0160237F
:1015B0007123822393231F910F910C94750A0F932B
:1015C0001F9341E050E060E070E004C0440F551FFD
:1015D000661F771F8A95D2F78091C7019091C80145
:1015E000A091C901B091CA018A019B01082719275E
:1015F0002A273B27C901B8011F910F910C94750A46
:101600000F931F930091C7011091C8012091C90148
:101610003091CA01602B712B822B932B1F910F915C
:101620000C94750A0F931F930091C7011091C80184
:101630002091C9013091CA01602371238223932331
:101640001F910F910C94750A0F931F930091C7017E
:101650001091C8012091C9013091CA0160277127FA
:10166000822793271F910F910C94750A08952AE001
:10167000929F800D1124982F977041E001C0440F74
:101680009A95EAF786958695869595E0899FF0016B
:101690001124E156FE4F90E080E070E05191DF01AF
:1016A00011979B01082E02C0369527950A94E2F700
:1016B000217021952527242325272C9301968530F9
:1016C000910561F708952AE0929F800D1124982FCB
:1016D000977086958695869525E0829FF001112466
:1016E000E156FE4F50E040E080E0219130E0092ECD
:1016F00002C0369527950A94E2F721703327042E0D
:1017000001C0220F0A94EAF7822B4F5F5F4F4530EA
:10171000510559F70895BF92CF92DF92EF92FF9251
:101720000F931F93CF93DF938C01C090C701D0908C
:10173000C801E090C901F090CA018091CB0190915D
:10174000CC01A091CD01B091CE01C82AD92AEA2AB4
:10175000FB2ACFE1D0E0BC2ED701C6010C2E04C07D
:10176000B695A795979587950A94D2F780FD0EC0F8
:10177000219788F7B12C8B2DDF91CF911F910F917D
:10178000FF90EF90DF90CF90BF900895B8018C2F1D
:101790000E94CA12019761F3EECFCF93DF93EC0161
:1017A0000E948B0BBE01DF91CF910C94CA121F9344
:1017B000CF93DF93EB0190919E01992331F0CB0100
:1017C000DF91CF911F910C94CD0B882379F0CB0141
:1017D0000E948B0B182F682FCE010E94370BBE0181
:1017E000812FDF91CF911F910C94CA12CB010E94DF
:1017F000630B182FF4CF1F93CF93DF93C091CF01CA
:1018000016E08091D0018C1304C0DF91CF911F911D
:101810000895D0E01C9FF0011D9FF00D1124EF52A0
:10182000FE4F4081518162817381848195810E9444
:10183000190A2196C770E5CF40910102509102022A
:10184000609103027091040280910502909106025A
:101850000C94190AFF920F931F93CF93DF938091FB
:101860000602807FD1F4809103028823B1F0809139
:10187000CF011091D0016091010270910202A091FC
:101880000402B0910502062F0723C0910801D091F0
:10189000090196E0F92E181306C0DF91CF911F9130
:1018A0000F91FF90089590E0109711F00F3F19F4F9
:1018B00001968770F0CFF89E9001F99E300D1124AB
:1018C000F901EF52FE4F41814713F2CF4081461399
:1018D000EFCF42814111ECCF438154814A1B5B0B16
:1018E0004C175D0728F7809106028F708061809306
:1018F0000602F901EA52FE4F80818F708061808379
:1019000081E092E00E949E09DF91CF911F910F919B
:10191000FF900C94FB0BAF92BF92CF92DF92EF92AD
:10192000FF920F931F93CF93DF93CDB7DEB76197ED
:101930000FB6F894DEBF0FBECDBF8C0185E0F80175
:10194000DE011D9601900D928A95E1F7F801E28083
:1019500081E0C82E82E0D82E6091040270910502C9
:101960006115710509F45FC1909101022091020295
:10197000892F82238F3F09F456C140815181A38072
:10198000B480F0900302F501E61BF70BBF01E09174
:101990000801F0910901FF2009F4F6C080910602C8
:1019A000382F307F6E177F0708F0AFC0311179C034
:1019B000FE2C251323C0941321C0E1101FC08F708B
:1019C0008061809306020E941C0CC6010E949E0941
:1019D00080910602F80185838F2D61960FB6F894E9
:1019E000DEBF0FBECDBFDF91CF911F910F91FF9052
:1019F000EF90DF90CF90BF90AF900895AB2829F083
:101A0000842F85238F3F09F027C180E0F82FF170E4
:101A1000DF2E80FF3CC08091CF012091D00136E0C5
:101A2000821315C04D875E878D859E850E94CD0BE4
:101A3000292F22952F702230F0F0243018F59F7056
:101A4000F1F0F8019581907FD1F4D12C1EC090E087
:101A5000389FF001399FF00D1124EF52FE4F618144
:101A6000651306C06081641303C062816E110FC0EC
:101A700001968770D5CF9F7011F0882331F3805E77
:101A8000883018F3C8010E949E09FD2CA5CFEE20D6
:101A900009F4A2CF80910602816080930602F12CA6
:101AA0009BCF251306C0941304C0F801EE2009F45F
:101AB00087C0C8010E94030A882319F1EE2009F1AA
:101AC00080910602803270F0209101023091020272
:101AD00038872F831986BB86AA868C87CE01079606
:101AE0000E949E0986E0F801A1E0B2E001900D920B
:101AF0008A95E1F70E942A0C0E941C0CFF24F394A3
:101B00006BCFC8010E949E09F9CF311113C07A2D05
:101B1000B98AA88A6E2D89890E940A0A81E092E01A
:101B20000E949E0986E0F60111928A95E9F70E94CB
:101B30001C0CB5CF25130FC094130DC0E1100BC0C2
:101B4000F8018583C8010E949E0986E0F601119282
:101B50008A95E9F741CFC8010E94030A882389F2D8
:101B6000EE2079F280910602803208F4BBCF2091FA
:101B70000102309102023A8329831B82BD82AC822A
:101B80008E83CE010196ACCF6E177F0708F03EC062
:101B9000FE2CEE2009F4B5CF25132AC0941328C0DB
:101BA0008091060280FD1BC0982F907FC1F0F80144
:101BB0008583903F31F0982F907F905F8F70892BB5
:101BC0008583C8010E949E0986E0F801A1E0B2E089
:101BD00001900D928A95E1F70E941C0CFDCE86E0E3
:101BE000F801A1E0B2E001900D928A95E1F7F4CE00
:101BF000C8010E94030A811175CF8091060281609D
:101C000080930602C8010E949E09E6CE7A2DB98A09
:101C1000A88A6E2D89890E940A0A86E0F60111922F
:101C20008A95E9F7D9CFEE2009F46BCFC8010E945D
:101C3000030AF82E882309F464CF86E0F801A1E0B6
:101C4000B2E001900D928A95E1F781E092E00E9466
:101C500001060E942A0CC0CF81E08E25D7CE1F93AB
:101C6000CF93DF93CDB7DEB72C970FB6F894DEBFD6
:101C70000FBECDBF4F83588769877A878B879C8734
:101C8000CE0107960E948B0C882369F08A859B857C
:101C9000892B39F04F815885842F85238F3F09F098
:101CA00071C016E05FC086E0FE013796DE01119636
:101CB00001900D928A95E1F78A859B85892B89F39E
:101CC0008F81988589238F3F61F32091D00130E087
:101CD000C9010196877099274091CF0148171906CD
:101CE00071F40E94E0091092D0011092CF0186E0B9
:101CF000E1E0F2E0DF011D928A95E9F7D2CF96E0AC
:101D0000929FD001939FB00D1124AF52BE4FFE01A0
:101D1000319601900D929A95E1F78093D0010E943F
:101D2000FB0BBFCF819FC00111248F529E4F0E9499
:101D30008B0C8823E9F0E091CF011E9FF001112464
:101D4000EF52FE4F40815181628173818481958180
:101D50000E94190A8091CF0190E00196877099271F
:101D60008093CF018091CF019091D0018913DACF78
:101D70002C960FB6F894DEBF0FBECDBFDF91CF918A
:101D80001F91089569857A858B859C850E94190A23
:101D900088CF682F80910A0190910B010C94001B51
:101DA000682F80910A0190910B010C94021B809185
:101DB0000A0190910B010C94041B809107028595F8
:101DC0008595859508958091070287700895909173
:101DD0000702977081E009F480E008958091130272
:101DE000089590911302892B809313020895809592
:101DF0009091130298239093130208951092130266
:101E0000089590911202892B809312020895809573
:101E10009091120298239093120208951092120248
:101E2000089510921102089580910802089508956E
:101E30000C94170F9091820292FD08C090910802B5
:101E4000981721F0809308020C94180F0895809140
:101E50000802882329F01092080280E00C94180FE1
:101E60000895E0910A01F0910B01809113028083A3
:101E7000E0910A01F0910B01808190911202892B6F
:101E80008083E0910A01F0910B0180819091110211
:101E9000892B808390910802992381F0E0910A01B7
:101EA000F0910B018081892B808380910A019091B0
:101EB0000B010E94B81A81110E94270F80910A011C
:101EC00090910B010C94731A08950C94640F9091E7
:101ED000820292FD10C098E0899F90011124622B2C
:101EE000609307020E949B0A809107028595859561
:101EF00085950C94650F0C949B0A1092070280E064
:101F00000C94650F909107028095892380930702B6
:101F1000282F277091F4282F082E000C330B9217CE
:101F2000130659F09091820292FD07C08595859520
:101F300085950E94BC0A0C947D0F089590918202B1
:101F400092FB222720F9281769F080FB92F99093E1
:101F5000820280918102909182020E94E90F82E0C8
:101F60000C94820F08958091820282FB882780F969
:101F700091E089270C949E0F81E00C949E0F80E0E5
:101F80000C949E0F6FEF7FEF90E080E00C941A238B
:101F900090E080E00E94F62221E0893E9E4F09F009
:101FA00020E0822F089582E090E00C94EE2283E0FE
:101FB00090E00C94EE22CF9384E090E00E94EE2219
:101FC000C82F82E290E00E94EE22982F8C2FCF91B2
:101FD0000895CF93C92F682F84E090E00E94FC22DF
:101FE0006C2F82E290E0CF910C94FC22AB01BC01FB
:101FF0008FE090E00C940E23AB01BC0183E190E0F4
:102000000C940E2360E070E0CB010C94FC0F60E0B8
:1020100070E0CB010E94F60F0C94021069EE7EEF87
:1020200090E080E00E941A2360E082E090E00E944D
:10203000FC2260E083E090E00E94FC221092CB0141
:102040001092CC011092CD011092CE0160E084E09C
:1020500090E00E94FC2260E082E290E00E94FC227C
:1020600060E085E090E00E94FC2260E086E090E085
:102070000E94FC226FEF87E090E00E94FC2240E08B
:1020800050E0BA0188E090E00E940E2360E08DE00D
:1020900090E00E94FC2240E050E0BA0188E190E02C
:1020A0000E940E2360E087E190E00E94FC2240E065
:1020B00050E0BA018CE190E00E940E2370E060E0F5
:1020C00080E290E00E941A2340E050E0BA0188E1EB
:1020D00090E00E940E230C9407100C940E10682FB1
:1020E0008EE090E00C94FC220E94A81B60933102C9
:1020F00070933202809333029093340260932D02E6
:1021000070932E0280932F02909330020895CF9205
:10211000DF92EF92FF920F931F938091250290918F
:102120002602A0912702B09128020196A11DB11D9F
:102130008093250290932602A0932702B093280251
:102140000E94A81B0091290210912A0220912B02C3
:1021500030912C026B017C01C01AD10AE20AF30A09
:1021600097018601093E13402105310500F10091D8
:102170002502109126022091270230912802009317
:1021800021021093220220932302309324026093B1
:10219000290270932A0280932B0290932C021092B2
:1021A00025021092260210922702109228021F91F7
:1021B0000F91FF90EF90DF90CF90089585B78068E2
:1021C00085BF85B7806885BF0895089508950C94EC
:1021D000E51008950C94E9100E94DE1088EA93E15E
:1021E0000E945D1A0E94E6100C94E71081E00895A9
:1021F0000C94F610089508950E94FA100C94FB10A8
:102200000E94931B0E9480040E947F170C94EA1086
:102210008F929F92AF92BF92CF92DF92EF92FF92F6
:102220000F931F93CF93DF93CDB7DEB72A970FB6E7
:10223000F894DEBF0FBECDBF0E94950481110E94AD
:10224000741055E1852E52E0952E10E000E0A02E8E
:10225000802F0E94EC136C01F401E190F1904F018A
:10226000E816F90609F460C08091350281FD0E94EC
:10227000F513C7018C259D25B12CEE24E394F12C98
:102280009C012E213F21232B09F448C00E94F81005
:102290008823A9F0BE82AF82CE20DF2081E0CD2846
:1022A00009F480E088870E949C1B8160782F9A87C0
:1022B00089874E815F8168858A850E94C305000FEA
:1022C000111FF801EB5EFD4F80819181E826F92610
:1022D000F182E0820E9487100E94C2150E94C217FC
:1022E0000E94671A909114028917A9F10E94671A37
:1022F000809314022A960FB6F894DEBF0FBECDBFAE
:10230000DF91CF911F910F91FF90EF90DF90CF90D1
:10231000BF90AF909F908F900C94BB05B394EE0C40
:10232000FF1CFAE0BF12ACCF0F5F1F4F0630110544
:1023300009F08DCF8FEF89838A831B820E949C1BBB
:102340008160782F9D838C8349815A816B818D8137
:102350000E94C305BFCF2A960FB6F894DEBF0FBE0A
:10236000CDBFDF91CF911F910F91FF90EF90DF9044
:10237000CF90BF90AF909F908F900895CF93DF93B1
:102380000E94CE12EC01811521E5920708F042C0AF
:10239000811530E5930708F09DC0883E910530F522
:1023A000803E910508F092C0883A910588F4853AFC
:1023B000910508F084C08130910509F487C0009729
:1023C00009F484C0049708F081C0D0E0C0E07EC06A
:1023D0008F3B9105D0F7C85AD0E0CC0FDD1FCE5906
:1023E000DE4F0990D881C02DD46470C08115904211
:1023F00050F4C11581E0D80708F068C0CD3ED10582
:1024000020F3D06563C0C11590E4D907F0F2DF7006
:10241000D06A5CC0811525E5920700F5811534E589
:10242000930708F08BC0811543E5940708F073C04B
:10243000C11582E5D80708F469C0CE0183709927D9
:1024400021E030E002C0220F331F8A95E2F7C695E3
:10245000C69580E2C89FE001112454C0C11599E5DA
:10246000D907A8F4C11528E5D20708F06CC0C1153A
:1024700036E5D30708F0A9CF8C2F0E946513C82F2B
:10248000D0E0DC2FCC27CC27DF71D0621FC0C11574
:102490004AE5D40708F45CC0CE01905681159042FD
:1024A00008F093CF8D2F8F710E94651390E0982FC5
:1024B000882788279F719C012C2BE901E6CFC55AFC
:1024C000D0E0C057DE4FC881D0E0D064CE01DF91AC
:1024D000CF910895E4E096958795EA95E1F78370AA
:1024E0002C2F26952695237040E2249F90011124DD
:1024F000382B8C2F8370C1E0D0E002C0CC0FDD1FE1
:102500008A95E2F7C22BD32BDC68E0CFDC2FCC27F7
:10251000C16FD06ADBCF8370992721E030E002C021
:10252000220F331F8A95E2F7C695C69590E2C99FA0
:10253000E0011124C22BD32BDA68C8CFD82FCC27C7
:10254000C46FD06AC3CFDC2FCC27C06FD06ABECF98
:102550008C2F8F700E94651334E0D695C7953A95FD
:10256000E1F7CF709C2FEC01D069B0CF972F70E0CE
:102570002AE0929F600D711D1124FB019CE3899F4D
:10258000E00DF11D1124EE0FFF1FE455FF4F859163
:10259000949108950E94B6120C94BE118238910550
:1025A000B1F1B0F48133910509F475C048F4893272
:1025B000910509F469C08A32910509F473C0089540
:1025C0008533910509F459C08933910501F10895C6
:1025D000833E9105A9F138F4803E9105F9F0823EE1
:1025E000910549F10895863E9105A9F1873E91052F
:1025F000C9F1843E910519F52091820221FF1FC087
:102600008091810284FD14C087EE90E008952091AE
:1026100081022370A1F080EE90E008952091810264
:1026200020FD47C03091820230FF09C024FF44C022
:1026300090E080E004C02091810222FDF7CF089550
:102640002091810222FD3BC03091820230FDE3CF18
:1026500024FFF5CFEDCF2091810223FFF0CF24FDA1
:10266000E7CFD2CF2091810223FD2CC0309182028E
:1026700031FFEECF84EE90E008952091810225FF96
:10268000DECF89E290E008952091810225FFD7CF27
:1026900085E390E008952091810226FFD0CF8AE261
:1026A00090E008952091810226FFC9CF81E390E058
:1026B000089589E390E0089583EE90E0089582EE16
:1026C00090E0089586EE90E008959091810292FF47
:1026D00006C0282F28712830F9F4877F846093FF83
:1026E00006C0282F28712831F1F4877E846120915B
:1026F000820220FF06C0382F38713830D9F4877F26
:10270000816021FF06C0282F28712831D1F4877EEF
:10271000816194FD877E0895282F24712430F9F675
:102720008B7F8860DCCF282F2471243101F78B7ECA
:102730008861DDCF382F3171313019F78E7F886095
:10274000E0CF282F2171213121F78E7E8861E1CFE2
:1027500080E008950C94C20F0E9495048FE39CE9D9
:102760000197F1F700C000000E94950480E00E94EC
:10277000EC1380FF04C00E94AA130C94E71B089579
:102780000C94AC130E94C80F811102C00E946D10FE
:102790000E94D30F809335020E94DB0F9093820238
:1027A000809381020E94C0130E94D70F682F70E0AF
:1027B00090E080E00E94390A6091C7017091C801E1
:1027C0008091C9019091CA010C94730A08950C94E8
:1027D000E61308950C94E913E82FF0E0EE0FFF1FC5
:1027E000E157FD4F808191810895089580EA8A958F
:1027F000F1F7089500C008950C94F6130895FF9220
:102800000F931F93CF93DF93F82E092F162FD72FF7
:10281000C42F222349F081E0809338020E949C1B40
:102820009093370280933602809138028823A1F07A
:1028300080913602909137020E94B41B059760F098
:10284000EF2DF02FA12FBD2F90E080E0D0E08C176E
:102850009D0744F010923802DF91CF911F910F91A4
:10286000FF900895219131912D933D930196EFCFE3
:102870000E94871D0E9400110C94931D0E94971DB9
:102880000E9408110C94B11D0E94251B0E946E1D10
:102890000E94EC100E9438140E943E140E94FC100A
:1028A000FBCF80913F0280FF12C06091110185E053
:1028B000689FB00111247595679575956795603887
:1028C0007105A8F561157105A1F1862F089581FFA5
:1028D00009C06091110185E0689FB00111247595D0
:1028E0006795EDCF6091110182FD0AC080913E0293
:1028F0008823D1F09091100160911101891728F07F
:1029000085E0689FB0011124DACF869FB0011124C1
:1029100085E0869F9001879F300D1124692F70E01C
:10292000C9010E94C722CBCF65E070E0CECF8FE710
:10293000089581E0089580913F0280FF0CC060916E
:102940000D0170E075956795759567956115710531
:1029500049F1862F089581FF06C060910D0170E056
:1029600075956795F3CF60910D0182FD0BC0909135
:102970003D029923A1F060910C0180910D01961701
:1029800038F0682F70E06038710500F38FE7089524
:10299000899FC001112470E00E94C722F4CF61E03A
:1029A00070E0D7CF81E008958D3E31F40E9451143C
:1029B00081958093430208958E3E19F40E9451142C
:1029C000F8CF8F3E31F40E945114819580934202DA
:1029D0000895803F19F40E945114F8CF893F29F4DB
:1029E0000E949B148093440208958A3F21F40E9420
:1029F0009B148195F7CF8B3F31F40E949B148195F6
:102A00008093450208958C3F19F40E949B14F8CFDF
:102A10009FE0980F983070F4815F990B21E030E0CF
:102A200001C0220F8A95EAF780914102822B8093A0
:102A3000410208958D3F31F480913F02816080937F
:102A40003F0208958E3F21F480913F028260F7CFCC
:102A50008F3FB9F780913F028460F1CF40914202ED
:102A60008D3E59F48091430287FF0DC010924302BE
:102A700041110BC010923E0208C08E3E81F480913D
:102A8000430218169CF3442381F0809144029091F4
:102A90004502892B09F05AC010923D0208958F3EDD
:102AA00049F447FFF0CF1092420280914302811116
:102AB000ECCFE0CF803F19F41416ACF3E4CF909143
:102AC0004402893F29F41916F4F610924402DBCF30
:102AD0008A3F19F497FFD7CFF8CF909145028B3FEB
:102AE00029F497FFD0CF10924502CDCF8C3F19F437
:102AF0001916CCF3C8CF9FE0980F983090F4815FFF
:102B0000990B21E030E0B90102C0660F771F8A956A
:102B1000E2F7CB0180959091410289238093410295
:102B2000B2CF8D3F31F480913F028E7F80933F0280
:102B3000AACF8E3F21F480913F028D7FF7CF8F3F48
:102B400009F0A1CF80913F028B7FF0CF08950E94C2
:102B50009C1B9C019091420280914302982B21F092
:102B600030933C0220933B029091440280914502B5
:102B7000982B21F030933A022093390280E492E0BE
:102B80000C947E1AEF92FF920F931F93CF93DF93D3
:102B900000D000D000D0CDB7DEB786E0E0E4F2E0B0
:102BA000DE01119601900D928A95E1F7E0904202C4
:102BB000F0904302009144021091450210924202AB
:102BC0001092430210924402109245028E2D8F29DA
:102BD00091F080913B0290913C020E94B41BAC01A9
:102BE00090913E02992309F43FC08091120184170D
:102BF000150608F447C0802F812B91F0809139028F
:102C000090913A020E94B41BAC0190913D0299232D
:102C100009F477C080910E018417150608F47FC06F
:102C20008091420290914302892B90914402892B1A
:102C300090914502892B11F00E94A71586E0FE01B4
:102C40003196A0E4B2E001900D928A95E1F72696C4
:102C50000FB6F894DEBF0FBECDBFDF91CF911F91AD
:102C60000F91FF90EF900895209113018AE0289F23
:102C7000900111242417350708F0BDCF9F5F909372
:102C80003E0202C09F3FD1F7EE2059F00E9451143E
:102C90009FEF1E140CF491E0899F802D11248093E6
:102CA0004202FF2059F00E9451149FEF1F140CF4B0
:102CB00091E0899F802D112480934302309142023C
:102CC000332309F498CF20914302222309F493CFB0
:102CD00045EB3403C0011124992359F0909342022B
:102CE00045EB240390011124332339F03093430240
:102CF00082CF81E080934202F3CF81E08093430250
:102D00007ACF20910F018AE0289F90011124241787
:102D1000350708F085CF9F5F90933D0202C09F3F2B
:102D2000D1F7002359F00E949B149FEF10160CF46A
:102D300091E0899F802D112480934402112359F042
:102D40000E949B149FEF11160CF491E0899F802D37
:102D500011248093450230914402332309F460CF5B
:102D600020914502222309F45BCF45EB3403C001D7
:102D70001124992359F09093440245EB24039001C8
:102D80001124332339F0309345024ACF81E08093F8
:102D90004402F3CF81E08093450242CF86E0E0E435
:102DA000F2E0DF011D928A95E9F710923E0210923F
:102DB0003D0210923F020895CF93DF9300D000D0E0
:102DC00000D0CDB7DEB786E0E0E4F2E0DE01119698
:102DD00001900D928A95E1F729813A814B815C81BE
:102DE0006D817E8180E090E026960FB6F894DEBF7C
:102DF0000FBECDBFDF91CF910895EF92FF920F9359
:102E00001F93CF93DF93CDB7DEB72C970FB6F8940F
:102E1000DEBF0FBECDBF49835A836B837C838D8316
:102E20009E83EF82F88609871A872B873C8746E0C6
:102E300050E0BE01695F7F4FCE0101960E94E12202
:102E400021E0892B09F420E0822F2C960FB6F8940C
:102E5000DEBF0FBECDBFDF91CF911F910F91FF90CD
:102E6000EF90089508950895CF93DF93CDB7DEB71F
:102E70002C970FB6F894DEBF0FBECDBF4F83588797
:102E800069877A878B879C8786E0FE013796DE010B
:102E9000119601900D928A95E1F729813A814B8133
:102EA0005C816D817E8180E090E02C960FB6F89475
:102EB000DEBF0FBECDBFDF91CF910895CF93DF93DB
:102EC000CDB7DEB72C970FB6F894DEBF0FBECDBFDF
:102ED0002C960FB6F894DEBF0FBECDBFDF91CF9119
:102EE0000C94341721E030E001C0220F4A95EAF734
:102EF000662311F0822B0895209582230895E09196
:102F00009301F091940109950E9432170C943317A4
:102F1000EF92FF920F931F93E0904602F0904702CA
:102F2000009148021091490220914A0230914B02CF
:102F300040914C0250914D0260914E0270914F02AF
:102F400080915002909151020E94FD16882321F039
:102F50008CE492E00E947E1A10924E0210924F0270
:102F6000109250021092510286E0ECE4F2E0A6E4E6
:102F7000B2E001900D928A95E1F71F910F91FF90B9
:102F8000EF900895CF93DF9300D000D000D0CDB75D
:102F9000DEB7E0919501F091960140914C0250917D
:102FA0004D0260914E0270914F02809150029091BB
:102FB00051020995F42FE52FCB0120934C02309359
:102FC0004D02F0934E02E0934F02609350029093B3
:102FD0005102A9016F2F7E2F0E945E1720934C0291
:102FE00030934D0240934E0250934F026093500233
:102FF000709351020E94DC16ECE4F2E08181832B95
:10300000818326960FB6F894DEBF0FBECDBFDF9149
:10301000CF910C948817CF93DF9300D000D000D0CD
:10302000CDB7DEB786E0ECE4F2E0DE011196019068
:103030000D928A95E1F729813A814B815C816D81FE
:103040007E8180E090E026960FB6F894DEBF0FBE3A
:10305000CDBFDF91CF910895CF93DF9300D000D003
:1030600000D0CDB7DEB749835A836B837C838D83D1
:103070009E8386E0FE013196ACE4B2E001900D92B1
:103080008A95E1F726960FB6F894DEBF0FBECDBF46
:10309000DF91CF910895CF93DF93EC01FB01828103
:1030A000882309F420C1C430FDE5DF07C8F5CB3F14
:1030B0009CE5D90730F49E0122503C45243131056E
:1030C00098F50E94DB0F9093820280938102C031B9
:1030D000FCE5DF0709F4E0C008F061C0C8309CE5FA
:1030E000D90709F4CBC088F5C430FCE5DF0709F443
:1030F000B3C0E8F4C2309CE5D90709F4A7C08091B9
:1031000081028260C330DC4509F4A3C08091810252
:10311000909182020E94E90F0E94E00980E004C0C1
:10312000C236EDE5DE0769F2DF91CF910895809117
:1031300081028061C630FCE5DF0709F48AC008F42B
:103140008FC080918102806284C0809181028D7FD6
:10315000CC309CE5D90709F47CC070F480918102E1
:103160008C60CA30FCE5DF0709F473C008F48AC03C
:10317000809181028E7F6DC080918102877FCE30E9
:103180009CE5D90709F465C0809181028B7FCF301F
:10319000DC4508F45EC0809181028F7E5AC0CD3F2D
:1031A000FCE5DF0709F474C040F5C4319CE5D9079C
:1031B00009F48AC058F4C231FCE5DF0709F474C091
:1031C00008F46EC080918102837F43C0CB3F9CE5B1
:1031D000D90709F449C008F04DC0C531DC4509F0F4
:1031E00095CF8091810282FB992790F921E0922767
:1031F00090FB82F990FB83F92CC0C1308DE5D80794
:1032000009F458C088F4809182028360CF3FECE5D6
:10321000DE0769F1809182028D7FC115DD4538F1AD
:10322000809182028C7F23C0C3308DE5D80709F4DA
:1032300058C008F452C0C236DD4509F067CF9091FE
:103240008102892F8F7E94FF806103C0809181026B
:103250008160809381025ACF809181028460F9CF8E
:10326000809181028860F5CF809182028160809395
:1032700082024CCF809182028260F9CF80918102DC
:103280008064E7CF0E94E009809181028068E1CFED
:10329000809182028E7FEBCF809181028F7DD9CF8A
:1032A000809181028F7BD5CF0E94E00980918102BD
:1032B0008F77CFCF80918202982F909591708E7FDB
:1032C000892B90FB81F9D3CF0E94E0099091810274
:1032D000892F97FB87F98058BCCF81E00E946F103F
:1032E00015CF80E0FBCF81E01FCFCF93DF93EB01C1
:1032F00086319C4511F50E94EE0E9A81992399F032
:103300008A7A91E009F490E090935202811109C009
:1033100089E20E94C90E0E94310F80E0DF91CF91B7
:10332000089585E3F6CF80915202811104C089E2AD
:103330000E94D00EF0CF85E3FBCF81E0EFCF0F935B
:103340001F93CF93DF93C42FD22FFC018281882358
:10335000C9F0409355020E949C1B909354028093A5
:10336000530280E28C0F883008F050C0C77081E0B3
:1033700001C0880FCA95EAF7DF91CF911F910F9195
:103380000C94370710915502141335C080915302E5
:10339000909154020E94B41B883C910560F5C0E2F4
:1033A000CD0F1D17B9F080E2810F883040F41770FF
:1033B00081E001C0880F1A95EAF70E943E07C830E5
:1033C00048F481E09D2F977001C0880F9A95EAF725
:1033D0000E943707802F0E942F07C830B8F4D7709B
:1033E00081E001C0880FDA95EAF7DF91CF911F9154
:1033F0000F910C943E0780E28C0F883038F4C77030
:1034000081E001C0880FCA95EAF7EFCFDF91CF9135
:103410001F910F9108950F939C01CB01243F4CE520
:10342000340759F1A8F4293DFCE53F0701F12A3D95
:103430004CE53407D1F1283D3C4591F406E221EEFC
:1034400041EE68ED7CE50E949F1980E00F910895A0
:10345000263FFCE53F07E9F0B0F0273F3C45F9F097
:10346000FC018281882339F110925502EFCF07E2E7
:1034700025EE45EE69ED7CE5E6CF06E221EE40EE75
:1034800064EF7CE5E0CF07E225EE44EE65EF7CE5F6
:10349000DACF06E221EE42EE66EF7CE5D4CF07E21A
:1034A00025EE46EE67EF7CE5CECF08E221E045EE63
:1034B0006AED7CE5C8CF81E0C9CF90939D018093F0
:1034C0009C01089590935B0280935A020895E091C5
:1034D0005A02F0915B02309721F00190F081E02DCB
:1034E000099480E00895E0915A02F0915B023097D0
:1034F00021F00280F381E02D09940895E0915A02B1
:10350000F0915B02309739F022E0DC012C930480CB
:10351000F581E02D099408952091580230915902C7
:103520002817390771F09093590280935802E0915F
:103530005A02F0915B02309721F00680F781E02D6E
:10354000099408952091560230915702281739079F
:1035500071F09093570280935602E0915A02F091D5
:103560005B02309721F00084F185E02D09940895E5
:103570009C012E5F3F4FAC01485F5F4F80E02417F6
:10358000350709F40895F90191919F019923B9F341
:103590008F5FF5CF662349F0FC01329608962191A2
:1035A000261729F0E817F907D1F780E0089581E0A0
:1035B00008959C01FC0132969FEF80E041914617EF
:1035C00051F09F3F19F4411101C0982F8F5F863051
:1035D000A9F79F3F09F40895290F311D97FD3A95EA
:1035E000F90162830895FC01329608962191261311
:1035F00003C0DF0111971C92E817F907B9F7089586
:103600000C94D91A0C94F31A029626E0FC0111923C
:103610002A95E9F7089508950C940B1B811105C0B4
:1036200081E080935C020C940C1B82E0FACF83E073
:1036300080935C020C940C1B0C940E1B81E0809315
:103640005C020C940C1B0C941E1B08958091A30229
:10365000843031F10E94430510925D0288E190E0D0
:1036600020E40FB6F894A895809360000FBE2093D5
:10367000600083B7817F846083BF83B7816083BF2D
:103680007894889583B78E7F83BF0FB6F894A895FA
:1036900080916000886180936000109260000FBE8E
:1036A000089508950895CF930E94511B0E94950498
:1036B0000E94521BC0E08C2F0E94EC13892B31F426
:1036C000CF5FC630C1F780E0CF91089581E0FCCF95
:1036D0000E94E0090C94AD051F921FB61F921124A1
:1036E0008F939F93AF93BF9380915D02811113C01D
:1036F00080919B0290919C02A0919D02B0919E02AC
:103700004196A11DB11D80939B0290939C02A093B2
:103710009D02B0939E02BF91AF919F918F911F9098
:103720001FBE1F90189582E084BD93E095BD9AEF6F
:1037300097BD80936E0008952FB7F89480919B02F7
:1037400090919C02A0919D02B0919E022FBF08957E
:103750002FB7F89460919B0270919C0280919D021A
:1037600090919E022FBF08959C014FB7F8948091CD
:103770009B0290919C02A0919D02B0919E024FBF2E
:10378000821B930B089578941F921FB61F921124E9
:103790008F939F93AF93BF9380919B0290919C02D4
:1037A000A0919D02B0919E020196A11DB11D809332
:1037B0009B0290939C02A0939D02B0939E02BF91A6
:1037C000AF919F918F911F901FBE1F90189587E713
:1037D00097E7909301088093000888E19AE00FB67C
:1037E000F894A895809360000FBE90936000FFCF7F
:1037F00080916902089508959C0182E08093E90018
:103800009FEF8091E800915085FD06C085ED8A9577
:10381000F1F700009111F5CF8091E80085FF0CC011
:1038200050E040E066E070E0C9010E94221E8091F5
:10383000E8008E778093E8000895CF93DF93EC0142
:1038400081E08093E9008FEF9091E800815095FD31
:1038500006C095ED9A95F1F700008111F5CF8091A2
:10386000E80085FF14C050E040E068E070E0CE0161
:103870000E94221E8091E8008E778093E80088E005
:10388000FE01A1E6B2E001900D928A95E1F7DF9189
:10389000CF91089580935E027093600260935F02FF
:1038A0008091A302843001F582E08093E9008FEFDC
:1038B0009091E800815095FD06C095ED9A95F1F73D
:1038C00000008111F5CF8091E80085FF0DC050E028
:1038D00040E063E070E08EE592E00E94221E80915D
:1038E000E8008E778093E8000895BC0184E00C9492
:1038F0004A1CBC0183E00C944A1C8091A2028111F5
:1039000009C00E94B21F0E940F208091E2008460D3
:103910008093E20008951092A20208950C941E1B59
:1039200060919F0281E0611101C080E00C94171B3F
:103930009091A30281E0943009F080E060919F02B1
:103940000C941C1B42E061EC81E00E942E1F42E2BD
:1039500061EC82E00E942E1F9091A30281E09430DE
:1039600009F080E060919F020C940E1B8091A502EB
:10397000833009F460C030F48130C9F1823009F439
:103980009CC008958A3009F488C08B3009F46EC059
:10399000893009F04FC08091A402813209F04AC0F9
:1039A0008091A8029091A902029708F043C08091EB
:1039B000E800877F8093E8008091E80082FF36C0AE
:1039C0009091F3008091F200029731F48091F10020
:1039D000813011F0863021F48091F10080936902EA
:1039E0008091E8008B778093E8000C94621F8091AF
:1039F000A402813AF9F48091E800877F8093E8007F
:103A00008091A8029091A902892B61F468E081E677
:103A100092E070E00E94711E8091E8008B778093A5
:103A2000E800089560E090E080E0F3CF8091A30289
:103A30008111C2CF08958091A402813AD9F7809173
:103A4000A8029091A902892BA9F78091E800877FAD
:103A50008093E8008091E80080FFFCCF80912001F6
:103A60008093F1008091E8008E77BDCF8091A40211
:103A7000813201F78091A8029091A902892BD1F699
:103A80008091E800877F8093E8000E94621F809108
:103A9000A602809320010C94E0098091A402813257
:103AA00049F68091E800877F8093E8000E94621FBA
:103AB0008091A70280936A0208958091A402813ABE
:103AC00009F0B8CF8091E800877F8093E80080916B
:103AD000E80080FFFCCF80916A02C2CF84B7877F65
:103AE00084BF0FB6F894A895809160008861809398
:103AF0006000109260000FBE80E890E00FB6F8946E
:103B000080936100909361000FBE0C94231B0E9470
:103B1000B21F0E940F20E2EEF0E08081846080837B
:103B200078940C94982284E191E00C94621A80912C
:103B3000A3028530A9F48091A302853011F00C9482
:103B4000681B0E94261B8091A1028823A1F30E947A
:103B5000531B882381F30E940C1E0E94E009EBCFC7
:103B6000089508950C94B41D292F3327233031056F
:103B700019F168F42130310509F444C022303105CF
:103B800009F445C090E080E030E020E025C021321B
:103B9000310549F122323105A9F780E490E02CE7A4
:103BA00033E061157105C1F08BE790E021E033E06F
:103BB0006130710589F0E6CF99278130910581F058
:103BC000009729F00297F1F6ECE8F2E002C0E0EB92
:103BD000F2E0849190E09F01FA01318320830895FF
:103BE000E2EAF2E0F6CF89E090E026EC32E06115FF
:103BF000710591F389E090E02FED32E061307105BD
:103C000059F3C0CF82E190E02FEE32E0E5CF8BE3B5
:103C100090E024EB32E0E0CF80E189BD82E189BD14
:103C200009B400FEFDCF8091D8008F7D8093D8002D
:103C30008091E00082608093E0008091E00081FD4F
:103C4000FCCF0895AF92BF92CF92DF92FF920F9375
:103C50001F93CF93DF936C01EB018A010E94811FB8
:103C6000F82E811123C00115110539F0F80180816A
:103C70009181C81BD90BC80ED91EB12CA12C20973D
:103C8000A9F08091E80085FD22C08091E8008E7740
:103C90008093E80001151105A1F0F8018081918160
:103CA000A80EB91EB182A08285E0F82E8F2DDF917B
:103CB000CF911F910F91FF90DF90CF90BF90AF9069
:103CC00008950E94811F8823D1F2F82EEFCFF601CC
:103CD00081916F018093F1002197FFEFAF1ABF0A26
:103CE000CECFFC018091AA029091AB028617970774
:103CF000A0F06115710529F49091E8009E779093EA
:103D0000E80090E06115710551F4911108C08091AF
:103D1000E80082FF34C080E00895BC01F2CF8091BA
:103D2000A3028823C1F18530C1F18091E80083FDB1
:103D300030C08091E80082FDEACF8091E80080FFEA
:103D4000E1CF8091F3002091F200382F61157105C9
:103D500019F02830310558F091E02830310509F08C
:103D600090E02091E8002E772093E800CBCF81915E
:103D70008093F100615071092F5F3F4FE7CF809131
:103D8000A302882341F0853041F08091E80083FF51
:103D9000BECF81E0089582E0089583E00895FC019C
:103DA0008091AA029091AB0286179707A0F0611547
:103DB000710529F48091E8008E778093E80090E007
:103DC0006115710551F4911108C08091E80082FFDE
:103DD00035C080E00895BC01F2CF8091A302882312
:103DE000C9F18530C9F18091E80083FD31C080912F
:103DF000E80082FDEACF8091E80080FFE1CF80916A
:103E0000F3002091F200382F6115710519F0283068
:103E1000310558F091E02830310509F090E08091AB
:103E2000E8008E778093E800CBCF84918093F100F7
:103E30003196615071092F5F3F4FE6CF8091A30209
:103E4000882341F0853041F08091E80083FFBDCFA9
:103E500081E0089582E0089583E00895982F9730D7
:103E600028F08F708093E90081E008959093E90035
:103E7000242F762F50E0981731F07091EC002091AC
:103E8000ED005091F00021FD02C09F5FE8CF30911E
:103E9000EB003E7F3093EB003091ED003D7F30939F
:103EA000ED003091EB0031603093EB007093EC004B
:103EB0002093ED005093F0002091EE0027FDE5CF18
:103EC00080E008958091A40287FF13C08091E800EC
:103ED00082FF06C08091E8008B778093E80004C0E1
:103EE0008091A3028111F2CF08958091A3028823CB
:103EF000D9F38091E80080FFF8CF8091E8008E77B9
:103F0000ECCF2091E4003091E50095E6A9012091E5
:103F1000EC00822F817020FF06C08091E80080FFB6
:103F200006C080E008952091E80022FD1AC080912B
:103F3000A302882389F0853089F08091EB0085FD0C
:103F40000FC02091E4003091E50042175307F9F2C9
:103F50009150E1F684E0089582E0089583E00895A9
:103F600081E008950E9420200E942820E0EEF0E0E9
:103F7000808181608083E8EDF0E080818F778083AD
:103F800019BCA7EDB0E08C918E7F8C9380818F7EE1
:103F900080831092A20208950F931F93CF93DF9313
:103FA0000E9420200E942820C8EDD0E088818F77D1
:103FB000888388818068888388818F7D888319BC05
:103FC0001092A30210929F021092A1021092A002DE
:103FD00000EE10E0F80180818B7F80838881816012
:103FE000888342E060E080E00E942E1FE1EEF0E076
:103FF00080818E7F8083E2EEF0E08081816080832B
:10400000808188608083F80180818E7F80838881B1
:1040100080618883DF91CF911F910F910895E8ED22
:10402000F0E080818F7E8083E7EDF0E08081816029
:10403000808384E082BF81E08093A2020C94CC1F35
:10404000E8EDF0E080818E7F80831092E200089599
:104050001092DA001092E10008951F920F920FB6AD
:104060000F9211242F933F934F935F936F937F93FE
:104070008F939F93AF93BF93EF93FF938091E10052
:1040800082FF0BC08091E20082FF07C08091E100B7
:104090008B7F8093E1000E9497228091DA0080FF5D
:1040A00019C08091D80080FF15C08091DA008E7F02
:1040B0008093DA008091D90080FF96C080E189BDAD
:1040C00082E189BD09B400FEFDCF81E08093A302A7
:1040D0000E947D1C8091E10080FF19C08091E20068
:1040E00080FF15C08091E2008E7F8093E200809176
:1040F000E20080618093E2008091D800806280932A
:10410000D80019BC85E08093A3020E94901C809186
:10411000E10084FF2BC08091E20084FF27C080E192
:1041200089BD82E189BD89B5982F917080FFFBCF51
:104130008091D8008F7D8093D8008091E1008F7EA0
:104140008093E1008091E2008F7E8093E200809175
:10415000E20081608093E20080919F02882309F44D
:1041600049C084E08093A3020E94981C8091E100E2
:1041700083FF29C08091E20083FF25C08091E10088
:10418000877F8093E10082E08093A30210929F02D8
:104190008091E1008E7F8093E1008091E2008E7F2C
:1041A0008093E2008091E20080618093E20042E02F
:1041B00060E080E00E942E1F8091F0008860809374
:1041C000F0000E948E1CFF91EF91BF91AF919F91E3
:1041D0008F917F916F915F914F913F912F910F90B0
:1041E0000FBE0F901F90189519BC1092A3020E9449
:1041F0008B1C70CF8091E30087FD93E09093A30226
:10420000B3CF1F920F920FB60F9211242F933F93AB
:104210004F935F936F937F938F939F93AF93BF93CE
:10422000CF93DF93EF93FF93D091E900DF708091FC
:10423000EC00C82FC17080FDC0E81092E9008091A9
:10424000F000877F8093F00078940E9445211092BF
:10425000E9008091F00088608093F000CD2BCF7052
:10426000C093E900FF91EF91DF91CF91BF91AF91A2
:104270009F918F917F916F915F914F913F912F917E
:104280000F900FBE0F901F9018951F93CF93DF9341
:10429000CDB7DEB7AA970FB6F894DEBF0FBECDBF7D
:1042A00084EA92E02091F100FC012193CF01F2E039
:1042B0008C3A9F07B9F70E94B61C8091E80083FFF3
:1042C0001EC18091A4029091A5029A3008F017C1F6
:1042D000E92FF0E0E45BFC4D0C94DB22803899F090
:1042E000823809F00CC18091A8028F70873008F0E5
:1042F00006C18093E9008091EB0085FB882780F957
:104300001092E90006C08091A0029091A102911143
:1043100082609091E800977F9093E8008093F1008D
:104320001092F1008091E8008E77E5C0882309F4AF
:10433000D3C0823009F0E3C08091A6028111D6C0BB
:104340008091A8028F702FEF280F263008F0D7C079
:104350008093E9002091EB0020FFC8C0933031F436
:104360008091EB0080628093EB00C0C09091EB00E5
:1043700090619093EB0021E030E001C0220F8A951C
:10438000EAF72093EA001092EA008091EB0088603F
:10439000EACF8111B4C01091A6021F778091E3008B
:1043A0008078812B8093E3008091E800877F809361
:1043B000E8000E94621F8091E80080FFFCCF80919E
:1043C000E30080688093E30082E0111183E0809332
:1043D000A30295C08058823008F091C08091A60257
:1043E0009091A7028C3D23E09207A1F583E08A8398
:1043F0008AE289834FB7F894DE01139620E03EE00D
:1044000051E2E32FF0E050935700E49120FF03C006
:10441000E295EF703F5FEF708E2F90E0EA30C0F0D2
:10442000C7968D939D932F5F243159F74FBF80918D
:10443000E800877F8093E8006AE270E0CE01019691
:104440000E94711E8091E8008B778093E80057C02E
:10445000C096E7CF6091A8027091A902AE014F5FAC
:104460005F4F0E94B21DBC01892B09F448C0909196
:10447000E800977F9093E80089819A810E94CF1E7F
:10448000E1CF8038E1F58091E800877F8093E800F4
:1044900080919F028093F10045CF811130C09091AF
:1044A000A602923060F58091E800877F8093E80053
:1044B00090939F020E94621F80919F02882311F0B7
:1044C00084E005C08091E30087FDFACF81E080930E
:1044D000A3020E94A21C13C08091A602813079F42D
:1044E00081E0933009F080E08093A1021092E9000E
:1044F0008091E800877F8093E8000E94621F80918E
:10450000E80083FF0AC08091E800877F8093E8007D
:104510008091EB0080628093EB00AA960FB6F8942E
:10452000DEBF0FBECDBFDF91CF911F9108950895DB
:10453000CF938091A3028823A1F0C091E900CF70AE
:104540009091EC00892F817090FD80E8C82B10922B
:10455000E9008091E80083FD0E944521CF70C0935F
:10456000E900CF910895AA1BBB1B51E107C0AA1F08
:10457000BB1FA617B70710F0A61BB70B881F991F04
:104580005A95A9F780959095BC01CD01089597FBA8
:10459000072E16F4009407D077FD09D00E94B322AD
:1045A00007FC05D03EF4909581959F4F0895709536
:1045B00061957F4F0895EE0FFF1F0590F491E02D58
:1045C0000994FB01DC0104C08D910190801921F454
:1045D00041505040C8F7881B990B0895F999FECFB8
:1045E00092BD81BDF89A992780B50895A8E1B0E001
:1045F00042E050E00C942223262FF999FECF92BD81
:1046000081BDF89A019700B4021639F01FBA20BD97
:104610000FB6F894FA9AF99A0FBE08950396272FC9
:104620000E94FD220E94FC22252F0E94FD22242FA1
:104630000C94FD220196272F0E94FD220C94FC224F
:10464000DC01CB01FC01F999FECF06C0F2BDE1BD52
:10465000F89A319600B40D9241505040B8F7089541
:10466000F894FFCF83078307B407B40748086408AA
:10467000E307E3077F080B091A091A09EF09EF0995
:10468000F809F809FA09F809F809F809EF09EF0932
:10469000FF09F809F809FF096E2196217F2296216A
:0C46A0007F22C921EA217F2241224D2205
:1046AC009400660091009000C80009022808641E5E
:1046BC00140A321EF81B1D1CFC1B791C751CFB1BE1
:1046CC000131F7F6F5F400000000003332363534D2
:1046DC00C6E200E900EA00B500B600B700CD0083E1
:1046EC0001CC008A019201940121022302240225AB
:1046FC0002260227022A02B300B4006F0070008168
:10470C008283E200E900EA00B500B600B700CD00F4
:10471C008301CC008A01920194012102230224021C
:10472C002502260227022A02B300B4006F00700093
:0C473C00818283AD02E8023D03380300D7
:00000001FF
