:100000000C9457020C949E020C949E020C949E0237
:100010000C949E020C949E020C949E020C949E02E0
:100020000C949E020C949E020C9434240C9408258B
:100030000C94B91E0C949E020C949E020C949E0289
:100040000C949E020C949E020C949E020C949E02B0
:100050000C949E020C94101F0C949E020C949E0211
:100060000C949E020C949E020C949E020C949E0290
:100070000C949E020C949E020C949E020C949E0280
:100080000C949E020C949E020C949E020C949E0270
:100090000C949E020C949E020C949E020C949E0260
:1000A0000C949E020C949E020C949E022900220045
:1000B000270008000C0004000B002800190037007E
:1000C0001E0023002A001500120016000D00E1009A
:1000D000050038001F0024002B0017001300070044
:1000E0000E001D001100E5002000250014001C007A
:1000F000280009000F001B001000E000210026006E
:100100001A00180039000A00330006003600E30028
:100110003500E2002C002C00000000000000000070
:1001200000000000010001000100010001000100C9
:1001300001000100010001000100010001000100B7
:1001400001000100010001000100010001000100A7
:100150000100010001000100010001000100010097
:100160000100010001000100010001000100010087
:100170000100010001000100010001000100010077
:100180000100010001000100010001000100010067
:10019000000000000000000000000000010001005D
:1001A0000100010001000100010001000100010047
:1001B0000100010001000100010001000100010037
:1001C0000100010001000100010001000100010027
:1001D0000100010001000100010001000100010017
:1001E0000100010001000100010001000100010007
:1001F00001000100010001000100010001000100F7
:1002000001000100010001000000000000000000EA
:1002100000000000010001000100010001000100D8
:1002200001000100010001000100010001000100C6
:1002300001000100010001000100010001000100B6
:1002400001000100010001000100010001000100A6
:100250000100010001000100010001000100010096
:100260000100010001000100010001000100010086
:100270000100010001000100010001000100010076
:10028000000000000000000000000000000000006E
:10029000000000002A2B28000000000000000000E1
:1002A0000000000000000029000000002C1E342087
:1002B000212224342627252E362D3738271E1F20AD
:1002C0002122232425263333362E37381F040506F2
:1002D0000708090A0B0C0D0E0F1011121314151636
:1002E0001718191A1B1C1D2F3130232D3504050634
:1002F0000708090A0B0C0D0E0F1011121314151616
:100300001718191A1B1C1D2F3130354C0000000026
:1003100000000000000000000000000000000000DD
:1003200000000000000000000000000000000000CD
:100330007E0F00D4FFFFFFC70000007814036D009C
:100340006900630072006F006F006F006F006E0045
:1003500000000C034E00790061007200750000007F
:100360000403090409025B00030100A0FA09040068
:1003700000010301010009211101000122400007D1
:1003800005810308000A09040100020300000009B6
:10039000211101000122220007058203200001072C
:1003A0000503032000010904020001030000000905
:1003B0002111010001227B000705840320000A129D
:1003C00001000200000008594E56520100010200CF
:1003D000010660FF0961A1010962150026FF009571
:1003E00020750881020963150026FF009520750815
:1003F0009102C005010902A10185020901A10005C0
:1004000009190129081500250195087501810205C2
:1004100001093009311581257F950275088106098A
:10042000381581257F950175088106050C0A38026B
:100430001581257F950175088106C0C005010980D9
:10044000A101850319012AB700150126B7009501FE
:1004500075108100C0050C0901A101850419012A4C
:10046000A002150126A002950175108100C00501AA
:100470000906A101050719E029E7150025019508DE
:10048000750181029501750881010507190029FF91
:10049000150026FF00950675088100050819012939
:1004A00005950575019102950175039101C011240F
:1004B0001FBECFEFDAE0DEBFCDBF04B603FE27C01C
:1004C0008091A4029091A502A091A602B091A702EA
:1004D0008730904BA740B04BD1F41092A4021092F9
:1004E000A5021092A6021092A70214BE84B7877FBD
:1004F00084BF0FB6F894A8958091600088618093BE
:100500006000109260000FBEE0E0F8E3099511E092
:10051000A0E0B1E0EEEEFEE402C005900D92AA3A32
:10052000B107D9F722E0AAEAB1E001C01D92A43ACE
:10053000B207E1F70E94B7140C943E270C94000018
:10054000F894E82FE295EF70F0E031A1282F2F709A
:1005500081E090E001C0880F2A95EAF78095382362
:1005600031A392A1892382A378940895CF93DF9336
:10057000009749F08130910509F460C090E080E077
:10058000DF91CF910895A7E6B2E0CDE6D2E0880FE3
:10059000991F880F991FAC0140505F4FFA0180816D
:1005A00091819C0164E0359527956A95E1F7F90101
:1005B00020A130E08F70992702C0359527958A9544
:1005C000E2F721703327398328838D919C9111970D
:1005D00028173907C1F5FA0182819381FC0124E0D3
:1005E000F595E7952A95E1F720A130E08F709927DE
:1005F00002C0359527958A95E2F7217033273B8312
:100600002A8312968D919C9113971296E1E0F0E067
:100610002817390709F4B2CF2D933C9380916502D6
:10062000909166026AE070E00E94BA26CB01EF2B3F
:1006300009F0A6CF919581959109A2CFA1E7B2E0EB
:10064000C5E7D2E0A4CFF0E0E0E0E6CFCF93DF93C0
:10065000C0E0D1E088810E94A0028A810E94A002AD
:100660008C810E94A0028E810E94A00287E90E94D4
:10067000A0028DE692E0FC0111821082C5E7D2E073
:1006800019821882A7E6B2E011961C921E9221E709
:1006900032E0F90111821082FC01138212821B8266
:1006A0001A8213961C921E921297F90113821282DB
:1006B00084E690E09093660280936502DF91CF918B
:1006C0000895FF920F931F93CF93DF93CDB7DEB7BB
:1006D0002C970FB6F894DEBF0FBECDBF4F83152FFA
:1006E000588769877A878B879C8790E080E00E9493
:1006F000B60290936C0280936B0281E090E00E94BE
:10070000B602082F8093630290936402F0906B020C
:1007100069B16095661F6627661F40E0812F0E94C1
:10072000E5178887F9860A8786E0FE013796DE019D
:10073000119601900D928A95E1F729813A814B81BA
:100740005C816D817E8180E090E02C960FB6F894FC
:10075000DEBF0FBECDBFDF91CF911F910F91FF90F4
:1007600008958091650290916602089590936602C3
:10077000809365020895F894E82FE295EF70F0E019
:1007800031A1282F2F7081E090E001C0880F2A95B9
:10079000EAF7382B31A392A18095892382A378941C
:1007A0000895F894E82FE295EF70F0E031A1282F3A
:1007B0002F7081E090E001C0880F2A95EAF7982F0A
:1007C0009095932391A392A1892B82A37894089565
:1007D000CF92DF92EF92FF920F931F93CF93DF930D
:1007E0007C01C62E062F10E0F801E55DFE4FD0809B
:1007F0008FEFD816F1F18D2D0E94BB030E946D146E
:10080000E1E2F1E030E020E0D0E0C0E041E050E0A3
:1008100061916F3FB9F1A62FA295AF70B0E09096AD
:100820008C9190E06F7002C0959587956A95E2F77C
:1008300080FD28C0CA01022E02C0880F991F0A94A9
:10084000E2F7C82BD92B2F5F3F4F2530310501F739
:100850008D2D0E94D10361E0209709F460E08C2D7A
:100860000E946F14000F111F0E0D1F1DF801D18380
:10087000C083DF91CF911F910F91FF90EF90DF9098
:10088000CF90089590E080E0DCCF8F929F92BF924E
:10089000CF92DF92EF92FF920F931F93CF93DF934C
:1008A000B82E092F162FE62EF12CC7018F5D9E4F13
:1008B0004C01EC0188818F3F09F451C00E94BB03B9
:1008C0000E946D14D5E0ED0EF11C61E070E002C0F5
:1008D000660F771FEA94E2F76B01C094D094ABE205
:1008E000B1E0EB2DF02F81E3E82E81E0F82E00E05F
:1008F0004D91808191814F3F69F1242F22952F7076
:1009000030E0E90128A130E04F7002C0359527950D
:100910004A95E2F720FD1EC0862B972B918380839A
:1009200001E03296EA16FB0619F7F40180818F3F49
:1009300011F00E94D103602F812FDF91CF911F9181
:100940000F91FF90EF90DF90CF90BF909F908F908E
:100950000C946F148C219D2191838083E2CFDF91D1
:10096000CF911F910F91FF90EF90DF90CF90BF90AC
:100970009F908F900895EF92FF920F931F93CF93C4
:10098000DF93CBE2D1E08E01F80181918F018F3F9F
:1009900011F00E94D103F1E001331F07A9F701E232
:1009A00011E07801F70181917F018F3F11F00E94E2
:1009B000D103F6E2EF16F1E0FF06A1F7F80181910D
:1009C0008F018F3F11F00E94D103F1E006321F0723
:1009D000A9F789918F3F11F00E94D10381E0C133C3
:1009E000D807B9F7DF91CF911F910F91FF90EF904A
:1009F00008950E94BB048CE0E7E8F2E0DF01982F45
:100A00001D929A95E9F7EBE7F2E0DF011D928A95D6
:100A1000E9F786E00E9471140C94DA05FF920F93B7
:100A20001F93CF93DF93CDB7DEB72C970FB6F89413
:100A3000DEBF0FBECDBF8E010F5F1F4F8CE0F801F0
:100A400011928A95E9F7F12C6F2DC8010E94E803F5
:100A5000F394F6E0FF12F8CFF12C6F2DC8010E943D
:100A60004504F39485E0F812F8CF4CE050E0B8016B
:100A70008BE792E00E94EF26FF24F394009709F49D
:100A8000F12C892B41F08CE0F801ABE7B2E001904A
:100A90000D928A95E1F72F2D46E067E872E08BE72B
:100AA00092E00E9472140E94E0058F2D2C960FB6E2
:100AB000F894DEBF0FBECDBFDF91CF911F910F9194
:100AC000FF90089581E0089581E008950C946405F5
:100AD00008950C9468051F93CF93DF9300D000D046
:100AE0000F92CDB7DEB749835A836B833091AC0147
:100AF00089819A8131111DC06623B9F02223A9F0A2
:100B00000E94300C182F682F89819A810E94DC0B7B
:100B100069817A81812F0F900F900F900F900F9025
:100B2000DF91CF911F910C94F71B0E94080C182F96
:100B3000EFCF0E94300C69817A81EDCFFC01262F26
:100B4000408151816281738184810C946B0581E0C5
:100B50000895CF93DF93EC0160E00E949E05BE01F3
:100B6000DF91CF910C946905E1E0F0E0DF0102C074
:100B7000AA0FBB1F6A95E2F7BD01DF0102C0AA0FF1
:100B8000BB1F4A95E2F76A2B01C0EE0F2A95EAF7E0
:100B9000962F9823961302C08E2B0895E0958E23EE
:100BA0000895242F462F682F8091C5010E94B40517
:100BB0000C94990B0E943F140E9430070C945A1415
:100BC0000C945D1480E00E9431070C943518089550
:100BD00008950E94310B0E94E8052FEF84E39CE00A
:100BE000215080409040E1F700C000000C94341F79
:100BF0000F931F93CF93DF938C0161E00E949E05BA
:100C0000EC01B8010E9415198823D9F1B801CE0171
:100C10000E9466058823A9F1B801CE010E94581DE3
:100C2000882379F1B801CE010E94051A882349F181
:100C3000B801CE010E94C21C882319F1F8018281FB
:100C4000882361F0CA35FDE5DF0721F170F4C11595
:100C5000ECE5DE07A1F0CE3DDC45C9F0C801DF912F
:100C6000CF911F910F910C946205CB358DE5D8077C
:100C7000A1F0CC35DD4591F70E944310EFCF0E94E3
:100C8000E90580E0DF91CF911F910F9108950E94B7
:100C9000FC10F7CF0E944C10E1CF0E944F10DECF26
:100CA0000C94E7050E94B41D0E9431070C94500675
:100CB000DF92EF92FF920F931F93CF93DF93E82F72
:100CC000F0E0E457FD4FD490282F269526952695E1
:100CD00030E0F901E45DFC4F0491877010E0082ECC
:100CE00002C0159507950A94E2F701701127F901E2
:100CF000E45EFC4FE490F12C082E02C0F594E794DA
:100D00000A94E2F791E0E922FF24F901E45FFC4F45
:100D1000C491D0E002C0D595C7958A95E2F7C1701D
:100D2000DD270115110519F081EE0E94A607E114D7
:100D3000F10419F086EE0E94A6078D2D0E94A508E9
:100D4000EF2819F086EE0E943808012B19F081EE89
:100D50000E943808CD2B51F08CE2DF91CF911F918A
:100D60000F91FF90EF90DF900C94A508DF91CF9149
:100D70001F910F91FF90EF90DF900895EF92FF92F7
:100D80000F931F93CF93DF93EC01162F0AE0888116
:100D9000882309F454C0813009F04EC08981813024
:100DA00099F47E0122E0E20EF11C8A810E94A508DE
:100DB000E7012196812F815050F3EFE9FFE0319751
:100DC000F1F700C00000F7CF823041F47E0182E0ED
:100DD000E80EF11C8A810E94A607EACF833041F415
:100DE0007E01E2E0EE0EF11C8A810E943808E0CF1D
:100DF000843011F02196DDCF2A81229690E080E0A8
:100E0000AE014F5F5F4F2053330B2A30310548F05E
:100E1000019778F2EFE9FFE03197F1F700C00000A9
:100E2000F7CF089FB001099F700D1124C901860FEB
:100E3000971F2981EA01E4CF0E945806BACFDF91BB
:100E4000CF911F910F91FF90EF90089560E00C9467
:100E5000BE0608950C94290781E008950C942C0790
:100E60000895CF93C82F0E942A078C2FCF910C94FE
:100E70002E07CF93DF93CDB7DEB72B970FB6F8943D
:100E8000DEBF0FBECDBF4F83588769877A878B87B8
:100E900061110E949E0F1E821D8285E0FE01379621
:100EA000DE01119601900D928A95E1F78C819D816A
:100EB000892B89F449815A816B817C818D819E8146
:100EC0000E94BF0E2B960FB6F894DEBF0FBECDBFAB
:100ED000DF91CF91089589819A8189238F3F51F3C2
:100EE000CE0101960E94A7058111E4CFEBCFFC0152
:100EF000808191810C945D0C0F931F93CF93DF93AE
:100F000000D000D000D0CDB7DEB7082F162F0E943A
:100F10007E1829834B835C836D837E83002399F045
:100F2000312B4981532F6B817C818D819E81269647
:100F30000FB6F894DEBF0FBECDBFDF91CF911F91EA
:100F40000F910C949F1810953123EBCFCF93C82F9E
:100F5000882309F48BC08238C1F40E94B41D81FD3E
:100F600085C089E30E94590F0E94C10F2FEF81EEC7
:100F700094E0215080409040E1F700C0000089E3F8
:100F80000E94600FCF910C94C10F8338A1F40E948E
:100F9000B41D80FD6BC083E50E94590F0E94C10FF4
:100FA0002FEF81EE94E0215080409040E1F700C0A7
:100FB000000083E5E5CF8438A1F40E94B41D82FDD2
:100FC00055C087E40E94590F0E94C10F2FEF81EE98
:100FD00094E0215080409040E1F700C0000087E499
:100FE000CFCF8CEF8C0F813A90F46C2F80910A0157
:100FF00090910B010E94171E882329F08C2F0E94CC
:10100000600F0E94C10F8C2F0E94590FBBCF80E24E
:101010008C0F883048F4C77081E001C0880FCA95F2
:10102000EAF70E94810FAECFEBE5EC0FE33040F41E
:10103000F0E0E15AFE4F808190E0CF910C94D91DF1
:10104000E8E5EC0FE73150F4F0E0EE0FFF1FEF5C46
:10105000FE4F80819181CF910C94EF1DC03F30F005
:101060008C2F0E944715CF910C941A16CF9108959A
:10107000882309F452C0823871F40E94B41D81FFA4
:101080004CC089E30E94590F0E94C10F89E30E945E
:10109000600F0C94C10F833859F40E94B41D80FF77
:1010A0003CC083E50E94590F0E94C10F83E5EFCF3A
:1010B000843859F40E94B41D82FF2FC087E40E9437
:1010C000590F0E94C10F87E4E2CF9CEF980F913A2D
:1010D000F0F290E2980F983050F4877091E001C0E0
:1010E000990F8A95EAF7892F0E94870FD2CF9BE547
:1010F000980F933020F490E080E00C94D91D98E58F
:10110000980F973120F490E080E00C94EF1D803F21
:1011100020F00E94A1150C941A1608951F93CF93E6
:10112000DF93182FEB010E94A607209731F4812F3F
:10113000DF91CF911F910C9438088FE99FE00197C0
:10114000F1F700C000002197F0CF70E060E0893334
:1011500011F460E570E00C948E08882321F00E9461
:10116000810F0C94C10F0895882321F00E94870FEE
:101170000C94C10F0895BF92CF92DF92EF92FF922D
:101180000F931F93CF93DF936C01D62FC72FFC01D2
:101190001281F580F2949FE0F9220E94770FE82EE9
:1011A0008823B9F0E12E1123A1F08C2F807F8034A9
:1011B00021F080E28D0F8830D0F080917A0282FD9C
:1011C00016C082E00E9412100E94770F91E0E82E74
:1011D000E926BC2EB2948FE0B822FBE0FB1508F4A0
:1011E00068C0EB2DF0E0E05CF84D0C94E226E12CB9
:1011F000F0CF0C2F0F70C07F11F00295007F1123EC
:1012000099F0002359F080E28D0F883010F0D11151
:1012100007C0802F0E94810F0E94C10F8D2F41C0F7
:10122000802F0E94910FF8CF8D2F0E943808002345
:1012300009F43FC080E28D0F883010F0D11104C056
:10124000802F0E94870F03C0802F0E94970F0E945B
:10125000C10F2FC00C2F0F70C07FC03211F002954C
:10126000007FDD2381F0D13009F46AC0112309F435
:1012700074C0FF2009F46AC0F601858180FFCECFDB
:101280008F70858363C080917A0282FF39C01123F9
:1012900059F0002329F0802F0E94810F0E94C10F76
:1012A00080E00E94A60705C080E00E943808011176
:1012B000C7CF2B2D2850330B2430310520F40E944A
:1012C000B41D0E943107EE2009F468C10E94730F1B
:1012D00080FD64C1F60112820E946D0F0E94AA0B6C
:1012E000C6010E94EF0A0E946D0FDF91CF911F91FE
:1012F0000F91FF90EF90DF90CF90BF900C94B50BC3
:10130000112389F0F11006C00E94A40F802B0E94C7
:10131000AD08CFCF21E0F212F7CF0E94A40F802BAF
:101320000E94AA0FC6CFF11006C00E94B70F802FEF
:101330000E94B408BECF31E0F31609F4BACFF5CF5E
:10134000112331F085E08F1508F4B3CF802FDFCF64
:1013500094E09F1508F4ADCFEACFFF2041F3D933D5
:1013600049F4FFEF27EE33E0F15020403040E1F741
:1013700000C000008D2F0E9438089BCF8C2F8695CF
:101380008695837069F0813009F093CF8D2F9C2F63
:101390009370111102C090E080E00E94EF1D89CF90
:1013A0008D2F9C2F9370111102C090E080E00E945D
:1013B000D91D7FCF8D2F112391F00E944715ED2F5E
:1013C000E45FFF0BE530F10568F461E070E001C017
:1013D000660FEA95EAF7812F0E947C076ACF0E9488
:1013E000A115EDCF0E941A1664CF8C2F837079F56A
:1013F00011115FCF4D2F429546954770440F440F12
:101400008D2F8F70042E01C0880F0A94EAF72D2FBC
:101410002071D4FF07C02FE030E001C0220F4A95B1
:10142000EAF72095C695C695C370822BC23049F065
:1014300058F4C13019F00E948B0B3BCF0E94860BF1
:1014400038CF0E94900B35CF0E94840B32CF869507
:10145000112311F08C2F8170882309F42ACF4D2F8E
:10146000429546954770440F440F8D2F8F70042E80
:1014700001C0880F0A94EAF72D2F2071D4FF07C00E
:101480002FE030E001C0220F4A95EAF72095C6957B
:10149000C695C370822BC23049F058F4C13019F0A0
:1014A0000E94D10B06CF0E94CC0B03CF0E94D60B1B
:1014B00000CF0E94990BFDCECF70112329F08C2F05
:1014C0000E94AA0B8D2F23CF8D2F0E94B4088C2F42
:1014D0000E94B50BEECED23F51F160F4D03FB9F08F
:1014E000D13F81F0112309F449C0F11097CE8C2F20
:1014F0008F7121C0D33F11F1D43FA1F780917A02BF
:1015000082FF26C08C2F8F71112311F314C0112379
:1015100049F0F4E0FF1508F4CCCE8C2F8F710E94B7
:10152000C10BC7CE25E02F1508F4C3CEF6CF8C2F04
:101530008F711111CDCF0E94AA0BBBCE112329F0C0
:101540008C2F8F710E94A20BB4CE0E949F0BB1CE44
:10155000112349F0CF718C2F0E94AA0B63E08C2FCE
:101560000E94F70FA6CE81E00E94121031E03F15D5
:1015700008F09FCE82E00E9412109BCEFF2059F00F
:10158000D93309F0F7CE8FEF97EEE3E0815090402A
:10159000E040E1F7EDCE8C2F8F719ACFDF91CF91A4
:1015A0001F910F91FF90EF90DF90CF90BF90089523
:1015B0000F931F93CF93DF93EC01688179818A8128
:1015C0000E94670C8C010E94DB0B0E94830BB80108
:1015D000CE01DF91CF911F910F910C94BB08CF9357
:1015E000DF93EC018B819C81892B29F08881998183
:1015F00089238F3F59F4DF91CF910895CE010E9446
:10160000D80ACE01DF91CF910C94A905CE010E949A
:10161000F8058111F3CF0E94770F882361F38A8147
:10162000882349F380917A0282FDE5CF82E0DF9141
:10163000CF910C94121090E080E00E94D91D90E0B0
:1016400080E00E94EF1D0E949E0F0E94A10F0E9449
:10165000C10F0E9441170C941A160E94670F0C9438
:101660001B0B0E948E0F0C942D0BE92FE295EF704F
:10167000E250EE3070F4F0E0E45BF84D0C94E226BA
:10168000803F19F020F4883E20F481E00895843FE3
:10169000E1F380E00895883EC0F3813FD1F7F5CFB4
:1016A00093FB882780F90895FC01808191810E9435
:1016B0005D0C0C94350BCF93DF9300D000D00F92CC
:1016C000CDB7DEB70F900F900F900F900F90DF9176
:1016D000CF910895CF93DF9300D000D000D0CDB745
:1016E000DEB726960FB6F894DEBF0FBECDBFDF91F2
:1016F000CF91089508950C947A0B0E947B0B8093F0
:10170000C6010C941B0B08950C947D0B9091C6019F
:10171000892B0C947D0B9091C60189230C947D0B31
:101720009091C60189270C947D0B0C947A0B0C9434
:10173000950B0E94970B8093C5010C941B0B80E0C6
:101740000C94990B91E001C0990F8A95EAF7892FC3
:101750000C94990B21E030E001C0220F8A95EAF742
:101760008091C501822B0C94990B21E030E001C0DF
:10177000220F8A95EAF720958091C50182230C9467
:10178000990B21E030E001C0220F8A95EAF78091A1
:10179000C50182270C94990B9091C501892B0C945B
:1017A000990B9091C50189230C94990B9091C501D7
:1017B00089270C94990B08952AE0929F800D11249B
:1017C000982F977041E001C0440F9A95EAF78695EB
:1017D0008695869593E0899FF0011124E355FE4F8D
:1017E00090E080E070E05191DF0111979B01082E9D
:1017F00002C0369527950A94E2F721702195252796
:10180000242325272C9301968330910561F70895B1
:101810002AE0929F800D1124982F977086958695C7
:10182000869523E0829FF0011124E355FE4F50E09E
:1018300040E080E0219130E0092E02C036952795E6
:101840000A94E2F721703327042E01C0220F0A9474
:10185000EAF7822B4F5F5F4F4330510559F70895E8
:10186000CF92DF92FF920F931F93CF93DF936C0180
:101870000091C5018091C601082BC7E0D0E010E0BF
:10188000FC2EC8010C2E02C0959587950A94E2F7AC
:1018900080FD0CC02197A0F7F12C8F2DDF91CF9107
:1018A0001F910F91FF90DF90CF900895B6018C2F7C
:1018B0000E944713019771F3F0CFCF93DF93EC01B0
:1018C0000E94300CBE01DF91CF910C9447131F93FF
:1018D000CF93DF93EB019091AC01992331F0CB01D1
:1018E000DF91CF911F910C945D0C882379F0CB018F
:1018F0000E94300C182F682FCE010E94DC0BBE0115
:10190000812FDF91CF911F910C944713CB010E943F
:10191000080C182FF4CF1F93CF93DF93C091C7010A
:1019200016E08091C8018C1304C0DF91CF911F9104
:101930000895D0E01C9FF0011D9FF00D1124E75386
:10194000FE4F4081518162817381848195810E9423
:101950006A0B2196C770E5CF4091F9015091FA01C9
:101960006091FB017091FC018091FD019091FE015D
:101970000C946A0BFF920F931F93CF93DF93809188
:10198000FE01807FD1F48091FB018823B1F080912A
:10199000C7011091C8016091F9017091FA01A091FD
:1019A000FC01B091FD01062F0723C0910801D091E1
:1019B000090196E0F92E181306C0DF91CF911F910F
:1019C0000F91FF90089590E0109711F00F3F19F4D8
:1019D00001968770F0CFF89E9001F99E300D11248A
:1019E000F901E753FE4F41814713F2CF408146137F
:1019F000EFCF42814111ECCF438154814A1B5B0BF5
:101A00004C175D0728F78091FE018F7080618093ED
:101A1000FE01F901E253FE4F80818F708061808367
:101A200089EF91E00E94EF0ADF91CF911F910F9112
:101A3000FF900C948B0CAF92BF92CF92DF92EF92FB
:101A4000FF920F931F93CF93DF93CDB7DEB76197CC
:101A50000FB6F894DEBF0FBECDBF8C0185E0F80154
:101A6000DE011D9601900D928A95E1F7F801E28062
:101A700089EFC82E81E0D82E6091FC017091FD01A4
:101A80006115710509F45FC19091F9012091FA0186
:101A9000892F82238F3F09F456C140815181A38051
:101AA000B480F090FB01F501E61BF70BBF01E0915C
:101AB0000801F0910901FF2009F4F6C08091FE01B0
:101AC000382F307F6E177F0708F0AFC0311179C013
:101AD000FE2C251323C0941321C0E1101FC08F706A
:101AE00080618093FE010E94AC0CC6010E94EF0A47
:101AF0008091FE01F80185838F2D61960FB6F894D1
:101B0000DEBF0FBECDBFDF91CF911F910F91FF9030
:101B1000EF90DF90CF90BF90AF900895AB2829F061
:101B2000842F85238F3F09F027C180E0F82FF170C3
:101B3000DF2E80FF3CC08091C7012091C80136E0B4
:101B4000821315C04D875E878D859E850E945D0C32
:101B5000292F22952F702230F0F0243018F59F7035
:101B6000F1F0F8019581907FD1F4D12C1EC090E066
:101B7000389FF001399FF00D1124E753FE4F61812A
:101B8000651306C06081641303C062816E110FC0CB
:101B900001968770D5CF9F7011F0882331F3805E56
:101BA000883018F3C8010E94EF0AFD2CA5CFEE2063
:101BB00009F4A2CF8091FE0181608093FE01F12C97
:101BC0009BCF251306C0941304C0F801EE2009F43E
:101BD00087C0C8010E94540B882319F1EE2009F137
:101BE0008091FE01803270F02091F9013091FA016C
:101BF00038872F831986BB86AA868C87CE010796E5
:101C00000E94EF0A86E0F801A9EFB1E001900D9281
:101C10008A95E1F70E94BA0C0E94AC0CFF24F39461
:101C20006BCFC8010E94EF0AF9CF311113C07A2D92
:101C3000B98AA88A6E2D89890E945B0B89EF91E091
:101C40000E94EF0A86E0F60111928A95E9F70E9458
:101C5000AC0CB5CF25130FC094130DC0E1100BC011
:101C6000F8018583C8010E94EF0A86E0F60111920F
:101C70008A95E9F741CFC8010E94540B882389F265
:101C8000EE2079F28091FE01803208F4BBCF2091E2
:101C9000F9013091FA013A8329831B82BD82AC821B
:101CA0008E83CE010196ACCF6E177F0708F03EC041
:101CB000FE2CEE2009F4B5CF25132AC0941328C0BA
:101CC0008091FE0180FD1BC0982F907FC1F0F8012C
:101CD0008583903F31F0982F907F905F8F70892B94
:101CE0008583C8010E94EF0A86E0F801A9EFB1E000
:101CF00001900D928A95E1F70E94AC0CFDCE86E032
:101D0000F801A9EFB1E001900D928A95E1F7F4CEC8
:101D1000C8010E94540B811175CF8091FE01816032
:101D20008093FE01C8010E94EF0AE6CE7A2DB98A9F
:101D3000A88A6E2D89890E945B0B86E0F6011192BC
:101D40008A95E9F7D9CFEE2009F46BCFC8010E943C
:101D5000540BF82E882309F464CF86E0F801A9EF2C
:101D6000B1E001900D928A95E1F789EF91E00E9430
:101D700077070E94BA0CC0CF81E08E25D7CE1F9383
:101D8000CF93DF93CDB7DEB72C970FB6F894DEBFB5
:101D90000FBECDBF4F83588769877A878B879C8713
:101DA000CE0107960E941B0D882369F08A859B85CA
:101DB000892B39F04F815885842F85238F3F09F077
:101DC00071C016E05FC086E0FE013796DE01119615
:101DD00001900D928A95E1F78A859B85892B89F37D
:101DE0008F81988589238F3F61F32091C80130E06E
:101DF000C9010196877099274091C70148171906B4
:101E000071F40E94310B1092C8011092C70186E054
:101E1000E9EFF1E0DF011D928A95E9F7D2CF96E074
:101E2000929FD001939FB00D1124A753BE4FFE0186
:101E3000319601900D929A95E1F78093C8010E9426
:101E40008B0CBFCF819FC001112487539E4F0E94EE
:101E50001B0D8823E9F0E091C7011E9FF0011124BA
:101E6000E753FE4F40815181628173818481958166
:101E70000E946A0B8091C70190E0019687709927B4
:101E80008093C7018091C7019091C8018913DACF6F
:101E90002C960FB6F894DEBF0FBECDBFDF91CF9169
:101EA0001F91089569857A858B859C850E946A0BB0
:101EB00088CF682F80910A0190910B010C944D1EE0
:101EC000682F80910A0190910B010C944F1E809114
:101ED0000A0190910B010C94511E8091FF01859590
:101EE0008595859508958091FF018770089590915B
:101EF000FF01977081E009F480E0089580910B0262
:101F0000089590910B02892B80930B020895809580
:101F100090910B02982390930B02089510920B025C
:101F2000089590910A02892B80930A020895809562
:101F300090910A02982390930A02089510920A023F
:101F4000089510920902089580910002089508955D
:101F50000C94A70F90917A0292FD08C09091000214
:101F6000981721F0809300020C94A80F0895809197
:101F70000002882329F01092000280E00C94A80F40
:101F80000895E0910A01F0910B0180910B0280838A
:101F9000E0910A01F0910B01808190910A02892B56
:101FA0008083E0910A01F0910B01808190910902F8
:101FB000892B808390910002992381F0E0910A019E
:101FC000F0910B018081892B808380910A0190918F
:101FD0000B010E94051E81110E94B70F80910A011A
:101FE00090910B010C94C01D08950C94F40F9091E6
:101FF0007A0292FD10C098E0899F90011124622B13
:102000006093FF010E94AA0B8091FF018595859541
:1020100085950C94F50F0C94AA0B1092FF0180E0AB
:102020000C94F50F9091FF01809589238093FF0117
:10203000282F277091F4282F082E000C330B9217AD
:10204000130659F090917A0292FD07C08595859507
:1020500085950E94B50B0C940D10089590917A020D
:1020600092FB222720F9281769F080FB92F99093C0
:102070007A028091790290917A020E94791082E02E
:102080000C941210089580917A0282FB882780F9BF
:1020900091E089270C942E1081E00C942E1080E0A2
:1020A0000C942E106FEF7FEF90E080E00C942827C7
:1020B00090E080E00E940427893E9E4F11F40C942A
:1020C000BE1880E0089582E090E00C94FC2683E046
:1020D00090E00C94FC26CF9384E090E00E94FC26D4
:1020E000C82F82E290E00E94FC26982F8C2FCF917F
:1020F0000895CF93C92F682F84E090E00E940A27AB
:102100006C2F82E290E0CF910C940A27AB01BC01C6
:102110008FE090E00C941C27AB01BC0183E190E0C0
:102120000C941C2760E070E0CB010C948C1060E0F4
:1021300070E0CB010E9486100C94921069EE7EEF45
:1021400090E080E00E94282760E082E090E00E941A
:102150000A2760E083E090E00E940A271092C601FF
:1021600060E084E090E00E940A2760E082E290E074
:102170000E940A2760E085E090E00E940A2760E064
:1021800086E090E00E940A276FEF87E090E00E94CF
:102190000A2740E050E0BA0188E090E00E941C2746
:1021A00060E08DE090E00E940A2740E050E0BA0134
:1021B00088E190E00E941C2760E087E190E00E94A7
:1021C0000A2740E050E0BA018CE190E00E941C2711
:1021D00070E060E080E290E00E94282740E050E05C
:1021E000BA0188E190E00E941C2780E00E94D71885
:1021F0000E94FD180C9497100C949E10682F8EE08E
:1022000090E00C940A270E94F51E609329027093B7
:102210002A0280932B0290932C02609325027093E4
:10222000260280932702909328020895CF92DF928E
:10223000EF92FF920F931F9380911D0290911E02C7
:10224000A0911F02B09120020196A11DB11D8093A3
:102250001D0290931E02A0931F02B09320020E94C1
:10226000F51E00912102109122022091230230914B
:1022700024026B017C01C01AD10AE20AF30A970119
:102280008601093E13402105310500F100911D0230
:1022900010911E0220911F0230912002009319021A
:1022A00010931A0220931B0230931C0260932102A8
:1022B00070932202809323029093240210921D02B5
:1022C00010921E0210921F02109220021F910F9175
:1022D000FF90EF90DF90CF90089585B7806885BF1D
:1022E00085B7806885BF0895089508950C9474118A
:1022F00008950C9478110E946D1185E294E10E947A
:10230000AA1D0E9475110C94761181E008950C9419
:102310008511089508950E9489110C948A110E94D4
:10232000E01E0E940C190E94F9040E94F2170C94FE
:1023300079118F929F92AF92BF92CF92DF92EF92DC
:10234000FF920F931F93CF93DF93CDB7DEB72A97FA
:102350000FB6F894DEBF0FBECDBF0E940E058111EF
:102360000E9403115DE0852E52E0952E10E000E002
:10237000A02E802F0E945F146C01F401E190F19077
:102380004F01E816F90609F460C080912D0281FD25
:102390000E946814C7018C259D25B12CEE24E3947E
:1023A000F12C9C012E213F21232B09F448C00E94CF
:1023B00087118823A9F0BE82AF82CE20DF2081E082
:1023C000CD2809F480E088870E94E91E8160782F7B
:1023D0009A8789874E815F8168858A850E9439073F
:1023E000000F111FF801E35FFD4F80819181E82606
:1023F000F926F182E0820E9416110E9435160E9491
:1024000035180E94B41D90910C028917A9F10E9401
:10241000B41D80930C022A960FB6F894DEBF0FBE4F
:10242000CDBFDF91CF911F910F91FF90EF90DF9083
:10243000CF90BF90AF909F908F900C943107B39442
:10244000EE0CFF1CFAE0BF12ACCF0F5F1F4F06303F
:10245000110509F08DCF8FEF89838A831B820E943B
:10246000E91E8160782F9D838C8349815A816B811D
:102470008D810E943907BFCF2A960FB6F894DEBF30
:102480000FBECDBFDF91CF911F910F91FF90EF90C5
:10249000DF90CF90BF90AF909F908F900895CF9393
:1024A000DF930E944B13EC01811521E5920708F0A0
:1024B00042C0811530E5930708F09DC0883E910524
:1024C00030F5803E910508F092C0883A910588F475
:1024D000853A910508F084C08130910509F487C0E0
:1024E000009709F484C0049708F081C0D0E0C0E0F0
:1024F0007EC08F3B9105D0F7C85AD0E0CC0FDD1FCE
:10250000CE59DE4F0990D881C02DD46470C081159A
:10251000904250F4C11581E0D80708F068C0C03F70
:10252000D10520F3D06563C0C11590E4D907F0F25E
:10253000DF70D06A5CC0811525E5920700F5811532
:1025400034E5930708F08BC0811543E5940708F044
:1025500073C0C11582E5D80708F469C0CE01837045
:10256000992721E030E002C0220F331F8A95E2F75D
:10257000C695C69580E2C89FE001112454C0C115DC
:1025800099E5D907A8F4C11528E5D20708F06CC071
:10259000C11536E5D30708F0A9CF8C2F0E94E213AE
:1025A000C82FD0E0DC2FCC27CC27DF71D0621FC032
:1025B000C1154AE5D40708F45CC0CE0190568115D8
:1025C000904208F093CF8D2F8F710E94E21390E01C
:1025D000982F882788279F719C012C2BE901E6CF33
:1025E000C55AD0E0C057DE4FC881D0E0D064CE01DC
:1025F000DF91CF910895E4E096958795EA95E1F70C
:1026000083702C2F26952695237040E2249F9001FD
:102610001124382B8C2F8370C1E0D0E002C0CC0F86
:10262000DD1F8A95E2F7C22BD32BDC68E0CFDC2FCD
:10263000CC27C16FD06ADBCF8370992721E030E0CF
:1026400002C0220F331F8A95E2F7C695C69590E225
:10265000C99FE0011124C22BD32BDA68C8CFD82F31
:10266000CC27C46FD06AC3CFDC2FCC27C06FD06A11
:10267000BECF8C2F8F700E94E21334E0D695C795A1
:102680003A95E1F7CF709C2FEC01D069B0CF0E9452
:10269000F71B0C944F1282389105B1F1B0F48133DD
:1026A000910509F475C048F48932910509F469C0AF
:1026B0008A32910509F473C008958533910509F4B0
:1026C00059C08933910501F10895833E9105A9F11F
:1026D00038F4803E9105F9F0823E910549F1089564
:1026E000863E9105A9F1873E9105C9F1843E910589
:1026F00019F520917A0221FF1FC08091790284FD93
:1027000014C087EE90E00895209179022370A1F023
:1027100080EE90E008952091790220FD47C030912D
:102720007A0230FF09C024FF44C090E080E004C07A
:102730002091790222FDF7CF08952091790222FDA0
:102740003BC030917A0230FDE3CF24FFF5CFEDCFCF
:102750002091790223FFF0CF24FDE7CFD2CF209143
:10276000790223FD2CC030917A0231FFEECF84EE46
:1027700090E008952091790225FFDECF89E290E074
:1027800008952091790225FFD7CF85E390E0089541
:102790002091790226FFD0CF8AE290E0089520911F
:1027A000790226FFC9CF81E390E0089589E390E0A4
:1027B000089583EE90E0089582EE90E0089586EE0D
:1027C00090E008959091790292FF06C0282F287119
:1027D0002830F9F4877F846093FF06C0282F287182
:1027E0002831F1F4877E846120917A0220FF06C0AF
:1027F000382F38713830D9F4877F816021FF06C0C7
:10280000282F28712831D1F4877E816194FD877E3D
:102810000895282F24712430F9F68B7F8860DCCF4F
:10282000282F2471243101F78B7E8861DDCF382F6A
:102830003171313019F78E7F8860E0CF282F2171F8
:10284000213121F78E7E8861E1CF80E008950C94DC
:1028500052100E940E058FE39CE90197F1F700C02A
:1028600000000E940E0580E00E945F1480FF04C0FB
:102870000E9427140C94341F08950C9429140E946C
:102880005810811102C00E94FC100E9463108093B6
:102890002D020E946B1090937A02809379020E941D
:1028A0003D140E9467100E94840B8091C5010C9416
:1028B000970B08950C94591408950C945C14E82F08
:1028C000F0E0EE0FFF1FE957FD4F808191810895E1
:1028D000089580EA8A95F1F7089500C008950C9450
:1028E00069140895FF920F931F93CF93DF93F82EEF
:1028F000092F162FD72FC42F222349F081E0809370
:1029000030020E94E91E90932F0280932E02809144
:1029100030028823A1F080912E0290912F020E9414
:10292000011F059760F0EF2DF02FA12FBD2F90E034
:1029300080E0D0E08C179D0744F010923002DF91C8
:10294000CF911F910F91FF900895219131912D9377
:102950003D930196EFCF0E9409210E948F110C94A4
:1029600015210E9419210E9499110C9433210E9473
:10297000721E0E94F0200E947B110E94AB140E94E4
:10298000B1140E948B11FBCF8091370280FF12C0DF
:102990006091110185E0689FB001112475956795DC
:1029A0007595679560387105A8F561157105A1F1F8
:1029B000862F089581FF09C06091110185E0689F0D
:1029C000B001112475956795EDCF6091110182FDDD
:1029D0000AC0809136028823D1F090911001609155
:1029E0001101891728F085E0689FB0011124DACF22
:1029F000869FB001112485E0869F9001879F300D4E
:102A00001124692F70E0C9010E94CE26CBCF65E06A
:102A100070E0CECF8FE7089581E00895809137026E
:102A200080FF0CC060910D0170E0759567957595FC
:102A300067956115710549F1862F089581FF06C0DC
:102A400060910D0170E075956795F3CF60910D0170
:102A500082FD0BC0909135029923A1F060910C0189
:102A600080910D01961738F0682F70E0603871057D
:102A700000F38FE70895899FC001112470E00E9440
:102A8000CE26F4CF61E070E0D7CF81E00895803F9B
:102A900031F40E94C414819580933B020895813FD4
:102AA00019F40E94C414F8CF823F31F40E94C41478
:102AB000819580933A020895833F19F40E94C414CB
:102AC000F8CF893F29F40E940E1580933C020895A7
:102AD0008A3F21F40E940E158195F7CF8B3F31F488
:102AE0000E940E15819580933D0208958C3F19F444
:102AF0000E940E15F8CF9CE0980F953070F4845F1B
:102B0000990B21E030E001C0220F8A95EAF780910D
:102B10003902822B8093390208958D3F31F48091E0
:102B2000370281608093370208958E3F21F48091AF
:102B300037028260F7CF8F3FB9F780913702846008
:102B4000F1CF40913A02803F59F480913B0287FFD8
:102B50000DC010923B0241110BC01092360208C00A
:102B6000813F81F480913B0218169CF3442381F04D
:102B700080913C0290913D02892B09F05AC010923D
:102B800035020895823F49F447FFF0CF10923A0290
:102B900080913B028111ECCFE0CF833F19F41416F2
:102BA000ACF3E4CF90913C02893F29F41916F4F676
:102BB00010923C02DBCF8A3F19F497FFD7CFF8CFB2
:102BC00090913D028B3F29F497FFD0CF10923D02A8
:102BD000CDCF8C3F19F41916CCF3C8CF9CE0980FD9
:102BE000953090F4845F990B21E030E0B90102C088
:102BF000660F771F8A95E2F7CB0180959091390295
:102C0000892380933902B2CF8D3F31F4809137020E
:102C10008E7F80933702AACF8E3F21F480913702B6
:102C20008D7FF7CF8F3F09F0A1CF809137028B7F47
:102C3000F0CF08950E94E91E9C0190913A02809184
:102C40003B02982B21F03093340220933302909171
:102C50003C0280913D02982B21F030933202209368
:102C6000310288E392E00C94CB1DEF92FF920F9318
:102C70001F93CF93DF9300D000D000D0CDB7DEB745
:102C800086E0E8E3F2E0DE01119601900D928A956C
:102C9000E1F7E0903A02F0903B0200913C02109183
:102CA0003D0210923A0210923B0210923C021092A6
:102CB0003D028E2D8F2991F0809133029091340244
:102CC0000E94011FAC0190913602992309F43FC084
:102CD000809112018417150608F447C0802F812BBC
:102CE00091F080913102909132020E94011FAC015B
:102CF00090913502992309F477C080910E018417D1
:102D0000150608F47FC080913A0290913B02892B0E
:102D100090913C02892B90913D02892B11F00E94E9
:102D20001A1686E0FE013196A8E3B2E001900D92FA
:102D30008A95E1F726960FB6F894DEBF0FBECDBF99
:102D4000DF91CF911F910F91FF90EF900895209107
:102D500013018AE0289F900111242417350708F0F9
:102D6000BDCF9F5F9093360202C09F3FD1F7EE2008
:102D700059F00E94C4149FEF1E140CF491E0899F37
:102D8000802D112480933A02FF2059F00E94C41430
:102D90009FEF1F140CF491E0899F802D11248093E4
:102DA0003B0230913A02332309F498CF20913B0241
:102DB000222309F493CF45EB3403C0011124992356
:102DC00059F090933A0245EB2403900111243323E8
:102DD00039F030933B0282CF81E080933A02F3CF07
:102DE00081E080933B027ACF20910F018AE0289FF7
:102DF000900111242417350708F085CF9F5F909329
:102E0000350202C09F3FD1F7002359F00E940E15F2
:102E10009FEF10160CF491E0899F802D1124809370
:102E20003C02112359F00E940E159FEF11160CF46D
:102E300091E0899F802D112480933D0230913C02C6
:102E4000332309F460CF20913D02222309F45BCFA4
:102E500045EB3403C0011124992359F090933C02AF
:102E600045EB240390011124332339F030933D02C4
:102E70004ACF81E080933C02F3CF81E080933D0212
:102E800042CF86E0E8E3F2E0DF011D928A95E9F7A0
:102E90001092360210923502109237020895CF93A5
:102EA000DF9300D000D000D0CDB7DEB786E0E8E3F6
:102EB000F2E0DE01119601900D928A95E1F72981E9
:102EC0003A814B815C816D817E8180E090E0269625
:102ED0000FB6F894DEBF0FBECDBFDF91CF9108953E
:102EE000EF92FF920F931F93CF93DF93CDB7DEB78F
:102EF0002C970FB6F894DEBF0FBECDBF49835A831F
:102F00006B837C838D839E83EF82F88609871A8783
:102F10002B873C8746E050E0BE01695F7F4FCE01C2
:102F200001960E94EF2621E0892B09F420E0822FF0
:102F30002C960FB6F894DEBF0FBECDBFDF91CF91B8
:102F40001F910F91FF90EF90089508950895CF93EA
:102F5000DF93CDB7DEB72C970FB6F894DEBF0FBE68
:102F6000CDBF4F83588769877A878B879C8786E098
:102F7000FE013796DE01119601900D928A95E1F7D8
:102F800029813A814B815C816D817E8180E090E076
:102F90002C960FB6F894DEBF0FBECDBFDF91CF9158
:102FA0000895CF93DF93CDB7DEB72C970FB6F89483
:102FB000DEBF0FBECDBF2C960FB6F894DEBF0FBE9E
:102FC000CDBFDF91CF910C94A71721E030E001C075
:102FD000220F4A95EAF7662311F0822B0895209577
:102FE00082230895E0919301F091940109950E9444
:102FF000A5170C94A617EF92FF920F931F93E090E2
:103000003E02F0903F020091400210914102209157
:103010004202309143024091440250914502609136
:1030200046027091470280914802909149020E94A5
:103030007017882321F084E492E00E94CB1D109247
:10304000460210924702109248021092490286E00E
:10305000E4E4F2E0AEE3B2E001900D928A95E1F78C
:103060001F910F91FF90EF900895CF93DF9300D0C1
:1030700000D000D0CDB7DEB7E0919501F091960178
:10308000409144025091450260914602709147027E
:1030900080914802909149020995F42FE52FCB01C8
:1030A0002093440230934502F0934602E093470296
:1030B0006093480290934902A9016F2F7E2F0E94CE
:1030C000D117209344023093450240934602509317
:1030D000470260934802709349020E944F17E4E44C
:1030E000F2E08181832B818326960FB6F894DEBFB0
:1030F0000FBECDBFDF91CF910C94FB17CF93DF9321
:1031000000D000D000D0CDB7DEB786E0E4E4F2E036
:10311000DE01119601900D928A95E1F729813A819D
:103120004B815C816D817E8180E090E026960FB6B8
:10313000F894DEBF0FBECDBFDF91CF910895CF933E
:10314000DF9300D000D000D0CDB7DEB749835A83DB
:103150006B837C838D839E8386E0FE013196A4E49D
:10316000B2E001900D928A95E1F726960FB6F89499
:10317000DEBF0FBECDBFDF91CF91089583E290E017
:103180000E94FC26823289F484E290E00E94FC26B0
:10319000873059F485E290E00E94FC2691E083326A
:1031A00009F090E0892F8170089580E0FCCFCF93E3
:1031B000C82F6FEF811162E283E290E00E940A273C
:1031C0006FEFC11167E084E290E00E940A276FEF81
:1031D000C11163E285E290E0CF910C940A27089533
:1031E00086E290E00E94FC26682F70E090E080E08C
:1031F000089586E290E00C940A2780E00E94D71898
:1032000060E070E0CB010E94F9180E946F1B0E94E1
:103210005B1C81E00C94D7180E94EF180E94BE1826
:10322000811102C00C94FD180895CF93FB01C28157
:10323000CC2309F19C0122513F452031310520F575
:1032400082510E946B1CC0E08C2FCF91089581E0C9
:103250000E94AA0B43E062E081E00E94D105F3CF17
:1032600081E00E94B50B43E062E081E00E94D1055D
:10327000EBCF82E0F6CF8031FFE59F0789F3813104
:103280009F45B9F3C1E0E0CF8031EFE59E07F9F249
:1032900081319F45C9F682E0DBCF2FEFFC0120830F
:1032A0000895EF92FF920F931F93CF93DF93EC015A
:1032B000062FE881E150E33108F05EC0F0E0E65A05
:1032C000F84D0C94E226198289E08A83602FCE01A2
:1032D000DF91CF911F910F91FF90EF900C94C91F38
:1032E0008981823069F0833071F08130D9F40E9495
:1032F000F51E0E94E8266A837B838C839D83E6CF3C
:103300000E94F018F6CF7E0110E0812F0E945F141A
:10331000F701928383831F5FF2E0EF0EF11C1630FA
:10332000A1F7D4CF602FCE010E944D19CFCF898154
:103330008230C1F76A817B818C819D810E94E82661
:103340000E94F918C3CF4B816A8189810E94411B79
:103350009827892798279D838C83B8CF2C813D811E
:103360003227232732274B816A8189810E945A1B89
:10337000ADCF0E946F1BAACF8FEF8883A7CF0E948B
:10338000041C8983A3CF0E94061C982789279827AD
:103390009A8389839BCF6B8170E089819A81AE018A
:1033A0004C5F5F4F9827892798270E94091C8ECF72
:1033B0006B8170E089819A81AE014C5F5F4F9827E5
:1033C000892798270E94301C81CF0E945B1C7ECFEA
:1033D0000E942F1BD6CF6B8170E089819A81AE014C
:1033E0004C5F5F4F9827892798270E94A71B6ECFB5
:1033F0006B8170E089819A81AE014C5F5F4F9827A5
:10340000892798270E94CD1B61CFCF93DF93EC01D2
:10341000FB018281882309F420C1C330FDE5DF0769
:10342000C8F5CA3F9CE5D90730F49E0122503C45BF
:103430002431310598F50E946B1090937A028093A5
:103440007902C031FCE5DF0709F4E0C008F061C093
:10345000C8309CE5D90709F4CBC088F5C430FCE539
:10346000DF0709F4B3C0E8F4C2309CE5D90709F4DA
:10347000A7C0809179028260C330DC4509F4A3C003
:103480008091790290917A020E9479100E94310B0A
:1034900080E004C0C136EDE5DE0769F2DF91CF912F
:1034A0000895809179028061C630FCE5DF0709F458
:1034B0008AC008F48FC080917902806284C08091B4
:1034C00079028D7FCC309CE5D90709F47CC070F47B
:1034D000809179028C60CA30FCE5DF0709F473C083
:1034E00008F48AC0809179028E7F6DC08091790244
:1034F000877FCE309CE5D90709F465C080917902B9
:103500008B7FCF30DC4508F45EC0809179028F7EDE
:103510005AC0CC3FFCE5DF0709F474C040F5C43164
:103520009CE5D90709F48AC058F4C231FCE5DF07ED
:1035300009F474C008F46EC080917902837F43C09F
:10354000CA3F9CE5D90709F449C008F04DC0C53110
:10355000DC4509F095CF8091790282FB992790F99B
:1035600021E0922790FB82F990FB83F92CC0C115D2
:103570008DE5D80709F458C088F480917A028360F9
:10358000CE3FECE5DE0769F180917A028D7FCF3F77
:10359000DC4538F180917A028C7F23C0C2308DE502
:1035A000D80709F458C008F452C0C136DD4509F007
:1035B00067CF90917902892F8F7E94FF806103C03D
:1035C000809179028160809379025ACF809179024B
:1035D0008460F9CF809179028860F5CF80917A027A
:1035E000816080937A024CCF80917A028260F9CF19
:1035F000809179028064E7CF0E94310B809179023B
:103600008068E1CF80917A028E7FEBCF8091790242
:103610008F7DD9CF809179028F7BD5CF0E94310BDE
:10362000809179028F77CFCF80917A02982F9095F1
:1036300091708E7F892B90FB81F9D3CF0E94310B43
:1036400090917902892F97FB87F98058BCCF81E050
:103650000E94FE1015CF80E0FBCF81E01FCF84E0F9
:10366000089550E0440F551F94E1699F400D511D8E
:10367000112498E7899F400D511D1124CA01879696
:1036800008950F931F93CF93DF930E94311B8C01FA
:103690000E94FC26C82FD0E0DC2FCC27C801019661
:1036A0000E94FC269E01282BC901DF91CF911F911A
:1036B0000F9108950F931F93CF93DF93122F032F32
:1036C0000E94311BEC01602F0E940A27612FCE015E
:1036D0000196DF91CF911F910F910C940A27AF9221
:1036E000BF92CF92DF92EF92FF921F93CF93DF931F
:1036F0008CEAC82E80E0D82ED0E07601C0E014C05D
:10370000F50125913491412F6C2F8D2F0E945A1B6A
:1037100082E0A80EB11C1F5F1A3091F784E1E80E19
:10372000F11CCF5FC63019F0570110E0E9CFDF5F21
:1037300088E7C80ED11CD43001F7DF91CF911F91DB
:10374000FF90EF90DF90CF90BF90AF900895EF92F1
:10375000FF920F931F93CF93DF93EC018A017C01BB
:10376000E60EF71ECE018796CE15DF0539F4DF9100
:10377000CF911F910F91FF90EF900895C03E21E0EF
:10378000D20740F40E94FC26F80180830F5F1F4F90
:103790002196E8CFF8011082F9CFCF92DF92EF9215
:1037A000FF920F931F93CF93DF937C016A018C01EB
:1037B000060F171FEC01CE018796C017D10749F4F9
:1037C000DF91CF911F910F91FF90EF90DF90CF90FD
:1037D0000895C03E21E0D20740F4FE01EE19FF0932
:1037E000EC0DFD1D60810E940A272196E4CF462F33
:1037F000843038F4763028F46A3018F4672F0C944B
:10380000411B90E080E0089580E1089589EF91E008
:103810000895EF92FF920F931F93CF93DF93EC01E4
:103820008A017C01E60EF71ECE01895F9D4FCE1501
:10383000DF0539F4DF91CF911F910F91FF90EF9049
:103840000895C93F21E0D20740F40E94FC26F80108
:1038500080830F5F1F4F2196E7CFF8011082F9CFC9
:10386000CF92DF92EF92FF920F931F93CF93DF934C
:103870007C016A018C01060F171FEC01CE01895FE4
:103880009D4FC017D10749F4DF91CF911F910F9140
:10389000FF90EF90DF90CF900895C93F21E0D207CD
:1038A00040F4FE01EE19FF09EC0DFD1D60810E9440
:1038B0000A272196E3CFCF93DF93C7E0D2E060E001
:1038C000CE010E940A272196C11584E0D807B9F7D6
:1038D000DF91CF910895DF92EF92FF920F931F93A4
:1038E000CF93DF9300D000D0CDB7DEB7F82E8FE0B6
:1038F0008F1540F08FEF93E00E94FC2607E012E066
:103900008823C1F00F900F900F900F90DF91CF910F
:103910001F910F91FF90EF90DF900895011584E0C3
:10392000180781F3C8010E94FC26811101C0FA9496
:103930000F5F1F4FF110F2CF19821A821B821C8277
:10394000DD24D39478018FEFE81AF80AC8010E94A9
:10395000FC2689831A828823A9F29FEF980F93305F
:1039600078F48A83D9820E5F1F4FC7010E94FC261C
:103970008B83882339F2CE0101960E942607E2CF7D
:103980008701F9CFCF93DF93EB0186319C4511F589
:103990000E947E0F9A81992399F08A7A91E009F426
:1039A00090E090934A02811109C089E20E94590F68
:1039B0000E94C10F80E0DF91CF91089585E3F6CF9B
:1039C00080914A02811104C089E20E94600FF0CF09
:1039D00085E3FBCF81E0EFCF0F931F93CF93DF936E
:1039E000C42FD22FFC0182818823C9F040934D025D
:1039F0000E94E91E90934C0280934B0280E28C0F50
:103A0000883008F050C0C77081E001C0880FCA95A7
:103A1000EAF7DF91CF911F910F910C94AD081091AF
:103A20004D02141335C080914B0290914C020E94BC
:103A3000011F883C910560F5C0E2CD0F1D17B9F05C
:103A400080E2810F883040F4177081E001C0880F58
:103A50001A95EAF70E94B408C83048F481E09D2F17
:103A6000977001C0880F9A95EAF70E94AD08802FE1
:103A70000E94A508C830B8F4D77081E001C0880F53
:103A8000DA95EAF7DF91CF911F910F910C94B4086A
:103A900080E28C0F883038F4C77081E001C0880F55
:103AA000CA95EAF7EFCFDF91CF911F910F9108955B
:103AB0000F939C01CB01233F4CE5340759F1A8F447
:103AC000283DFCE53F0701F1293D4CE53407D1F1E4
:103AD000273D3C4591F406E221EE41EE67ED7CE5A1
:103AE0000E94EC1C80E00F910895253FFCE53F0704
:103AF000E9F0B0F0263F3C45F9F0FC0182818823D3
:103B000039F110924D02EFCF07E225EE45EE68ED58
:103B10007CE5E6CF06E221EE40EE63EF7CE5E0CF08
:103B200007E225EE44EE64EF7CE5DACF06E221EE13
:103B300042EE65EF7CE5D4CF07E225EE46EE66EF78
:103B40007CE5CECF08E221E045EE69ED7CE5C8CF0B
:103B500081E0C9CF9093AB018093AA01089590931F
:103B60005302809352020895E0915202F091530261
:103B7000309721F00190F081E02D099480E00895C4
:103B8000E0915202F0915302309721F00280F381CC
:103B9000E02D09940895E0915202F091530230977C
:103BA00039F022E0DC012C930480F581E02D0994AA
:103BB000089520915002309151022817390771F071
:103BC0009093510280935002E0915202F09153027F
:103BD000309721F00680F781E02D09940895209117
:103BE0004E0230914F022817390771F090934F021F
:103BF00080934E02E0915202F0915302309721F0EF
:103C00000084F185E02D099408959C012E5F3F4FBB
:103C1000AC01485F5F4F80E02417350709F4089531
:103C2000F90191919F019923B9F38F5FF5CF662335
:103C300049F0FC01329608962191261729F0E817E1
:103C4000F907D1F780E0089581E008959C01FC0117
:103C500032969FEF80E04191461751F09F3F19F453
:103C6000411101C0982F8F5F8630A9F79F3F09F45B
:103C70000895290F311D97FD3A95F9016283089542
:103C8000FC01329608962191261303C0DF0111979B
:103C90001C92E817F907B9F708950C94261E0C94A6
:103CA000401E029626E0FC0111922A95E9F708953C
:103CB00008950C94581E811105C081E08093540230
:103CC0000C94591E82E0FACF83E0809354020C9446
:103CD000591E0C945B1E81E0809354020C94591E73
:103CE0000C946B1E089580919B02843031F10E94E8
:103CF000E2051092550288E190E020E40FB6F894B6
:103D0000A895809360000FBE2093600083B7817FE9
:103D1000846083BF83B7816083BF7894889583B7BD
:103D20008E7F83BF0FB6F894A8958091600088615C
:103D300080936000109260000FBE0895089508956A
:103D4000CF930E949E1E0E940E050E949F1EC0E0FF
:103D50008C2F0E945F14892B31F4CF5FC630C1F7DE
:103D600080E0CF91089581E0FCCF0E94310B0C944C
:103D700052061F921FB61F9211248F939F93AF93E9
:103D8000BF9380915502811113C08091930290914D
:103D90009402A0919502B09196024196A11DB11D89
:103DA0008093930290939402A0939502B09396020D
:103DB000BF91AF919F918F911F901FBE1F9018953B
:103DC00082E084BD93E095BD9AEF97BD80936E002D
:103DD00008952FB7F8948091930290919402A09146
:103DE0009502B09196022FBF08952FB7F894609175
:103DF00093027091940280919502909196022FBF48
:103E000008959C014FB7F894809193029091940289
:103E1000A0919502B09196024FBF821B930B08951B
:103E200078941F921FB61F9211248F939F93AF9384
:103E3000BF938091930290919402A0919502B091CA
:103E400096020196A11DB11D809393029093940256
:103E5000A0939502B0939602BF91AF919F918F91DD
:103E60001F901FBE1F90189587E797E79093010852
:103E70008093000888E19AE00FB6F894A8958093A3
:103E800060000FBE90936000FFCF809161020895A3
:103E900008959C0184E08093E9009FEF8091E80001
:103EA000915085FD06C085ED8A95F1F700009111CE
:103EB000F5CF8091E80085FF0CC050E040E066E05F
:103EC00070E0C9010E94DA218091E8008E7780932A
:103ED000E8000895CF93DF93EC0181E08093E9003F
:103EE0008FEF9091E800815095FD06C095ED9A9571
:103EF000F1F700008111F5CF8091E80085FF14C033
:103F000050E040E068E070E0CE010E94DA2180914C
:103F1000E8008E778093E80088E0FE01A9E5B2E032
:103F200001900D928A95E1F7DF91CF9108958093EA
:103F30005602709358026093570280919B0284301E
:103F4000F9F48093E9008FEF9091E800815095FD9E
:103F500006C095ED9A95F1F700008111F5CF80919B
:103F6000E80085FF0DC050E040E063E070E086E5CA
:103F700092E00E94DA218091E8008E778093E80039
:103F80000895BC0184E00C94971FBC0183E00C945D
:103F9000971FCF93FC01603221F580919B02843002
:103FA00001F5C091E900CF702091EC00922F917043
:103FB00020FD90E8C92B82E08093E9008091E80021
:103FC00080FF0CC050E040E060E270E0CF010E9452
:103FD000DA218091E8008E778093E800CF70C0935B
:103FE000E900CF91089580919A02811109C00E9441
:103FF000B9230E9416248091E20084608093E2003D
:10400000089510929A0208950C946B1E6091970285
:1040100081E0611101C080E00C94641E90919B02CC
:1040200081E0943009F080E0609197020C94691E61
:1040300042E061EC81E00E94352342E261EC84E0E1
:104040000E94352342E261EC82E00E94352342E285
:1040500060EC83E00E94352390919B0281E09430D4
:1040600009F080E0609197020C945B1E80919D02A4
:10407000833009F462C030F48130D9F1823009F420
:104080009EC008958A3009F48AC08B3009F470C04C
:10409000893009F051C080919C02813209F04CC0F6
:1040A0008091A0029091A102009719F0029709F067
:1040B00043C08091E800877F8093E8008091E8000A
:1040C00082FF36C09091F3008091F200029731F4A4
:1040D0008091F100813011F0863021F48091F1005F
:1040E000809361028091E8008B778093E8000C94C4
:1040F000692380919C02813AF9F48091E800877FDE
:104100008093E8008091A0029091A102892B61F434
:1041100068E089E592E070E00E9478228091E800F2
:104120008B778093E800089560E090E080E0F3CF23
:1041300080919B028111C2CF089580919C02813AA7
:10414000D9F78091A0029091A102892BA9F78091C3
:10415000E800877F8093E8008091E80080FFFCCF33
:10416000809120018093F1008091E8008E77BDCF8F
:1041700080919C02813201F78091A0029091A1026E
:10418000892BD1F68091E800877F8093E8000E9418
:10419000692380919E02809320010C94310B8091C1
:1041A0009C02813249F68091E800877F8093E80085
:1041B0000E94692380919F028093620208958091FA
:1041C0009C02813A09F0B8CF8091E800877F809304
:1041D000E8008091E80080FFFCCF80916202C2CFAE
:1041E00084B7877F84BF0FB6F894A895809160004C
:1041F000886180936000109260000FBE80E890E0BC
:104200000FB6F89480936100909361000FBE0C94F8
:10421000701E0E94B9230E941624E2EEF0E0808115
:104220008460808378940C949F2684E191E00C94C0
:10423000AF1D80919B028530A9F480919B0285304F
:1042400011F00C94B51E0E94731E80919902882370
:10425000A1F30E94A01E882381F30E94C4210E9422
:10426000310BEBCF0895CF93DF93CDB7DEB7A09797
:104270000FB6F894DEBF0FBECDBF80919B02843095
:1042800009F583E08093E9008091E80082FF1AC07D
:104290008091E80090E085FF09C050E040E060E2D6
:1042A00070E0CE0101960E94292291E08091E80001
:1042B0008B778093E800992329F060E2CE01019684
:1042C0000E945119A0960FB6F894DEBF0FBECDBF65
:1042D000DF91CF9108950C946D21292F332723303E
:1042E000310521F168F42130310509F443C0223051
:1042F000310509F444C090E080E030E020E026C0C1
:104300002132310551F122323105A9F763307105AF
:1043100090F7FB01EE0FFF1FE256FE4F2081318127
:1043200065567E4FFB01808190E010C09927813057
:10433000910581F0009729F00297E9F6ECE3F3E0AC
:1043400002C0E0E6F3E0849190E09F01FA0131833E
:1043500020830895E2E5F3E0F6CF6330710558F667
:10436000660F771FFB01EC55FE4F2081318189E0FC
:1043700090E0ECCF82E190E02FEB33E0E7CF8BE5EC
:1043800090E024E633E0E2CF80E189BD82E189BD9F
:1043900009B400FEFDCF8091D8008F7D8093D800B6
:1043A0008091E00082608093E0008091E00081FDD8
:1043B000FCCF0895AF92BF92CF92DF92FF920F93FE
:1043C0001F93CF93DF936C01EB018A010E94882336
:1043D000F82E811123C00115110539F0F8018081F3
:1043E0009181C81BD90BC80ED91EB12CA12C2097C6
:1043F000A9F08091E80085FD22C08091E8008E77C9
:104400008093E80001151105A1F0F80180819181E8
:10441000A80EB91EB182A08285E0F82E8F2DDF9103
:10442000CF911F910F91FF90DF90CF90BF90AF90F1
:1044300008950E9488238823D1F2F82EEFCFF60149
:1044400081916F018093F1002197FFEFAF1ABF0AAE
:10445000CECFAF92BF92CF92DF92FF920F931F9376
:10446000CF93DF936C01EB018A010E948823F82E21
:10447000811123C00115110539F0F8018081918166
:10448000C81BD90BC80ED91EB12CA12C2097A9F09E
:104490008091E80085FD22C08091E8008B778093B1
:1044A000E80001151105A1F0F80180819181A80EA5
:1044B000B91EB182A08285E0F82E8F2DDF91CF91B9
:1044C0001F910F91FF90DF90CF90BF90AF90089514
:1044D0000E9488238823D1F2F82EEFCF8091F1003B
:1044E000F60181936F012197FFEFAF1ABF0ACECF7C
:1044F000FC018091A2029091A30286179707A0F079
:104500006115710529F49091E8009E779093E80079
:1045100090E06115710551F4911108C08091E80097
:1045200082FF34C080E00895BC01F2CF80919B02ED
:104530008823C1F18530C1F18091E80083FD30C04E
:104540008091E80082FDEACF8091E80080FFE1CF12
:104550008091F3002091F200382F6115710519F058
:104560002830310558F091E02830310509F090E00D
:104570002091E8002E772093E800CBCF81918093A3
:10458000F100615071092F5F3F4FE7CF80919B028F
:10459000882341F0853041F08091E80083FFBECF51
:1045A00081E0089582E0089583E00895FC01809100
:1045B000A2029091A30286179707A0F061157105DA
:1045C00029F48091E8008E778093E80090E06115EF
:1045D000710551F4911108C08091E80082FF35C047
:1045E00080E00895BC01F2CF80919B028823C9F13D
:1045F0008530C9F18091E80083FD31C08091E800E9
:1046000082FDEACF8091E80080FFE1CF8091F30046
:104610002091F200382F6115710519F0283031050D
:1046200058F091E02830310509F090E08091E800E1
:104630008E778093E800CBCF84918093F100319600
:10464000615071092F5F3F4FE6CF80919B02882315
:1046500041F0853041F08091E80083FFBDCF81E0DB
:10466000089582E0089583E00895982F973028F008
:104670008F708093E90081E008959093E900242FE2
:10468000762F50E0981731F07091EC002091ED00FA
:104690005091F00021FD02C09F5FE8CF3091EB0008
:1046A0003E7F3093EB003091ED003D7F3093ED0085
:1046B0003091EB0031603093EB007093EC0020936D
:1046C000ED005093F0002091EE0027FDE5CF80E053
:1046D000089580919C0287FF13C08091E80082FFBB
:1046E00006C08091E8008B778093E80004C0809139
:1046F0009B028111F2CF089580919B028823D9F308
:104700008091E80080FFF8CF8091E8008E77ECCFB1
:104710002091E4003091E50095E6A9012091EC009C
:10472000822F817020FF06C08091E80080FF06C0C4
:1047300080E008952091E80022FD1AC080919B023C
:10474000882389F0853089F08091EB0085FD0FC0CA
:104750002091E4003091E50042175307F9F291509F
:10476000E1F684E0089582E0089583E0089581E011
:1047700008950E9427240E942F24E0EEF0E080811B
:1047800081608083E8EDF0E080818F77808319BCC1
:10479000A7EDB0E08C918E7F8C9380818F7E80839B
:1047A00010929A0208950F931F93CF93DF930E9464
:1047B00027240E942F24C8EDD0E088818F7788833A
:1047C00088818068888388818F7D888319BC109256
:1047D0009B0210929702109299021092980200EE9A
:1047E00010E0F80180818B7F8083888181608883DD
:1047F00042E060E080E00E943523E1EEF0E080815D
:104800008E7F8083E2EEF0E0808181608083808112
:1048100088608083F80180818E7F808388818061B9
:104820008883DF91CF911F910F910895E8EDF0E01B
:1048300080818F7E8083E7EDF0E0808181608083DE
:1048400084E082BF81E080939A020C94D323E8ED48
:10485000F0E080818E7F80831092E20008951092B4
:10486000DA001092E10008951F920F920FB60F9296
:1048700011242F933F934F935F936F937F938F9365
:104880009F93AF93BF93EF93FF938091E10082FFDB
:104890000BC08091E20082FF07C08091E1008B7F16
:1048A0008093E1000E949E268091DA0080FF19C06B
:1048B0008091D80080FF15C08091DA008E7F8093B0
:1048C000DA008091D90080FF96C080E189BD82E145
:1048D00089BD09B400FEFDCF81E080939B020E9458
:1048E000F31F8091E10080FF19C08091E20080FFFA
:1048F00015C08091E2008E7F8093E2008091E200FB
:1049000080618093E2008091D80080628093D8001B
:1049100019BC85E080939B020E9406208091E100F3
:1049200084FF2BC08091E20084FF27C080E189BD15
:1049300082E189BD89B5982F917080FFFBCF80916E
:10494000D8008F7D8093D8008091E1008F7E809386
:10495000E1008091E2008F7E8093E2008091E2008E
:1049600081608093E20080919702882309F449C016
:1049700084E080939B020E940E208091E10083FFDF
:1049800029C08091E20083FF25C08091E100877FEC
:104990008093E10082E080939B02109297028091C5
:1049A000E1008E7F8093E1008091E2008E7F809312
:1049B000E2008091E20080618093E20042E060E0EA
:1049C00080E00E9435238091F00088608093F000A1
:1049D0000E940420FF91EF91BF91AF919F918F9121
:1049E0007F916F915F914F913F912F910F900FBEEB
:1049F0000F901F90189519BC10929B020E940120E5
:104A000070CF8091E30087FD93E090939B02B3CF3A
:104A10001F920F920FB60F9211242F933F934F9333
:104A20005F936F937F938F939F93AF93BF93CF9336
:104A3000DF93EF93FF93D091E900DF708091EC005A
:104A4000C82FC17080FDC0E81092E9008091F0008D
:104A5000877F8093F00078940E944C251092E900A3
:104A60008091F00088608093F000CD2BCF70C093D0
:104A7000E900FF91EF91DF91CF91BF91AF919F91AD
:104A80008F917F916F915F914F913F912F910F90F7
:104A90000FBE0F901F9018951F93CF93DF93CDB744
:104AA000DEB7AA970FB6F894DEBF0FBECDBF8CE974
:104AB00092E02091F100FC012193CF01F2E0843AD1
:104AC0009F07B9F70E9436208091E80083FF1EC13E
:104AD00080919C0290919D029A3008F017C1E92FB5
:104AE000F0E0E359F84D0C94E226803899F08238D2
:104AF00009F00CC18091A0028F70873008F006C1C8
:104B00008093E9008091EB0085FB882780F9109263
:104B1000E90006C0809198029091990291118260FB
:104B20009091E800977F9093E8008093F1001092B5
:104B3000F1008091E8008E77E5C0882309F4D3C0A6
:104B4000823009F0E3C080919E028111D6C080912D
:104B5000A0028F702FEF280F263008F0D7C0809367
:104B6000E9002091EB0020FFC8C0933031F4809120
:104B7000EB0080628093EB00C0C09091EB009061ED
:104B80009093EB0021E030E001C0220F8A95EAF714
:104B90002093EA001092EA008091EB008860EACF4F
:104BA0008111B4C010919E021F778091E30080783C
:104BB000812B8093E3008091E800877F8093E80059
:104BC0000E9469238091E80080FFFCCF8091E30080
:104BD00080688093E30082E0111183E080939B0260
:104BE00095C08058823008F091C080919E029091CB
:104BF0009F028C3D23E09207A1F583E08A838AE23D
:104C000089834FB7F894DE01139620E03EE051E22D
:104C1000E32FF0E050935700E49120FF03C0E295AA
:104C2000EF703F5FEF708E2F90E0EA30C0F0C796D4
:104C30008D939D932F5F243159F74FBF8091E800EA
:104C4000877F8093E8006AE270E0CE0101960E94BF
:104C500078228091E8008B778093E80057C0C09657
:104C6000E7CF6091A0027091A102AE014F5F5F4F4C
:104C70000E946B21BC01892B09F448C09091E80087
:104C8000977F9093E80089819A810E94D622E1CF94
:104C90008038E1F58091E800877F8093E80080917B
:104CA00097028093F10045CF811130C090919E0210
:104CB000923060F58091E800877F8093E8009093C0
:104CC00097020E94692380919702882311F084E063
:104CD00005C08091E30087FDFACF81E080939B02BD
:104CE0000E94182013C080919E02813079F481E0E7
:104CF000933009F080E0809399021092E90080914E
:104D0000E800877F8093E8000E9469238091E80093
:104D100083FF0AC08091E800877F8093E80080913C
:104D2000EB0080628093EB00AA960FB6F894DEBF8A
:104D30000FBECDBFDF91CF911F9108950895CF93FE
:104D400080919B028823A1F0C091E900CF709091DF
:104D5000EC00892F817090FD80E8C82B1092E9004B
:104D60008091E80083FD0E944C25CF70C093E9003C
:104D7000CF910895AA1BBB1B51E107C0AA1FBB1FFF
:104D8000A617B70710F0A61BB70B881F991F5A95D7
:104D9000A9F780959095BC01CD01089597FB072E4A
:104DA00016F4009407D077FD09D00E94BA2607FCBC
:104DB00005D03EF4909581959F4F0895709561952B
:104DC0007F4F0895EE0FFF1F0590F491E02D099499
:104DD0006927962769277827872778270895FB0171
:104DE000DC0104C08D910190801921F441505040A4
:104DF000C8F7881B990B0895F999FECF92BD81BD24
:104E0000F89A992780B50895A8E1B0E042E050E013
:104E10000C943027262FF999FECF92BD81BDF89AC8
:104E2000019700B4021639F01FBA20BD0FB6F894EE
:104E3000FA9AF99A0FBE08950396272F0E940B271E
:104E40000E940A27252F0E940B27242F0C940B2742
:104E50000196272F0E940B270C940A27DC01CB0117
:104E6000FC01F999FECF06C0F2BDE1BDF89A31967A
:104E700000B40D9241505040B8F70895F894FFCF18
:104E8000F908F9082A092A09BE09DA09590959094C
:104E9000F5095C0A6B0A6B0A400B400B490B490B86
:104EA0004B0B490B490B490B400B400B500B490B6B
:104EB000490B500B631970199719A319AE19B91939
:104EC000BC19BC19BC19BC19BC19BF19C319CB1921
:104ED000D819E519E819EB19F81975259D258626C5
:0E4EE0009D258626D025F125862648265426B7
:104EEE009400660091009000C80001022808641E1C
:104EFE00140A321E451F6A1F491FC51FC11F481FB6
:104F0E000131F7F6F5F40000000000333236353487
:104F1E00C6E200E900EA00B500B600B700CD008396
:104F2E0001CC008A01920194012102230224022560
:104F3E0002260227022A02B300B4006F007000811D
:104F4E008283E200E900EA00B500B600B700CD00AA
:104F5E008301CC008A0192019401210223022402D2
:104F6E002502260227022A02B300B4006F00700049
:104F7E0081828326036103B603B10340227B6E0454
:0A4F8E00D103F30376038F03AF0392
:00000001FF
