:100000000C9457020C949E020C949E020C949E0237
:100010000C949E020C949E020C949E020C949E02E0
:100020000C949E020C949E020C945E210C9432223D
:100030000C94E31B0C949E020C949E020C949E0262
:100040000C949E020C949E020C949E020C949E02B0
:100050000C949E020C943A1C0C949E020C949E02EA
:100060000C949E020C949E020C949E020C949E0290
:100070000C949E020C949E020C949E020C949E0280
:100080000C949E020C949E020C949E020C949E0270
:100090000C949E020C949E020C949E020C949E0260
:1000A0000C949E020C949E020C949E022900220045
:1000B000270008000C0004000B002800190037007E
:1000C0001E0023002A001500120016000D00E1009A
:1000D000050038001F0024002B0017001300070044
:1000E0000E001D001100E5002000250014001C007A
:1000F000280009000F001B001000E000210026006E
:100100001A00180039000A00330006003600E30028
:100110003500E2002C002C00000000000000000070
:1001200000000000010001000100010001000100C9
:1001300001000100010001000100010001000100B7
:1001400001000100010001000100010001000100A7
:100150000100010001000100010001000100010097
:100160000100010001000100010001000100010087
:100170000100010001000100010001000100010077
:100180000100010001000100010001000100010067
:10019000000000000000000000000000010001005D
:1001A0000100010001000100010001000100010047
:1001B0000100010001000100010001000100010037
:1001C0000100010001000100010001000100010027
:1001D0000100010001000100010001000100010017
:1001E0000100010001000100010001000100010007
:1001F00001000100010001000100010001000100F7
:1002000001000100010001000000000000000000EA
:1002100000000000010001000100010001000100D8
:1002200001000100010001000100010001000100C6
:1002300001000100010001000100010001000100B6
:1002400001000100010001000100010001000100A6
:100250000100010001000100010001000100010096
:100260000100010001000100010001000100010086
:100270000100010001000100010001000100010076
:10028000000000000000000000000000000000006E
:10029000000000002A2B28000000000000000000E1
:1002A0000000000000000029000000002C1E342087
:1002B000212224342627252E362D3738271E1F20AD
:1002C0002122232425263333362E37381F040506F2
:1002D0000708090A0B0C0D0E0F1011121314151636
:1002E0001718191A1B1C1D2F3130232D3504050634
:1002F0000708090A0B0C0D0E0F1011121314151616
:100300001718191A1B1C1D2F3130354C0000000026
:1003100000000000000000000000000000000000DD
:1003200000000000000000000000000000000000CD
:100330007E0F00D4FFFFFFC70000007814036D009C
:100340006900630072006F006F006F006F006E0045
:1003500000000C034E00790061007200750000007F
:100360000403090409025B00030100A0FA09040068
:1003700000010301010009211101000122400007D1
:1003800005810308000A09040100020300000009B6
:10039000211101000122220007058203200001072C
:1003A0000503032000010904020001030000000905
:1003B0002111010001227B000705840320000A129D
:1003C00001000200000008594E56520100010200CF
:1003D000010660FF0961A1010962150026FF009571
:1003E00020750881020963150026FF009520750815
:1003F0009102C005010902A10185020901A10005C0
:1004000009190129081500250195087501810205C2
:1004100001093009311581257F950275088106098A
:10042000381581257F950175088106050C0A38026B
:100430001581257F950175088106C0C005010980D9
:10044000A101850319012AB700150126B7009501FE
:1004500075108100C0050C0901A101850419012A4C
:10046000A002150126A002950175108100C00501AA
:100470000906A101050719E029E7150025019508DE
:10048000750181029501750881010507190029FF91
:10049000150026FF00950675088100050819012939
:1004A00005950575019102950175039101C011240F
:1004B0001FBECFEFDAE0DEBFCDBF04B603FE27C01C
:1004C0008091720290917302A0917402B0917502B2
:1004D0008730904BA740B04BD1F41092720210922B
:1004E0007302109274021092750214BE84B7877F53
:1004F00084BF0FB6F894A8958091600088618093BE
:100500006000109260000FBEE0E0F8E3099511E092
:10051000A0E0B1E0E2E4F9E402C005900D92AA394E
:10052000B107D9F722E0AAE9B1E001C01D92A237D4
:10053000B207E1F70E9450130C9468240C94000059
:10054000F894E82FE295EF70F0E031A1282F2F709A
:1005500081E090E001C0880F2A95EAF7382B31A39B
:1005600092A18095892382A378940895F894E82F26
:10057000E295EF70F0E031A1282F2F7081E090E03C
:1005800001C0880F2A95EAF7982F9095932391A39D
:1005900092A1892B82A378940895CF92DF92EF9253
:1005A000FF920F931F93CF93DF937C01C62E062FEC
:1005B00010E0F801ED5DFE4FD0808FEFD816F1F11D
:1005C0008D2D0E94A0020E940613E9E1F1E030E0C7
:1005D00020E0D0E0C0E041E050E061916F3FB9F130
:1005E000A62FA295AF70B0E090968C9190E06F70BE
:1005F00002C0959587956A95E2F780FD28C0CA01EB
:10060000022E02C0880F991F0A94E2F7C82BD92B3B
:100610002F5F3F4F2530310501F78D2D0E94B60227
:1006200061E0209709F460E08C2D0E940813000F10
:10063000111F0E0D1F1DF801D183C083DF91CF91D3
:100640001F910F91FF90EF90DF90CF90089590E071
:1006500080E0DCCF8F929F92BF92CF92DF92EF9299
:10066000FF920F931F93CF93DF93B82E092F162F6E
:10067000E62EF12CC701875E9E4F4C01EC0188816C
:100680008F3F09F451C00E94A0020E940613D5E0DA
:10069000ED0EF11C61E070E002C0660F771FEA9476
:1006A000E2F76B01C094D094A3E2B1E0EB2DF02F00
:1006B00089E2E82E81E0F82E00E04D918081918161
:1006C0004F3F69F1242F22952F7030E0E90128A1D6
:1006D00030E04F7002C0359527954A95E2F720FD2E
:1006E0001EC0862B972B9183808301E03296EA16F9
:1006F000FB0619F7F40180818F3F11F00E94B602CA
:10070000602F812FDF91CF911F910F91FF90EF907C
:10071000DF90CF90BF909F908F900C9408138C2106
:100720009D2191838083E2CFDF91CF911F910F9123
:10073000FF90EF90DF90CF90BF909F908F900895A3
:10074000EF92FF920F931F93CF93DF93C3E2D1E019
:100750008E01F80181918F018F3F11F00E94B60246
:10076000F1E009321F07A9F709E111E07801F7016B
:1007700081917F018F3F11F00E94B602FEE1EF16DA
:10078000F1E0FF06A1F7F80181918F018F3F11F091
:100790000E94B602F1E00E311F07A9F789918F3F41
:1007A00011F00E94B60281E0C932D807B9F7DF9193
:1007B000CF911F910F91FF90EF9008950E94A00399
:1007C0008CE0E5E5F2E0DF01982F1D929A95E9F7BC
:1007D000E9E4F2E0DF011D928A95E9F786E00E94E4
:1007E0000A130C94BF04FF920F931F93CF93DF93D0
:1007F000CDB7DEB72C970FB6F894DEBF0FBECDBFD6
:100800008E010F5F1F4F8CE0F80111928A95E9F776
:10081000F12C6F2DC8010E94CD02F394F6E0FF1277
:10082000F8CFF12C6F2DC8010E942A03F39485E0C4
:10083000F812F8CF4CE050E0B80189E492E00E9451
:100840001924FF24F394009709F4F12C892B41F02B
:100850008CE0F801A9E4B2E001900D928A95E1F7ED
:100860002F2D46E065E572E089E492E00E940B13CB
:100870000E94C5048F2D2C960FB6F894DEBF0FBED4
:10088000CDBFDF91CF911F910F91FF90089581E02F
:10089000089581E008950C94490408950C944D0442
:1008A0001F93CF93DF9300D000D00F92CDB7DEB768
:1008B00049835A836B8330919C0189819A813111DC
:1008C0001DC06623B9F02223A9F00E94CD0A182F7B
:1008D000682F89819A810E94790A69817A81812FA2
:1008E0000F900F900F900F900F90DF91CF911F916D
:1008F0000C9421190E94A50A182FEFCF0E94CD0A4F
:1009000069817A81EDCFFC01262F4081518162817E
:10091000738184810C94500481E00895CF93DF9318
:10092000EC0160E00E948304BE01DF91CF910C9442
:100930004E04E1E0F0E0DF0102C0AA0FBB1F6A95A0
:10094000E2F7BD01DF0102C0AA0FBB1F4A95E2F723
:100950006A2B01C0EE0F2A95EAF7962F982396137B
:1009600002C08E2B0895E0958E230895242F462FE4
:10097000682F8091B5010E9499040C94360A0E9458
:10098000D8120E9413060C94F3120C94F61280E015
:100990000C941406089508950E94CE090E94CB0479
:1009A0002FEF84E39CE0215080409040E1F700C0AD
:1009B00000000C945E1C0F931F93CF93DF938C0168
:1009C00061E00E948304EC01B8010E943F16882375
:1009D000D9F1B801CE010E944B048823A9F1B801D6
:1009E000CE010E94821A882379F1B801CE010E94BB
:1009F0002F17882349F1B801CE010E94EC198823F2
:100A000019F1F8018281882361F0CA35FDE5DF071D
:100A100021F170F4C115ECE5DE07A1F0CE3DDC4517
:100A2000C9F0C801DF91CF911F910F910C94470439
:100A3000CB358DE5D807A1F0CC35DD4591F70E9487
:100A4000E00EEFCF0E94CC0480E0DF91CF911F91A8
:100A50000F9108950E94990FF7CF0E94E90EE1CF00
:100A60000E94EC0EDECF0C94CA040E94DE1A0E9493
:100A700014060C943305DF92EF92FF920F931F93AD
:100A8000CF93DF93E82FF0E0E457FD4FD490282F69
:100A900026952695269530E0F901E45DFC4F0491FA
:100AA000877010E0082E02C0159507950A94E2F7AA
:100AB00001701127F901E45EFC4FE490F12C082E3F
:100AC00002C0F594E7940A94E2F791E0E922FF244A
:100AD000F901E45FFC4FC491D0E002C0D595C79501
:100AE0008A95E2F7C170DD270115110519F081EE35
:100AF0000E945F06E114F10419F086EE0E945F0681
:100B00008D2D0E945E07EF2819F086EE0E94F106F7
:100B1000012B19F081EE0E94F106CD2B51F08CE2F1
:100B2000DF91CF911F910F91FF90EF90DF900C9488
:100B30005E07DF91CF911F910F91FF90EF90DF90B3
:100B40000895EF92FF920F931F93CF93DF93EC01E1
:100B5000162F0AE08881882309F454C0813009F0F7
:100B60004EC08981813099F47E0122E0E20EF11CB1
:100B70008A810E945E07E7012196812F815050F300
:100B8000EFE9FFE03197F1F700C00000F7CF8230C6
:100B900041F47E0182E0E80EF11C8A810E945F062A
:100BA000EACF833041F47E01E2E0EE0EF11C8A814F
:100BB0000E94F106E0CF843011F02196DDCF2A812A
:100BC000229690E080E0AE014F5F5F4F2053330BE1
:100BD0002A30310548F0019778F2EFE9FFE03197CC
:100BE000F1F700C00000F7CF089FB001099F700D1A
:100BF0001124C901860F971F2981EA01E4CF0E94C1
:100C00003B05BACFDF91CF911F910F91FF90EF90ED
:100C1000089560E00C94A10508950C940C0681E001
:100C200008950C940F060895CF93C82F0E940D06C7
:100C30008C2FCF910C941106CF93DF93CDB7DEB7F5
:100C40002B970FB6F894DEBF0FBECDBF4F835887EA
:100C500069877A878B8761110E943B0E1E821D82F5
:100C600085E0FE013796DE01119601900D928A957E
:100C7000E1F78C819D81892B89F449815A816B81AF
:100C80007C818D819E810E945C0D2B960FB6F8941D
:100C9000DEBF0FBECDBFDF91CF91089589819A81CC
:100CA00089238F3F51F3CE0101960E948C0481115C
:100CB000E4CFEBCFFC01808191810C94FA0ACF93B1
:100CC000C82F882309F48BC08238C1F40E94DE1A31
:100CD00081FD85C089E30E94F60D0E945E0E2FEF14
:100CE00081EE94E0215080409040E1F700C0000088
:100CF00089E30E94FD0DCF910C945E0E8338A1F420
:100D00000E94DE1A80FD6BC083E50E94F60D0E94F2
:100D10005E0E2FEF81EE94E0215080409040E1F78D
:100D200000C0000083E5E5CF8438A1F40E94DE1AFC
:100D300082FD55C087E40E94F60D0E945E0E2FEFE3
:100D400081EE94E0215080409040E1F700C0000027
:100D500087E4CFCF8CEF8C0F813A90F46C2F809189
:100D60000201909103010E94411B882329F08C2FDE
:100D70000E94FD0D0E945E0E8C2F0E94F60DBBCFCF
:100D800080E28C0F883048F4C77081E001C0880F82
:100D9000CA95EAF70E941E0EAECFEBE5EC0FE330EA
:100DA00040F4F0E0E95AFE4F808190E0CF910C943E
:100DB000031BE8E5EC0FE73150F4F0E0EE0FFF1F06
:100DC000E75DFE4F80819181CF910C94191BC03F4C
:100DD00030F08C2F0E94E013CF910C94B314CF917C
:100DE0000895882309F452C0823871F40E94DE1AF3
:100DF00081FF4CC089E30E94F60D0E945E0E89E3DC
:100E00000E94FD0D0C945E0E833859F40E94DE1A88
:100E100080FF3CC083E50E94F60D0E945E0E83E5D4
:100E2000EFCF843859F40E94DE1A82FF2FC087E486
:100E30000E94F60D0E945E0E87E4E2CF9CEF980FB1
:100E4000913AF0F290E2980F983050F4877091E068
:100E500001C0990F8A95EAF7892F0E94240ED2CFFC
:100E60009BE5980F933020F490E080E00C94031BF6
:100E700098E5980F973120F490E080E00C94191BCE
:100E8000803F20F00E943A140C94B31408951F93ED
:100E9000CF93DF93182FEB010E945F06209731F468
:100EA000812FDF91CF911F910C94F1068FE99FE084
:100EB0000197F1F700C000002197F0CF70E060E0EB
:100EC000893311F460E570E00C944707882321F022
:100ED0000E941E0E0C945E0E0895882321F00E943D
:100EE000240E0C945E0E0895BF92CF92DF92EF9283
:100EF000FF920F931F93CF93DF936C01D62FC72FD1
:100F0000FC011281F580F2949FE0F9220E94140EF8
:100F1000E82E8823B9F0E12E1123A1F08C2F807FD9
:100F2000803421F080E28D0F8830D0F0809148022B
:100F300082FD16C082E00E94AF0E0E94140E91E066
:100F4000E82EE926BC2EB2948FE0B822FBE0FB1518
:100F500008F468C0EB2DF0E0E659FB4D0C940C242E
:100F6000E12CF0CF0C2F0F70C07F11F00295007FA5
:100F7000112399F0002359F080E28D0F883010F092
:100F8000D11107C0802F0E941E0E0E945E0E8D2F71
:100F900041C0802F0E942E0EF8CF8D2F0E94F106A7
:100FA000002309F43FC080E28D0F883010F0D1118A
:100FB00004C0802F0E94240E03C0802F0E94340E94
:100FC0000E945E0E2FC00C2F0F70C07FC03211F038
:100FD0000295007FDD2381F0D13009F469C011232F
:100FE00009F473C0FF2009F469C0F601858180FF10
:100FF000CECF8F70858362C08091480282FF38C057
:10100000112359F0002329F0802F0E941E0E0E9408
:101010005E0E80E00E945F0605C080E00E94F1063F
:101020000111C7CFEB2DE850FF0B349720F40E943D
:10103000DE1A0E941406EE2009F44DC10E94100E23
:1010400080FD49C1F60112820E940A0E0E94470AE1
:10105000C6010E948C090E940A0EDF91CF911F9158
:101060000F91FF90EF90DF90CF90BF900C94520AB9
:10107000112389F0F11006C00E94410E802B0E94BE
:101080006607D0CF21E0F212F7CF0E94410E802BED
:101090000E94470EC7CFF11006C00E94540E802F49
:1010A0000E946D07BFCF31E0F31609F4BBCFF5CF37
:1010B000112331F085E08F1508F4B4CF802FDFCFF6
:1010C00094E09F1508F4AECFEACFFF2041F3D93367
:1010D00049F4FFEF27EE33E0F15020403040E1F7D4
:1010E00000C000008D2F0E94F1069CCF8C2F8695AA
:1010F0008695837069F0813009F094CF8D2F9C2FF5
:101100009370111102C090E080E00E94191B8ACFF9
:101110008D2F9C2F9370111102C090E080E00E94EF
:10112000031B80CF8D2F112329F00E94E0130E9412
:10113000B31478CF0E943A14FACF8C2F837079F5CC
:10114000111170CF4D2F429546954770440F440FB3
:101150008D2F8F70042E01C0880F0A94EAF72D2F6F
:101160002071D4FF07C02FE030E001C0220F4A9564
:10117000EAF72095C695C695C370822BC23049F018
:1011800058F4C13019F00E94280A4CCF0E94230A5B
:1011900049CF0E942D0A46CF0E94210A43CF86954F
:1011A000112311F08C2F8170882309F43BCF4D2F30
:1011B000429546954770440F440F8D2F8F70042E33
:1011C00001C0880F0A94EAF72D2F2071D4FF07C0C1
:1011D0002FE030E001C0220F4A95EAF72095C6952E
:1011E000C695C370822BC23049F058F4C13019F053
:1011F0000E946E0A17CF0E94690A14CF0E94730AD8
:1012000011CF0E94360A0ECFCF70112329F08C2FF8
:101210000E94470A8D2F33CF8D2F0E946D078C2F90
:101220000E94520AFFCED23F51F160F4D03FB9F094
:10123000D13F81F0112309F449C0F110A8CE8C2FC1
:101240008F7121C0D33F11F1D43FA1F780914802A3
:1012500082FF26C08C2F8F71112311F314C011232C
:1012600049F084E08F1508F4DDCE8C2F8F710E9439
:101270005E0AD8CE95E09F1508F4D4CEF6CF8C2F19
:101280008F711111CDCF0E94470ACCCE112329F0C6
:101290008C2F8F710E943F0AC5CE0E943C0AC2CE9D
:1012A000112349F0CF718C2F0E94470A63E08C2FE5
:1012B0000E94940EB7CE81E00E94AF0EE1E0EF15E0
:1012C00008F0B0CE82E00E94AF0EACCEF110FFCE9F
:1012D0008C2F8F71A5CFDF91CF911F910F91FF9030
:1012E000EF90DF90CF90BF9008950F931F93CF930F
:1012F000DF93EC01688179818A810E94040B8C0163
:101300000E94780A0E94200AB801CE01DF91CF9195
:101310001F910F910C947407CF93DF93EC018B8195
:101320009C81892B29F08881998189238F3F59F4E9
:10133000DF91CF910895CE010E947509CE01DF9112
:10134000CF910C948E04CE010E94DB048111F3CF67
:101350000E94140E882361F38A81882349F38091C7
:10136000480282FDE5CF82E0DF91CF910C94AF0E71
:1013700090E080E00E94031B90E080E00E94191B37
:101380000E943B0E0E943E0E0E945E0E0E94DA15E5
:101390000C94B3140E94040E0C94B8090E942B0EF6
:1013A0000C94CA09E92FE295EF70E250EE3070F428
:1013B000F0E0EA58FB4D0C940C24803F19F020F427
:1013C000883E20F481E00895843FE1F380E00895B1
:1013D000883EC0F3813FD1F7F5CF93FB882780F992
:1013E0000895FC01808191810E94FA0A0C94D2092F
:1013F000CF93DF9300D000D00F92CDB7DEB70F9020
:101400000F900F900F900F90DF91CF910895CF9391
:10141000DF9300D000D000D0CDB7DEB726960FB650
:10142000F894DEBF0FBECDBFDF91CF910895089530
:101430000C94170A0E94180A8093B6010C94B809FC
:1014400008950C941A0A9091B601892B0C941A0AEB
:101450009091B60189230C941A0A9091B6018927BC
:101460000C941A0A0C94170A0C94320A0E94340A3B
:101470008093B5010C94B80980E00C94360A91E091
:1014800001C0990F8A95EAF7892F0C94360A21E05A
:1014900030E001C0220F8A95EAF78091B501822BD6
:1014A0000C94360A21E030E001C0220F8A95EAF759
:1014B00020958091B50182230C94360A21E030E01A
:1014C00001C0220F8A95EAF78091B50182270C941A
:1014D000360A9091B501892B0C94360A9091B5018A
:1014E00089230C94360A9091B50189270C94360A09
:1014F00008952AE0929F800D1124982F977041E063
:1015000001C0440F9A95EAF786958695869593E0F3
:10151000899FF0011124E356FE4F90E080E070E0D7
:101520005191DF0111979B01082E02C03695279536
:101530000A94E2F7217021952527242325272C934F
:1015400001968330910561F708952AE0929F800DFE
:101550001124982F977086958695869523E0829F13
:10156000F0011124E356FE4F50E040E080E021916D
:1015700030E0092E02C0369527950A94E2F72170D3
:101580003327042E01C0220F0A94EAF7822B4F5F03
:101590005F4F4330510559F70895CF92DF92FF9284
:1015A0000F931F93CF93DF936C010091B50180914E
:1015B000B601082BC7E0D0E010E0FC2EC8010C2ECD
:1015C00002C0959587950A94E2F780FD0CC021979B
:1015D000A0F7F12C8F2DDF91CF911F910F91FF90EC
:1015E000DF90CF900895B6018C2F0E94E0110197F3
:1015F00071F3F0CFCF93DF93EC010E94CD0ABE01CF
:10160000DF91CF910C94E0111F93CF93DF93EB0107
:1016100090919C01992331F0CB01DF91CF911F91E3
:101620000C94FA0A882379F0CB010E94CD0A182F76
:10163000682FCE010E94790ABE01812FDF91CF91E0
:101640001F910C94E011CB010E94A50A182FF4CF32
:101650001F93CF93DF93C091B70116E08091B8013B
:101660008C1304C0DF91CF911F910895D0E01C9F8F
:10167000F0011D9FF00D1124E754FE4F4081518170
:1016800062817381848195810E94070A2196C770C7
:10169000E5CF4091E9015091EA016091EB01709131
:1016A000EC018091ED019091EE010C94070AFF92FC
:1016B0000F931F93CF93DF938091EE01807FD1F43E
:1016C0008091EB018823B1F08091B7011091B801AE
:1016D0006091E9017091EA01A091EC01B091ED01F6
:1016E000062F0723C0910001D091010196E0F92E49
:1016F000181306C0DF91CF911F910F91FF900895AD
:1017000090E0109711F00F3F19F401968770F0CF19
:10171000F89E9001F99E300D1124F901E754FE4F17
:1017200041814713F2CF40814613EFCF42814111EF
:10173000ECCF438154814A1B5B0B4C175D0728F7A4
:101740008091EE018F7080618093EE01F901E25487
:10175000FE4F80818F708061808389EE91E00E94CE
:101760008C09DF91CF911F910F91FF900C94280B62
:10177000AF92BF92CF92DF92EF92FF920F931F939F
:10178000CF93DF93CDB7DEB761970FB6F894DEBF86
:101790000FBECDBF8C0185E0F801DE011D960190E2
:1017A0000D928A95E1F7F801E28089EEC82E81E07A
:1017B000D82E6091EC017091ED016115710509F46D
:1017C0005FC19091E9012091EA01892F82238F3F27
:1017D00009F456C140815181A380B480F090EB019F
:1017E000F501E61BF70BBF01E0910001F09101014B
:1017F000FF2009F4F6C08091EE01382F307F6E177C
:101800007F0708F0AFC0311179C0FE2C251323C02B
:10181000941321C0E1101FC08F7080618093EE018E
:101820000E94490BC6010E948C098091EE01F801CB
:1018300085838F2D61960FB6F894DEBF0FBECDBFA6
:10184000DF91CF911F910F91FF90EF90DF90CF909C
:10185000BF90AF900895AB2829F0842F85238F3F48
:1018600009F027C180E0F82FF170DF2E80FF3CC027
:101870008091B7012091B80136E0821315C04D87E1
:101880005E878D859E850E94FA0A292F22952F70EA
:101890002230F0F0243018F59F70F1F0F8019581B6
:1018A000907FD1F4D12C1EC090E0389FF001399F79
:1018B000F00D1124E754FE4F6181651306C060816D
:1018C000641303C062816E110FC001968770D5CF7B
:1018D0009F7011F0882331F3805E883018F3C801BF
:1018E0000E948C09FD2CA5CFEE2009F4A2CF809197
:1018F000EE0181608093EE01F12C9BCF251306C091
:10190000941304C0F801EE2009F487C0C8010E94B6
:10191000F109882319F1EE2009F18091EE0180325E
:1019200070F02091E9013091EA0138872F83198600
:10193000BB86AA868C87CE0107960E948C0986E01A
:10194000F801A9EEB1E001900D928A95E1F70E94AD
:10195000570B0E94490BFF24F3946BCFC8010E94E0
:101960008C09F9CF311113C07A2DB98AA88A6E2D4E
:1019700089890E94F80989EE91E00E948C0986E02D
:10198000F60111928A95E9F70E94490BB5CF25130C
:101990000FC094130DC0E1100BC0F8018583C8017E
:1019A0000E948C0986E0F60111928A95E9F741CFF1
:1019B000C8010E94F109882389F2EE2079F2809112
:1019C000EE01803208F4BBCF2091E9013091EA01A9
:1019D0003A8329831B82BD82AC828E83CE0101961D
:1019E000ACCF6E177F0708F03EC0FE2CEE2009F446
:1019F000B5CF25132AC0941328C08091EE0180FD35
:101A00001BC0982F907FC1F0F8018583903F31F083
:101A1000982F907F905F8F70892B8583C8010E94DB
:101A20008C0986E0F801A9EEB1E001900D928A954B
:101A3000E1F70E94490BFDCE86E0F801A9EEB1E086
:101A400001900D928A95E1F7F4CEC8010E94F10948
:101A5000811175CF8091EE0181608093EE01C80104
:101A60000E948C09E6CE7A2DB98AA88A6E2D8989C2
:101A70000E94F80986E0F60111928A95E9F7D9CF1C
:101A8000EE2009F46BCFC8010E94F109F82E8823DB
:101A900009F464CF86E0F801A9EEB1E001900D925F
:101AA0008A95E1F789EE91E00E945A060E94570B51
:101AB000C0CF81E08E25D7CE1F93CF93DF93CDB7D4
:101AC000DEB72C970FB6F894DEBF0FBECDBF4F83A5
:101AD000588769877A878B879C87CE0107960E94F3
:101AE000B80B882369F08A859B85892B39F04F8153
:101AF0005885842F85238F3F09F071C016E05FC0A1
:101B000086E0FE013796DE01119601900D928A95CE
:101B1000E1F78A859B85892B89F38F8198858923B5
:101B20008F3F61F32091B80130E0C90101968770C1
:101B300099274091B7014817190671F40E94CE0900
:101B40001092B8011092B70186E0E9EEF1E0DF01F2
:101B50001D928A95E9F7D2CF96E0929FD001939F8C
:101B6000B00D1124A754BE4FFE01319601900D9285
:101B70009A95E1F78093B8010E94280BBFCF819F0F
:101B8000C001112487549E4F0E94B80B8823E9F0AE
:101B9000E091B7011E9FF0011124E754FE4F4081F0
:101BA000518162817381848195810E94070A8091AD
:101BB000B70190E00196877099278093B7018091D3
:101BC000B7019091B8018913DACF2C960FB6F8942B
:101BD000DEBF0FBECDBFDF91CF911F910895698504
:101BE0007A858B859C850E94070A88CF682F809113
:101BF0000201909103010C94771B682F80910201E0
:101C0000909103010C94791B809102019091030142
:101C10000C947B1B8091EF018595859585950895A2
:101C20008091EF01877008959091EF01977081E0A6
:101C300009F480E008958091FB0108959091FB01E3
:101C4000892B8093FB01089580959091FB01982347
:101C50009093FB0108951092FB0108959091FA0171
:101C6000892B8093FA01089580959091FA01982329
:101C70009093FA0108951092FA0108951092F901D3
:101C800008958091F001089508950C94440E909168
:101C9000480292FD08C09091F001981721F08093BE
:101CA000F0010C94450E08958091F001882329F0ED
:101CB0001092F00180E00C94450E0895E09102012D
:101CC000F09103018091FB018083E0910201F0918A
:101CD000030180819091FA01892B8083E0910201B8
:101CE000F091030180819091F901892B808390917B
:101CF000F001992381F0E0910201F09103018081CC
:101D0000892B808380910201909103010E942F1BF7
:101D100081110E94540E80910201909103010C9454
:101D2000EA1A08950C94910E9091480292FD10C009
:101D300098E0899F90011124622B6093EF010E942B
:101D4000470A8091EF018595859585950C94920EB3
:101D50000C94470A1092EF0180E00C94920E90913F
:101D6000EF01809589238093EF01282F277091F44C
:101D7000282F082E000C330B9217130659F0909160
:101D8000480292FD07C08595859585950E94520A67
:101D90000C94AA0E08959091480292FB222720F9F4
:101DA000281769F080FB92F99093480280914702CE
:101DB000909148020E94160F82E00C94AF0E089595
:101DC0008091480282FB882780F991E089270C9452
:101DD000CB0E81E00C94CB0E80E00C94CB0E6FEF19
:101DE0007FEF90E080E00C94522490E080E00E942D
:101DF0002E24893E9E4F11F40C94E81580E008953E
:101E000082E090E00C94262483E090E00C94262459
:101E1000CF9384E090E00E942624C82F82E290E0D5
:101E20000E942624982F8C2FCF910895CF93C92FED
:101E3000682F84E090E00E9434246C2F82E290E0CE
:101E4000CF910C943424AB01BC018FE090E00C9452
:101E50004624AB01BC0183E190E00C94462460E091
:101E600070E0CB010C94290F60E070E0CB010E9480
:101E7000230F0C942F0F69EE7EEF90E080E00E941C
:101E8000522460E082E090E00E94342460E083E02D
:101E900090E00E9434241092B60160E084E090E06B
:101EA0000E94342460E082E290E00E94342460E0EA
:101EB00085E090E00E94342460E086E090E00E949B
:101EC00034246FEF87E090E00E94342440E050E03B
:101ED000BA0188E090E00E94462460E08DE090E046
:101EE0000E94342440E050E0BA0188E190E00E9472
:101EF000462460E087E190E00E94342440E050E016
:101F0000BA018CE190E00E94462470E060E080E23B
:101F100090E00E94522440E050E0BA0188E190E055
:101F20000E94462480E00E9401160E9427160C940D
:101F3000340F0C943B0F682F8EE090E00C94342407
:101F40000E941F1C6093190270931A0280931B0257
:101F500090931C02609315027093160280931702EF
:101F6000909318020895CF92DF92EF92FF920F9311
:101F70001F9380910D0290910E02A0910F02B091DB
:101F800010020196A11DB11D80930D0290930E02C7
:101F9000A0930F02B09310020E941F1C0091110227
:101FA0001091120220911302309114026B017C01F6
:101FB000C01AD10AE20AF30A97018601093E1340CA
:101FC0002105310500F100910D0210910E022091C2
:101FD0000F02309110020093090210930A0220931D
:101FE0000B0230930C0260931102709312028093E3
:101FF00013029093140210920D0210920E0210928E
:102000000F02109210021F910F91FF90EF90DF903E
:10201000CF90089585B7806885BF85B7806885BFF4
:102020000895089508950C94111008950C941510B6
:102030000E940A108EEB92E10E94D41A0E941210A4
:102040000C94131081E008950C94221008950895C3
:102050000E9426100C9427100E940A1C0E9436161B
:102060000E94DE030C9416108F929F92AF92BF9243
:10207000CF92DF92EF92FF920F931F93CF93DF9354
:10208000CDB7DEB72A970FB6F894DEBF0FBECDBF2F
:102090000E94F30381110E94A00F5DEF852E51E095
:1020A000952E10E000E0A02E802F0E94F8126C0107
:1020B000F401E190F1904F01E816F90609F45EC0D1
:1020C00080911D0281FD0E940113C7018C259D2571
:1020D000B12CEE24E394F12C9C012E213F21232BE3
:1020E00009F446C00E9424108823A9F0BE82AF8262
:1020F000CE20DF2081E0CD2809F480E088870E948F
:10210000131C8160782F9A8789874E815F8168854B
:102110008A850E941C06000F111FF801E350FE4F34
:1021200080819181E826F926F182E0820E94B30F36
:102130000E94CE140E94DE1A9091FC018917A9F129
:102140000E94DE1A8093FC012A960FB6F894DEBF37
:102150000FBECDBFDF91CF911F910F91FF90EF90F8
:10216000DF90CF90BF90AF909F908F900C9414060B
:10217000B394EE0CFF1CFAE0BF12AECF0F5F1F4FFF
:102180000630110509F08FCF8FEF89838A831B8278
:102190000E94131C8160782F9D838C8349815A8112
:1021A0006B818D810E941C06C1CF2A960FB6F894D0
:1021B000DEBF0FBECDBFDF91CF911F910F91FF907A
:1021C000EF90DF90CF90BF90AF909F908F90089549
:1021D000CF93DF930E94E411EC01811521E5920772
:1021E00008F042C0811530E5930708F09DC0883E95
:1021F000910530F5803E910508F092C0883A91052E
:1022000088F4853A910508F084C08130910509F47D
:1022100087C0009709F484C0049708F081C0D0E01B
:10222000C0E07EC08F3B9105D0F7C85AD0E0CC0FFC
:10223000DD1FC65ADE4F0990D881C02DD46470C00E
:102240008115904250F4C11581E0D80708F068C0AC
:10225000C03FD10520F3D06563C0C11590E4D90714
:10226000F0F2DF70D06A5CC0811525E5920700F5B9
:10227000811534E5930708F08BC0811543E5940779
:1022800008F073C0C11582E5D80708F469C0CE0113
:102290008370992721E030E002C0220F331F8A9516
:1022A000E2F7C695C69580E2C89FE001112454C0AC
:1022B000C11599E5D907A8F4C11528E5D20708F09A
:1022C0006CC0C11536E5D30708F0A9CF8C2F0E944A
:1022D0007B12C82FD0E0DC2FCC27CC27DF71D06257
:1022E0001FC0C1154AE5D40708F45CC0CE01905662
:1022F0008115904208F093CF8D2F8F710E947B1231
:1023000090E0982F882788279F719C012C2BE9014A
:10231000E6CFC55AD0E0C857DE4FC881D0E0D064C0
:10232000CE01DF91CF910895E4E096958795EA95E7
:10233000E1F783702C2F26952695237040E2249F89
:1023400090011124382B8C2F8370C1E0D0E002C0A3
:10235000CC0FDD1F8A95E2F7C22BD32BDC68E0CFD0
:10236000DC2FCC27C16FD06ADBCF8370992721E0A7
:1023700030E002C0220F331F8A95E2F7C695C6955A
:1023800090E2C99FE0011124C22BD32BDA68C8CF99
:10239000D82FCC27C46FD06AC3CFDC2FCC27C06F17
:1023A000D06ABECF8C2F8F700E947B1234E0D695FE
:1023B000C7953A95E1F7CF709C2FEC01D069B0CF6B
:1023C0000E9421190C94E81082389105B1F1B0F403
:1023D0008133910509F475C048F48932910509F4F7
:1023E00069C08A32910509F473C008958533910557
:1023F00009F459C08933910501F10895833E91058F
:10240000A9F138F4803E9105F9F0823E910549F139
:102410000895863E9105A9F1873E9105C9F1843E54
:10242000910519F52091480221FF1FC080914702B4
:1024300084FD14C087EE90E0089520914702237038
:10244000A1F080EE90E008952091470220FD47C062
:102450003091480230FF09C024FF44C090E080E082
:1024600004C02091470222FDF7CF08952091470232
:1024700022FD3BC03091480230FDE3CF24FFF5CF71
:10248000EDCF2091470223FFF0CF24FDE7CFD2CF3D
:102490002091470223FD2CC03091480231FFEECF3E
:1024A00084EE90E008952091470225FFDECF89E277
:1024B00090E008952091470225FFD7CF85E390E073
:1024C00008952091470226FFD0CF8AE290E0089538
:1024D0002091470226FFC9CF81E390E0089589E368
:1024E00090E0089583EE90E0089582EE90E00895E4
:1024F00086EE90E008959091470292FF06C0282F43
:1025000028712830F9F4877F846093FF06C0282F54
:1025100028712831F1F4877E84612091480220FFE0
:1025200006C0382F38713830D9F4877F816021FF99
:1025300006C0282F28712831D1F4877E816194FD4F
:10254000877E0895282F24712430F9F68B7F8860C8
:10255000DCCF282F2471243101F78B7E8861DDCFF9
:10256000382F3171313019F78E7F8860E0CF282FF6
:102570002171213121F78E7E8861E1CF80E00895BD
:102580000C94EF0E0E94F3038FE39CE90197F1F79F
:1025900000C000000E94F30380E00E94F81280FF58
:1025A00004C00E94C0120C945E1C08950C94C212C8
:1025B0000E94F50E811102C00E94990F0E94000F27
:1025C00080931D020E94080F909348028093470257
:1025D0000E94D6120E94040F0E94210A8091B50128
:1025E0000C94340A08950C94F21208950C94F51288
:1025F000E82FF0E0EE0FFF1FEB5AFD4F8081918135
:102600000895089580EA8A95F1F7089500C0089525
:102610000C9402130895FF920F931F93CF93DF93AF
:10262000F82E092F162FD72FC42F222349F081E02F
:10263000809320020E94131C90931F0280931E021D
:10264000809120028823A1F080911E0290911F02A8
:102650000E942B1C059760F0EF2DF02FA12FBD2FAE
:1026600090E080E0D0E08C179D0744F010922002AB
:10267000DF91CF911F910F91FF900895219131919A
:102680002D933D930196EFCF0E94331E0E942C1094
:102690000C943F1E0E94431E0E9434100C945D1E39
:1026A0000E949C1B0E941A1E0E9418100E94441334
:1026B0000E944A130E942810FBCF8091270280FFBE
:1026C00012C06091090185E0689FB00111247595E1
:1026D00067957595679560387105A8F56115710561
:1026E000A1F1862F089581FF09C06091090185E05D
:1026F000689FB001112475956795EDCF6091090130
:1027000082FD0AC0809126028823D1F090910801B1
:1027100060910901891728F085E0689FB0011124B4
:10272000DACF869FB001112485E0869F9001879FB4
:10273000300D1124692F70E0C9010E94F823CBCF1E
:1027400065E070E0CECF8FE7089581E00895809135
:10275000270280FF0CC06091050170E075956795B8
:10276000759567956115710549F1862F089581FF6B
:1027700006C06091050170E075956795F3CF609193
:10278000050182FD0BC0909125029923A1F0609173
:10279000040180910501961738F0682F70E06038C9
:1027A000710500F38FE70895899FC001112470E03F
:1027B0000E94F823F4CF61E070E0D7CF81E0089564
:1027C000803F31F40E945D13819580932B02089520
:1027D000813F19F40E945D13F8CF823F31F40E94CB
:1027E0005D13819580932A020895833F19F40E9416
:1027F0005D13F8CF893F29F40E94A71380932C0220
:1028000008958A3F21F40E94A7138195F7CF8B3F4B
:1028100031F40E94A713819580932D0208958C3F77
:1028200019F40E94A713F8CF9CE0980F953070F42C
:10283000845F990B21E030E001C0220F8A95EAF70E
:1028400080912902822B8093290208958D3F31F4D3
:102850008091270281608093270208958E3F21F4A2
:10286000809127028260F7CF8F3FB9F780912702CE
:102870008460F1CF40912A02803F59F480912B026D
:1028800087FF0DC010922B0241110BC0109226023F
:1028900008C0813F81F480912B0218169CF34423D9
:1028A00081F080912C0290912D02892B09F05AC061
:1028B000109225020895823F49F447FFF0CF10920D
:1028C0002A0280912B028111ECCFE0CF833F19F4D3
:1028D0001416ACF3E4CF90912C02893F29F4191619
:1028E000F4F610922C02DBCF8A3F19F497FFD7CF72
:1028F000F8CF90912D028B3F29F497FFD0CF109203
:102900002D02CDCF8C3F19F41916CCF3C8CF9CE023
:10291000980F953090F4845F990B21E030E0B90175
:1029200002C0660F771F8A95E2F7CB0180959091E0
:102930002902892380932902B2CF8D3F31F48091FF
:1029400027028E7F80932702AACF8E3F21F48091A9
:1029500027028D7FF7CF8F3F09F0A1CF809127020B
:102960008B7FF0CF08950E94131C9C0190912A0246
:1029700080912B02982B21F0309324022093230284
:1029800090912C0280912D02982B21F030932202FD
:102990002093210288E292E00C94F51AEF92FF92C4
:1029A0000F931F93CF93DF9300D000D000D0CDB70B
:1029B000DEB786E0E8E2F2E0DE01119601900D92CA
:1029C0008A95E1F7E0902A02F0902B0200912C0208
:1029D00010912D0210922A0210922B0210922C02BA
:1029E00010922D028E2D8F2991F0809123029091CB
:1029F00024020E942B1CAC0190912602992309F419
:102A00003FC080910A018417150608F447C0802F43
:102A1000812B91F080912102909122020E942B1C27
:102A2000AC0190912502992309F477C080910601A9
:102A30008417150608F47FC080912A0290912B021A
:102A4000892B90912C02892B90912D02892B11F0CA
:102A50000E94B31486E0FE013196A8E2B2E0019034
:102A60000D928A95E1F726960FB6F894DEBF0FBE59
:102A7000CDBFDF91CF911F910F91FF90EF900895FF
:102A800020910B018AE0289F90011124241735071B
:102A900008F0BDCF9F5F9093260202C09F3FD1F701
:102AA000EE2059F00E945D139FEF1E140CF491E08C
:102AB000899F802D112480932A02FF2059F00E94C3
:102AC0005D139FEF1F140CF491E0899F802D11245A
:102AD00080932B0230912A02332309F498CF20915E
:102AE0002B02222309F493CF45EB3403C0011124B8
:102AF000992359F090932A0245EB24039001112465
:102B0000332339F030932B0282CF81E080932A0265
:102B1000F3CF81E080932B027ACF209107018AE0E6
:102B2000289F900111242417350708F085CF9F5F57
:102B30009093250202C09F3FD1F7002359F00E94D5
:102B4000A7139FEF10160CF491E0899F802D11249C
:102B500080932C02112359F00E94A7139FEF1116A6
:102B60000CF491E0899F802D112480932D023091E7
:102B70002C02332309F460CF20912D02222309F483
:102B80005BCF45EB3403C0011124992359F0909396
:102B90002C0245EB240390011124332339F03093A8
:102BA0002D024ACF81E080932C02F3CF81E0809305
:102BB0002D0242CF86E0E8E2F2E0DF011D928A9525
:102BC000E9F710922602109225021092270208952A
:102BD00083E290E00E942624823289F484E290E02D
:102BE0000E942624803159F485E290E00E94262438
:102BF00091E0843109F090E0892F8170089580E0A0
:102C0000FCCFCF93C82F6FEF811162E283E290E097
:102C10000E9434246FEFC11160E184E290E00E94D1
:102C200034246FEFC11164E185E290E0CF910C9400
:102C30003424089586E290E00E942624682F70E0F4
:102C400090E080E0089586E290E00C94342480E0E7
:102C50000E94011660E070E0CB010E9423160E94E2
:102C600099180E94851981E00C9401160E9419168A
:102C70000E94E815811102C00C9427160895CF9385
:102C8000FB01C281CC2309F19C0122513F45203137
:102C9000310520F582510E949519C0E08C2FCF910B
:102CA000089581E00E94470A43E062E081E00E94CB
:102CB000B604F3CF81E00E94520A43E062E081E073
:102CC0000E94B604EBCF82E0F6CF8031FFE59F078C
:102CD00089F381319F45B9F3C1E0E0CF8031EFE561
:102CE0009E07F9F281319F45C9F682E0DBCF2FEFD5
:102CF000FC0120830895EF92FF920F931F93CF93CF
:102D0000DF93EC01062FE881E150E33108F05EC06B
:102D1000F0E0EC57FB4D0C940C24198289E08A8377
:102D2000602FCE01DF91CF911F910F91FF90EF9017
:102D30000C94F31C8981823069F0833071F081300A
:102D4000D9F40E941F1C0E9412246A837B838C8307
:102D50009D83E6CF0E941A16F6CF7E0110E0812FE8
:102D60000E94F812F701928383831F5FF2E0EF0E57
:102D7000F11C1630A1F7D4CF602FCE010E94771638
:102D8000CFCF89818230C1F76A817B818C819D811F
:102D90000E9412240E942316C3CF4B816A8189812D
:102DA0000E946B189827892798279D838C83B8CF1A
:102DB0002C813D813227232732274B816A818981EB
:102DC0000E948418ADCF0E949918AACF8FEF8883F4
:102DD000A7CF0E942E198983A3CF0E94301998276C
:102DE000892798279A8389839BCF6B8170E089819B
:102DF0009A81AE014C5F5F4F9827892798270E94E0
:102E000033198ECF6B8170E089819A81AE014C5F5E
:102E10005F4F9827892798270E945A1981CF0E94CF
:102E200085197ECF0E945918D6CF6B8170E08981B9
:102E30009A81AE014C5F5F4F9827892798270E949F
:102E4000D1186ECF6B8170E089819A81AE014C5FA1
:102E50005F4F9827892798270E94F71861CFCF9353
:102E6000DF93EC01FB018281882309F420C1C33088
:102E7000FDE5DF07C8F5CA3F9CE5D90730F49E01A0
:102E800022503C452431310598F50E94080F90935B
:102E9000480280934702C031FCE5DF0709F4E0C037
:102EA00008F061C0C8309CE5D90709F4CBC088F5AB
:102EB000C430FCE5DF0709F4B3C0E8F4C2309CE598
:102EC000D90709F4A7C0809147028260C330DC456E
:102ED00009F4A3C080914702909148020E94160F06
:102EE0000E94CE0980E004C0C136EDE5DE0769F23C
:102EF000DF91CF910895809147028061C630FCE553
:102F0000DF0709F48AC008F48FC08091470280620D
:102F100084C0809147028D7FCC309CE5D90709F4AD
:102F20007CC070F4809147028C60CA30FCE5DF07FA
:102F300009F473C008F48AC0809147028E7F6DC087
:102F400080914702877FCE309CE5D90709F465C0A0
:102F5000809147028B7FCF30DC4508F45EC08091C2
:102F600047028F7E5AC0CC3FFCE5DF0709F474C0EE
:102F700040F5C4319CE5D90709F48AC058F4C23140
:102F8000FCE5DF0709F474C008F46EC080914702C5
:102F9000837F43C0CA3F9CE5D90709F449C008F0C4
:102FA0004DC0C531DC4509F095CF8091470282FBC9
:102FB000992790F921E0922790FB82F990FB83F901
:102FC0002CC0C1158DE5D80709F458C088F480914C
:102FD00048028360CE3FECE5DE0769F1809148024C
:102FE0008D7FCF3FDC4538F1809148028C7F23C034
:102FF000C2308DE5D80709F458C008F452C0C13674
:10300000DD4509F067CF90914702892F8F7E94FFAD
:10301000806103C0809147028160809347025ACF4C
:10302000809147028460F9CF809147028860F5CF94
:10303000809148028160809348024CCF8091480281
:103040008260F9CF809147028064E7CF0E94CE0969
:10305000809147028068E1CF809148028E7FEBCF5C
:10306000809147028F7DD9CF809147028F7BD5CF4A
:103070000E94CE09809147028F77CFCF809148027E
:10308000982F909591708E7F892B90FB81F9D3CFEB
:103090000E94CE0990914702892F97FB87F98058AB
:1030A000BCCF81E00E949B0F15CF80E0FBCF81E079
:1030B0001FCF84E0089550E0440F551F94E1699FAD
:1030C000400D511D112498E7899F400D511D112479
:1030D000CA01879608950F931F93CF93DF930E94A1
:1030E0005B188C010E942624C82FD0E0DC2FCC274F
:1030F000C80101960E9426249E01282BC901DF9158
:10310000CF911F910F9108950F931F93CF93DF934A
:10311000122F032F0E945B18EC01602F0E943424B1
:10312000612FCE010196DF91CF911F910F910C94E9
:103130003424AF92BF92CF92DF92EF92FF921F930F
:10314000CF93DF938CEAC82E80E0D82ED0E07601B2
:10315000C0E014C0F50125913491412F6C2F8D2FC3
:103160000E94841882E0A80EB11C1F5F1A3091F7EC
:1031700084E1E80EF11CCF5FC63019F0570110E072
:10318000E9CFDF5F88E7C80ED11CD43001F7DF91AB
:10319000CF911F91FF90EF90DF90CF90BF90AF90B5
:1031A0000895EF92FF920F931F93CF93DF93EC015B
:1031B0008A017C01E60EF71ECE018796CE15DF054B
:1031C00039F4DF91CF911F910F91FF90EF90089507
:1031D000C03E21E0D20740F40E942624F8018083FB
:1031E0000F5F1F4F2196E8CFF8011082F9CFCF92E1
:1031F000DF92EF92FF920F931F93CF93DF937C01A7
:103200006A018C01060F171FEC01CE018796C017CB
:10321000D10749F4DF91CF911F910F91FF90EF906B
:10322000DF90CF900895C03E21E0D20740F4FE0128
:10323000EE19FF09EC0DFD1D60810E9434242196DA
:10324000E4CF462F843038F4763028F46A3018F40E
:10325000672F0C946B1890E080E0089580E108954A
:1032600089EF91E00895EF92FF920F931F93CF9310
:10327000DF93EC018A017C01E60EF71ECE01895F27
:103280009D4FCE15DF0539F4DF91CF911F910F913E
:10329000FF90EF900895C93F21E0D20740F40E94CB
:1032A0002624F80180830F5F1F4F2196E7CFF80196
:1032B0001082F9CFCF92DF92EF92FF920F931F937C
:1032C000CF93DF937C016A018C01060F171FEC017D
:1032D000CE01895F9D4FC017D10749F4DF91CF918F
:1032E0001F910F91FF90EF90DF90CF900895C93F0D
:1032F00021E0D20740F4FE01EE19FF09EC0DFD1D9F
:1033000060810E9434242196E3CFCF93DF93C7E0FE
:10331000D2E060E0CE010E9434242196C11584E001
:10332000D807B9F7DF91CF910895DF92EF92FF921E
:103330000F931F93CF93DF9300D000D0CDB7DEB7AC
:10334000F82E8FE08F1540F08FEF93E00E94262437
:1033500007E012E08823C1F00F900F900F900F90BC
:10336000DF91CF911F910F91FF90EF90DF90089523
:10337000011584E0180781F3C8010E9426248111F9
:1033800001C0FA940F5F1F4FF110F2CF19821A8219
:103390001B821C82DD24D39478018FEFE81AF80A8F
:1033A000C8010E94262489831A828823A9F29FEFEC
:1033B000980F933078F48A83D9820E5F1F4FC7012C
:1033C0000E9426248B83882339F2CE0101960E9425
:1033D0000906E2CF8701F9CFCF93DF93EB01863166
:1033E0009C4511F50E941B0E9A81992399F08A7AC7
:1033F00091E009F490E090932E02811109C089E2D6
:103400000E94F60D0E945E0E80E0DF91CF9108953C
:1034100085E3F6CF80912E02811104C089E20E94DB
:10342000FD0DF0CF85E3FBCF81E0EFCF0F931F932E
:10343000CF93DF93C42FD22FFC0182818823C9F060
:10344000409331020E94131C9093300280932F020C
:1034500080E28C0F883008F050C0C77081E001C056
:10346000880FCA95EAF7DF91CF911F910F910C94C5
:10347000660710913102141335C080912F0290918C
:1034800030020E942B1C883C910560F5C0E2CD0FF4
:103490001D17B9F080E2810F883040F4177081E089
:1034A00001C0880F1A95EAF70E946D07C83048F4EA
:1034B00081E09D2F977001C0880F9A95EAF70E94CE
:1034C0006607802F0E945E07C830B8F4D77081E08D
:1034D00001C0880FDA95EAF7DF91CF911F910F9124
:1034E0000C946D0780E28C0F883038F4C77081E04F
:1034F00001C0880FCA95EAF7EFCFDF91CF911F91F6
:103500000F9108950F939C01CB01233F4CE53407A5
:1035100059F1A8F4283DFCE53F0701F1293D4CE5B0
:103520003407D1F1273D3C4591F406E221EE41EE0E
:1035300067ED7CE50E94161A80E00F910895253F03
:10354000FCE53F07E9F0B0F0263F3C45F9F0FC010F
:103550008281882339F110923102EFCF07E225EE04
:1035600045EE68ED7CE5E6CF06E221EE40EE63EF46
:103570007CE5E0CF07E225EE44EE64EF7CE5DACFB0
:1035800006E221EE42EE65EF7CE5D4CF07E225EEC0
:1035900046EE66EF7CE5CECF08E221E045EE69ED30
:1035A0007CE5C8CF81E0C9CF90939B0180939A01BD
:1035B000089590933702809336020895E091360281
:1035C000F0913702309721F00190F081E02D0994BD
:1035D00080E00895E0913602F0913702309721F0B3
:1035E0000280F381E02D09940895E0913602F09174
:1035F0003702309739F022E0DC012C930480F5810A
:10360000E02D099408952091340230913502281755
:10361000390771F09093350280933402E0913602BD
:10362000F0913702309721F00680F781E02D099460
:10363000089520913202309133022817390771F032
:103640009093330280933202E0913602F091370278
:10365000309721F00084F185E02D099408959C01B4
:103660002E5F3F4FAC01485F5F4F80E02417350766
:1036700009F40895F90191919F019923B9F38F5F9E
:10368000F5CF662349F0FC01329608962191261762
:1036900029F0E817F907D1F780E0089581E008954F
:1036A0009C01FC0132969FEF80E04191461751F05A
:1036B0009F3F19F4411101C0982F8F5F8630A9F701
:1036C0009F3F09F40895290F311D97FD3A95F9019F
:1036D00062830895FC01329608962191261303C057
:1036E000DF0111971C92E817F907B9F708950C94B8
:1036F000501B0C946A1B029626E0FC0111922A953D
:10370000E9F7089508950C94821B811105C081E0AA
:10371000809338020C94831B82E0FACF83E080937D
:1037200038020C94831B0C94851B81E08093380233
:103730000C94831B0C94951B08958091690284302E
:1037400031F10E94C7041092390288E190E020E430
:103750000FB6F894A895809360000FBE2093600088
:1037600083B7817F846083BF83B7816083BF789490
:10377000889583B78E7F83BF0FB6F894A895809104
:103780006000886180936000109260000FBE089511
:1037900008950895CF930E94C81B0E94F3030E94CE
:1037A000C91BC0E08C2F0E94F812892B31F4CF5F27
:1037B000C630C1F780E0CF91089581E0FCCF0E9430
:1037C000CE090C9435051F921FB61F9211248F93BA
:1037D0009F93AF93BF9380913902811113C0809161
:1037E000610290916202A0916302B09164024196DD
:1037F000A11DB11D8093610290936202A0936302A8
:10380000B0936402BF91AF919F918F911F901FBEA3
:103810001F90189582E084BD93E095BD9AEF97BD07
:1038200080936E0008952FB7F89480916102909173
:103830006202A0916302B09164022FBF08952FB776
:10384000F89460916102709162028091630290919C
:1038500064022FBF08959C014FB7F89480916102D4
:1038600090916202A0916302B09164024FBF821BEB
:10387000930B089578941F921FB61F9211248F9373
:103880009F93AF93BF938091610290916202A09148
:103890006302B09164020196A11DB11D8093610283
:1038A00090936202A0936302B0936402BF91AF91C0
:1038B0009F918F911F901FBE1F90189587E797E7E4
:1038C000909301088093000888E19AE00FB6F8947D
:1038D000A895809360000FBE90936000FFCF809109
:1038E0004502089508959C0184E08093E9009FEFCC
:1038F0008091E800915085FD06C085ED8A95F1F72D
:1039000000009111F5CF8091E80085FF0CC050E0D8
:1039100040E066E070E0C9010E94041F8091E80069
:103920008E778093E8000895CF93DF93EC0181E0D8
:103930008093E9008FEF9091E800815095FD06C0DB
:1039400095ED9A95F1F700008111F5CF8091E8008F
:1039500085FF14C050E040E068E070E0CE010E94B6
:10396000041F8091E8008E778093E80088E0FE01D4
:10397000ADE3B2E001900D928A95E1F7DF91CF912E
:10398000089580933A0270933C0260933B028091C9
:1039900069028430F9F48093E9008FEF9091E80098
:1039A000815095FD06C095ED9A95F1F700008111C3
:1039B000F5CF8091E80085FF0DC050E040E063E066
:1039C00070E08AE392E00E94041F8091E8008E7705
:1039D0008093E8000895BC0184E00C94C11CBC01F4
:1039E00083E00C94C11CCF93FC01603221F58091DF
:1039F0006902843001F5C091E900CF702091EC009C
:103A0000922F917020FD90E8C92B82E08093E9000D
:103A10008091E80080FF0CC050E040E060E270E080
:103A2000CF010E94041F8091E8008E778093E80008
:103A3000CF70C093E900CF91089580916802811101
:103A400009C00E94E3200E9440218091E20084602E
:103A50008093E20008951092680208950C94951BDB
:103A60006091650281E0611101C080E00C948E1BC1
:103A70009091690281E0943009F080E060916502E4
:103A80000C94931B42E061EC81E00E945F2042E2D3
:103A900061EC84E00E945F2042E261EC82E00E94DF
:103AA0005F2042E260EC83E00E945F209091690217
:103AB00081E0943009F080E0609165020C94851BF0
:103AC00080916B02833009F462C030F48130D9F107
:103AD000823009F49EC008958A3009F48AC08B3080
:103AE00009F470C0893009F051C080916A028132B6
:103AF00009F04CC080916E0290916F02009719F00E
:103B0000029709F043C08091E800877F8093E80026
:103B10008091E80082FF36C09091F3008091F2001E
:103B2000029731F48091F100813011F0863021F458
:103B30008091F100809345028091E8008B7780931B
:103B4000E8000C94932080916A02813AF9F4809104
:103B5000E800877F8093E80080916E0290916F0269
:103B6000892B61F468E08DE392E070E00E94A21F6F
:103B70008091E8008B778093E800089560E090E002
:103B800080E0F3CF809169028111C2CF08958091C6
:103B90006A02813AD9F780916E0290916F02892B67
:103BA000A9F78091E800877F8093E8008091E80082
:103BB00080FFFCCF809118018093F1008091E80094
:103BC0008E77BDCF80916A02813201F780916E02BB
:103BD00090916F02892BD1F68091E800877F8093C6
:103BE000E8000E94932080916C02809318010C944D
:103BF000CE0980916A02813249F68091E800877F80
:103C00008093E8000E94932080916D028093460289
:103C1000089580916A02813A09F0B8CF8091E80056
:103C2000877F8093E8008091E80080FFFCCF80913F
:103C30004602C2CF84B7877F84BF0FB6F894A89599
:103C400080916000886180936000109260000FBED8
:103C500080E890E00FB6F894809361009093610043
:103C60000FBE0C949A1B0E94E3200E944021E2EEBA
:103C7000F0E080818460808378940C94C9238CE088
:103C800091E00C94D91A809169028530A9F4809151
:103C90006902853011F00C94DF1B0E949D1B8091FE
:103CA00067028823A1F30E94CA1B882381F30E9424
:103CB000EE1E0E94CE09EBCF0895CF93DF93CDB7D0
:103CC000DEB7A0970FB6F894DEBF0FBECDBF8091D0
:103CD0006902843009F583E08093E9008091E8006F
:103CE00082FF1AC08091E80090E085FF09C050E093
:103CF00040E060E270E0CE0101960E94531F91E027
:103D00008091E8008B778093E800992329F060E2A6
:103D1000CE0101960E947B16A0960FB6F894DEBFE6
:103D20000FBECDBFDF91CF9108950C94971E292F20
:103D300033272330310521F168F42130310509F4AE
:103D400043C02230310509F444C090E080E030E007
:103D500020E026C02132310551F122323105A9F788
:103D60006330710590F7FB01EE0FFF1FE257FE4F26
:103D70002081318165577E4FFB01808190E010C02A
:103D800099278130910581F0009729F00297E9F693
:103D9000ECE3F3E002C0E0E6F3E0849190E09F0101
:103DA000FA01318320830895E2E5F3E0F6CF633032
:103DB000710558F6660F771FFB01EC56FE4F208108
:103DC000318189E090E0ECCF82E190E02FEB33E0AD
:103DD000E7CF8BE590E024E633E0E2CF80E189BDD8
:103DE00082E189BD09B400FEFDCF8091D8008F7DAE
:103DF0008093D8008091E00082608093E000809101
:103E0000E00081FDFCCF0895AF92BF92CF92DF9288
:103E1000FF920F931F93CF93DF936C01EB018A0105
:103E20000E94B220F82E811123C00115110539F02E
:103E3000F80180819181C81BD90BC80ED91EB12C05
:103E4000A12C2097A9F08091E80085FD22C08091E7
:103E5000E8008E778093E80001151105A1F0F801C4
:103E600080819181A80EB91EB182A08285E0F82ED2
:103E70008F2DDF91CF911F910F91FF90DF90CF9009
:103E8000BF90AF9008950E94B2208823D1F2F82EFF
:103E9000EFCFF60181916F018093F1002197FFEF41
:103EA000AF1ABF0ACECFAF92BF92CF92DF92FF92EE
:103EB0000F931F93CF93DF936C01EB018A010E9454
:103EC000B220F82E811123C00115110539F0F80137
:103ED00080819181C81BD90BC80ED91EB12CA12C91
:103EE0002097A9F08091E80085FD22C08091E8002C
:103EF0008B778093E80001151105A1F0F80180810E
:103F00009181A80EB91EB182A08285E0F82E8F2D76
:103F1000DF91CF911F910F91FF90DF90CF90BF90D5
:103F2000AF9008950E94B2208823D1F2F82EEFCFEF
:103F30008091F100F60181936F012197FFEFAF1A95
:103F4000BF0ACECFFC01809170029091710286175A
:103F50009707A0F06115710529F49091E8009E770C
:103F60009093E80090E06115710551F4911108C03B
:103F70008091E80082FF34C080E00895BC01F2CF58
:103F8000809169028823C1F18530C1F18091E800F8
:103F900083FD30C08091E80082FDEACF8091E80087
:103FA00080FFE1CF8091F3002091F200382F61155E
:103FB000710519F02830310558F091E028303105AD
:103FC00009F090E02091E8002E772093E800CBCF15
:103FD00081918093F100615071092F5F3F4FE7CFCE
:103FE00080916902882341F0853041F08091E8009A
:103FF00083FFBECF81E0089582E0089583E00895B5
:10400000FC01809170029091710286179707A0F0D1
:104010006115710529F48091E8008E778093E8009E
:1040200090E06115710551F4911108C08091E8008C
:1040300082FF35C080E00895BC01F2CF8091690213
:104040008823C9F18530C9F18091E80083FD31C032
:104050008091E80082FDEACF8091E80080FFE1CF07
:104060008091F3002091F200382F6115710519F04D
:104070002830310558F091E02830310509F090E002
:104080008091E8008E778093E800CBCF8491809375
:10409000F1003196615071092F5F3F4FE6CF80915B
:1040A0006902882341F0853041F08091E80083FF68
:1040B000BDCF81E0089582E0089583E00895982FB0
:1040C000973028F08F708093E90081E008959093F5
:1040D000E900242F762F50E0981731F07091EC0012
:1040E0002091ED005091F00021FD02C09F5FE8CFCC
:1040F0003091EB003E7F3093EB003091ED003D7F3F
:104100003093ED003091EB0031603093EB00709311
:10411000EC002093ED005093F0002091EE0027FD7D
:10412000E5CF80E0089580916A0287FF13C08091F7
:10413000E80082FF06C08091E8008B778093E8005A
:1041400004C0809169028111F2CF089580916902C3
:104150008823D9F38091E80080FFF8CF8091E800B0
:104160008E77ECCF2091E4003091E50095E6A9012F
:104170002091EC00822F817020FF06C08091E80022
:1041800080FF06C080E008952091E80022FD1AC05B
:1041900080916902882389F0853089F08091EB0055
:1041A00085FD0FC02091E4003091E50042175307D0
:1041B000F9F29150E1F684E0089582E0089583E0F9
:1041C000089581E008950E9451210E945921E0EE56
:1041D000F0E0808181608083E8EDF0E080818F777E
:1041E000808319BCA7EDB0E08C918E7F8C93808189
:1041F0008F7E80831092680208950F931F93CF9350
:10420000DF930E9451210E945921C8EDD0E088819E
:104210008F77888388818068888388818F7D888371
:1042200019BC1092690210926502109267021092F6
:10423000660200EE10E0F80180818B7F8083888128
:104240008160888342E060E080E00E945F20E1EED0
:10425000F0E080818E7F8083E2EEF0E080818160FB
:104260008083808188608083F80180818E7F808355
:10427000888180618883DF91CF911F910F9108958C
:10428000E8EDF0E080818F7E8083E7EDF0E08081D3
:104290008160808384E082BF81E0809368020C9417
:1042A000FD20E8EDF0E080818E7F80831092E200B7
:1042B00008951092DA001092E10008951F920F9273
:1042C0000FB60F9211242F933F934F935F936F93E9
:1042D0007F938F939F93AF93BF93EF93FF938091BF
:1042E000E10082FF0BC08091E20082FF07C0809155
:1042F000E1008B7F8093E1000E94C8238091DA0067
:1043000080FF19C08091D80080FF15C08091DA002D
:104310008E7F8093DA008091D90080FF96C080E183
:1043200089BD82E189BD09B400FEFDCF81E08093A3
:1043300069020E941D1D8091E10080FF19C08091DB
:10434000E20080FF15C08091E2008E7F8093E20042
:104350008091E20080618093E2008091D8008062C9
:104360008093D80019BC85E0809369020E94301DBB
:104370008091E10084FF2BC08091E20084FF27C080
:1043800080E189BD82E189BD89B5982F917080FF58
:10439000FBCF8091D8008F7D8093D8008091E10081
:1043A0008F7E8093E1008091E2008F7E8093E20017
:1043B0008091E20081608093E20080916502882311
:1043C00009F449C084E0809369020E94381D8091FD
:1043D000E10083FF29C08091E20083FF25C0809126
:1043E000E100877F8093E10082E080936902109270
:1043F00065028091E1008E7F8093E1008091E20070
:104400008E7F8093E2008091E20080618093E200E1
:1044100042E060E080E00E945F208091F0008860D0
:104420008093F0000E942E1DFF91EF91BF91AF91FC
:104430009F918F917F916F915F914F913F912F91BC
:104440000F900FBE0F901F90189519BC1092690223
:104450000E942B1D70CF8091E30087FD93E0909325
:104460006902B3CF1F920F920FB60F9211242F93B0
:104470003F934F935F936F937F938F939F93AF93EC
:10448000BF93CF93DF93EF93FF93D091E900DF7059
:104490008091EC00C82FC17080FDC0E81092E90047
:1044A0008091F000877F8093F00078940E947622BC
:1044B0001092E9008091F00088608093F000CD2B8D
:1044C000CF70C093E900FF91EF91DF91CF91BF9141
:1044D000AF919F918F917F916F915F914F913F919C
:1044E0002F910F900FBE0F901F9018951F93CF9391
:1044F000DF93CDB7DEB7AA970FB6F894DEBF0FBE35
:10450000CDBF8AE692E02091F100FC012193CF011A
:10451000F2E082379F07B9F70E94601D8091E800A2
:1045200083FF1EC180916A0290916B029A3008F05D
:1045300017C1E92FF0E0E956FB4D0C940C248038AC
:1045400099F0823809F00CC180916E028F7087302B
:1045500008F006C18093E9008091EB0085FB882775
:1045600080F91092E90006C080916602909167027E
:10457000911182609091E800977F9093E80080937A
:10458000F1001092F1008091E8008E77E5C0882359
:1045900009F4D3C0823009F0E3C080916C0281112C
:1045A000D6C080916E028F702FEF280F263008F052
:1045B000D7C08093E9002091EB0020FFC8C0933062
:1045C00031F48091EB0080628093EB00C0C0909149
:1045D000EB0090619093EB0021E030E001C0220FEE
:1045E0008A95EAF72093EA001092EA008091EB00A6
:1045F0008860EACF8111B4C010916C021F7780915E
:10460000E3008078812B8093E3008091E800877F2E
:104610008093E8000E9493208091E80080FFFCCF07
:104620008091E30080688093E30082E0111183E0D1
:104630008093690295C08058823008F091C08091C3
:104640006C0290916D028C3D23E09207A1F583E00E
:104650008A838AE289834FB7F894DE01139620E0BB
:104660003EE051E2E32FF0E050935700E49120FF49
:1046700003C0E295EF703F5FEF708E2F90E0EA305D
:10468000C0F0C7968D939D932F5F243159F74FBF8C
:104690008091E800877F8093E8006AE270E0CE01B5
:1046A00001960E94A21F8091E8008B778093E8001A
:1046B00057C0C096E7CF60916E0270916F02AE0155
:1046C0004F5F5F4F0E94951EBC01892B09F448C0C3
:1046D0009091E800977F9093E80089819A810E94E9
:1046E0000020E1CF8038E1F58091E800877F80935A
:1046F000E800809165028093F10045CF811130C0C0
:1047000090916C02923060F58091E800877F8093F1
:10471000E800909365020E949320809165028823AF
:1047200011F084E005C08091E30087FDFACF81E0BD
:10473000809369020E94421D13C080916C028130F7
:1047400079F481E0933009F080E080936702109261
:10475000E9008091E800877F8093E8000E94932021
:104760008091E80083FF0AC08091E800877F8093F2
:10477000E8008091EB0080628093EB00AA960FB670
:10478000F894DEBF0FBECDBFDF91CF911F9108958A
:104790000895CF93809169028823A1F0C091E90028
:1047A000CF709091EC00892F817090FD80E8C82B2C
:1047B0001092E9008091E80083FD0E947622CF707C
:1047C000C093E900CF910895AA1BBB1B51E107C01C
:1047D000AA1FBB1FA617B70710F0A61BB70B881F91
:1047E000991F5A95A9F780959095BC01CD01089520
:1047F00097FB072E16F4009407D077FD09D00E948E
:10480000E42307FC05D03EF4909581959F4F0895D1
:10481000709561957F4F0895EE0FFF1F0590F491FD
:10482000E02D099469279627692778278727782715
:104830000895FB01DC0104C08D910190801921F4E1
:1048400041505040C8F7881B990B0895F999FECF45
:1048500092BD81BDF89A992780B50895A8E1B0E08E
:1048600042E050E00C945A24262FF999FECF92BDD5
:1048700081BDF89A019700B4021639F01FBA20BD25
:104880000FB6F894FA9AF99A0FBE08950396272F57
:104890000E9435240E943424252F0E943524242F81
:1048A0000C9435240196272F0E9435240C9434242F
:1048B000DC01CB01FC01F999FECF06C0F2BDE1BDE0
:1048C000F89A319600B40D9241505040B8F70895CF
:1048D000F894FFCFB207B207E307E3077608920820
:1048E000120812089D08040913091309DD09DD09DE
:1048F000E609E609E809E609E609E609DD09DD0950
:10490000ED09E609E609ED098D169A16C116CD16D0
:10491000D816E316E616E616E616E616E616E916C5
:10492000ED16F51602170F171217151722179F22EB
:10493000C722B023C722B023FA221B23B02372233D
:024940007E23D4
:10494200C800F1012808641E140A321E6F1C941C50
:10495200731CEF1CEB1C721C0131F7F6F5F400001E
:104962000000003332363534C6E200E900EA00B511
:1049720000B600B700CD008301CC008A01920194F9
:10498200012102230224022502260227022A02B35F
:1049920000B4006F007000818283E200E900EA0047
:1049A200B500B600B700CD008301CC008A019201A8
:1049B20094012102230224022502260227022A024E
:1049C200B300B4006F00700081828340227B6E04CA
:0A49D200D103F30376038F03AF0354
:00000001FF
